:100000000C94E4AD0C940DAE0C940DAE0C940DAEAE
:100010000C940DAE0C940DAE0C940DAE0C940DAE74
:100020000C940DAE0C940DAE0C940DAE0C940DAE64
:100030000C940DAE0C940DAE0C940DAE0C940DAE54
:100040000C940DAE0C940DAE0C940DAE0C940DAE44
:100050000C940DAE0C940DAE0C940DAE0C940DAE34
:100060000C940DAE0C940DAE0C940DAE0C940DAE24
:100070000C940DAE0C940DAE0C940DAE0C940DAE14
:100080000C940DAE0C940DAE0C940DAE0C940DAE04
:100090000C940DAE0C940DAE0C940DAE0C940DAEF4
:1000A0000C940DAE0C940DAE0C940DAE0C948CB360
:1000B0000C940DAE0C940DAE0C945FB30D94C42350
:1000C0000C940DAE0C940DAE0C940DAE0C940DAEC4
:1000D0000C940DAE0C940DAE0C940DAE0C940DAEB4
:1000E0000C940DAE0C940DAE0C9403B30C9431B380
:1000F0000C940DAE0C940DAE0C940DAE0C940DAE94
:100100000C940DAE0C940DAE0C940DAE0C940DAE83
:100110000C940DAE0C940DAE0C940DAE0C940DAE73
:100120000C940DAE0C940DAE0C940DAE0C940DAE63
:100130000C940DAE0C940DAE0C940DAE0C940DAE53
:100140000C940DAE0C940DAE0C940DAE0C940DAE43
:100150000C940DAE0C940DAE0C940DAE0C940DAE33
:100160000C940DAE0C940DAE0C940DAE0C940DAE23
:100170000C940DAE0C940DAE0C940DAE0C940DAE13
:100180000C940DAE0C940DAE0C940DAE0C940DAE03
:100190000C940DAE0C940DAE0C940DAE0C940DAEF3
:1001A0000C940DAE0C940DAE0C940DAE0C940DAEE3
:1001B0000C940DAE0C940DAE0C940DAE0C940DAED3
:1001C0000C940DAE0C940DAE0C940DAE0C940DAEC3
:1001D0000C940DAE0C940DAE0C940DAE0C940DAEB3
:1001E0000C940DAE0C940DAE0C940DAE0C940DAEA3
:1001F0000C940DAE0C940DAE0C940DAE87E726E575
:100200007CE52DE5A4E8A4E8A4E84BE2A4E8B3E685
:10021000D4E395E795E608E530E6A4E8A4E88BE2A8
:10022000A4E8A7E68EE6D3E5C1E66002980298024C
:100230009802980222029802980298029802980264
:1002400098029802980298029802980298029802DE
:1002500098029402980298029802980298029802D2
:1002600098029802980298029802980298029802BE
:10027000980298029802E001980298029802980267
:100280009802C8019802980298029802980298026F
:100290009802FE0198029802980298029802980229
:1002A000980298029802980298029802980298027E
:1002B000980298029802780298029802980298028E
:1002C00098020E0266026602DA01E4019202D60189
:1002D0002402CA0126025C0204023A0244023202EB
:1002E0005E02FA019C0276021E02C6011602380264
:1002F0006802F4018002C20158022C023C0254023E
:100300004A022A024A024A024A023E024A024A02B9
:100310004A024A024A024A024A020A024A024A02BD
:100320004A024A024A024A024A024A024A024A026D
:100330004A024A024A024A024A027A024A024A022D
:100340004A024A024A024A024A024A024A024A024D
:100350004A024A024A024A024A024A024A024A023D
:100360004A024A024A024A024A024A024A024A022D
:100370004A024A024A024A024A0248020D949B2457
:100380000D947C510D941E740C9495E60D94E274BA
:100390000D94F9430D94D6630C9450BB0C94DDDF9F
:1003A0000C9426E50D949E270D94245C0D943663E1
:1003B0000D94473B0D94A2620D9409260C942BB228
:1003C0000D94F3430D9496580D94DE620C948BE2D9
:1003D0000C94B3E60C9495E70C94D0EA0C944BE2A1
:1003E0000D940E260C9487E70D9475710D94465C60
:1003F0000D942E260D94D0670D9470240D94FC431B
:100400000C948EE60C9420B20D94B6660C94C1E662
:100410000D94C7240D94D3780C9436B20D94F64302
:100420000C942DE50D943E5C0C94A4E80D94C86FDB
:100430000C94F4B20C944EC30D942C5C0D94706E1D
:100440000D94253B0D9402440D94A4630D946566B0
:100450000C94D3E50D94BF780D940E790C9465E956
:100460000D94FC3A0D947A670C94A7E60C9481EBFA
:100470000D94DD6F0D94CC660D94AB780D94C97816
:100480000C9430E60D94585C0D94F8660C94BBE81F
:100490000D94E7780D94F1780D940F280C947CE579
:1004A0000D94E9270C94C7DE0D94B5780D94693B43
:1004B0000D9486740C9408E50D9496660D949067DF
:1004C0000D9405440C94E8CE0D94A4530D949362BE
:1004D0000D94DC740D94645A0D94685C0C949AEC41
:1004E0000D94C3270D94F75B0C94D4E30D94566ED2
:1004F0000D94F0430D94DD780C9449B20D94605C3A
:100500000D9487710D947A260C94A4DE0C94DEB1C0
:100510000D9454540D94043B0D948D270C9485D761
:100520000D94E9230D9410630D94FF430D9444241E
:100530000D9408440D94F85B0D94E8740D94285CB8
:100540000D94EB1A00407A10F35A00A0724E18096D
:100550000010A5D4E80000E87648170000E40B542A
:10056000020000CA9A3B000000E1F50500008096F9
:100570009800000040420F000000A086010000002B
:10058000102700000000E8030000000064000000E5
:1005900000000A00000000000100000000002C76AE
:1005A000D888DC674F0823DFC1DFAE59E1B1B796C9
:1005B000E5E3E453C63AE651997696E8E6C2842626
:1005C000EB898C9B62ED407C6FFCEFBC9C9F40F202
:1005D000BAA56FA5F490055A2AF75C936B6CF9677E
:1005E0006DC11BFCE0E40D47FEF520E6B500D0ED43
:1005F000902E0300943577050080841E08000020AB
:100600004E0A000000C80C333333330F986E128348
:100610001141EF8D2114893BE65516CFFEE6DB181C
:10062000D1844B381BF77C1D901DA4BBE4242032E1
:1006300084725E228100C9F124ECA1E53D27466564
:10064000686C657220696E206465722046756E6BF9
:1006500074696F6E3A205F696E697444697370469D
:100660006C617368004665686C657220696E206411
:1006700065722046756E6B74696F6E3A205F696EA5
:10068000697444697370466C617368004B6F6E7473
:10069000616B74696572656E205369652064696574
:1006A00020456C656B74726F6E696B2D4162746569
:1006B000696C756E672E004B6F6E74616B74696543
:1006C00072656E205369652064696520456C656BB1
:1006D00074726F6E696B2D41627465696C756E67BB
:1006E0002E004665686C6572206265696D20496EF2
:1006F000697469616C6973696572656E206465739C
:100700002053706569636865722D43686970732151
:10071000004665686C6572206265696D20496E6986
:100720007469616C6973696572656E2064657320B4
:1007300053706569636865722D4368697073210041
:10074000496E697469616C69736965726520646575
:100750006E20446973706C61792D537065696368AC
:1007600065722E2E2E00496E697469616C69736919
:100770006572652064656E20446973706C61792DC3
:1007800053706569636865722E2E2E004461766F22
:100790006E2066726569657220537065696368656D
:1007A00072203A2025356C75204B694200446176F1
:1007B0006F6E206672656965722053706569636843
:1007C0006572203A2025356C75204B6942004765DB
:1007D00073616D74652053706569636865726772D3
:1007E000F67373653A2025356C75204B69422000FD
:1007F000476573616D7465205370656963686572E0
:100800006772F67373653A2025356C75204B694223
:100810002000446174656973797374656D205B258C
:10082000735D20676566756E64656E20756E642005
:10083000696E697469616C6973696572743A0044C0
:100840006174656973797374656D205B25735D20D0
:10085000676566756E64656E20756E6420696E6985
:100860007469616C6973696572743A004665686C95
:10087000657220696E206465722046756E6B7469BE
:100880006F6E3A205F696E69744D656D4653203412
:10089000004665686C657220696E2064657220464A
:1008A000756E6B74696F6E3A205F696E69744D6521
:1008B0006D46532034004B6F6E74616B74696572C2
:1008C000656E205369652064696520456C656B74AD
:1008D000726F6E696B2D41627465696C756E672EFF
:1008E000004B6F6E74616B74696572656E2053693D
:1008F000652064696520456C656B74726F6E696B09
:100900002D41627465696C756E672E004461746573
:100910006973797374656D206B6F6E6E7465206E8C
:100920006963687420696E697469616C697369656B
:1009300072742077657264656E2100446174656924
:1009400073797374656D206B6F6E6E7465206E695C
:1009500063687420696E697469616C697369657232
:10096000742077657264656E21004665686C6572F7
:1009700020696E206465722046756E6B74696F6EB7
:100980003A205F696E69744D656D465320310046AB
:1009900065686C657220696E206465722046756EAC
:1009A0006B74696F6E3A205F696E69744D656D4650
:1009B000532031004B6F6E74616B74696572656EA4
:1009C000205369652064696520456C656B74726F9E
:1009D0006E696B2D41627465696C756E672E004B94
:1009E0006F6E74616B74696572656E205369652002
:1009F00064696520456C656B74726F6E696B2D411F
:100A0000627465696C756E672E00DC626572707267
:100A1000FC66652064617320446174656973797351
:100A200074656D2E2E2E00DC6265727072FC666538
:100A30002064617320446174656973797374656DB2
:100A40002E2E2E00537065696368657220696E6989
:100A50007469616C697369657274210053706569AA
:100A60006368657220696E697469616C6973696530
:100A7000727421004665686C657220696E20646539
:100A8000722046756E6B74696F6E3A205F696E698D
:100A9000744D656D46532030004665686C65722064
:100AA000696E206465722046756E6B74696F6E3A6C
:100AB000205F696E69744D656D46532030004B6F41
:100AC0006E74616B74696572656E2053696520642C
:100AD000696520456C656B74726F6E696B2D416240
:100AE0007465696C756E672E004B6F6E74616B7404
:100AF000696572656E205369652064696520456C7F
:100B0000656B74726F6E696B2D41627465696C758B
:100B10006E672E004665686C6572206265696D209F
:100B2000496E697469616C6973696572656E206488
:100B300065732053706569636865722D43686970D9
:100B40007321004665686C6572206265696D204995
:100B50006E697469616C6973696572656E2064653C
:100B6000732053706569636865722D43686970739B
:100B70002100496E697469616C69736965726520E9
:100B800064656E2053706569636865722E2E2E0051
:100B9000496E697469616C69736965726520646521
:100BA0006E2053706569636865722E2E2E00546F37
:100BB000756368646973706C61792D4B6F6E7472C4
:100BC0006F6C6C657220696E697469616C697369B8
:100BD00065727400546F756368646973706C6179D1
:100BE0002D4B6F6E74726F6C6C657220696E6974D8
:100BF00069616C697369657274004665686C6572D9
:100C000020696E206465722046756E6B74696F6E24
:100C10003A205F696E6974546F7563680046656851
:100C20006C657220696E206465722046756E6B7407
:100C3000696F6E3A205F696E6974546F75636800FE
:100C40004B6F6E74616B74696572656E2053696574
:100C50002064696520456C656B74726F6E696B2DDD
:100C600041627465696C756E672E004B6F6E7461BE
:100C70006B74696572656E205369652064696520CF
:100C8000456C656B74726F6E696B2D41627465693A
:100C90006C756E672E004665686C657220626569CA
:100CA0006D20496E697469616C6973696572656EFE
:100CB0002064657320546F756368646973706C6138
:100CC000792D4B6F6E74726F6C6C65727321004678
:100CD00065686C6572206265696D20496E6974692A
:100CE000616C6973696572656E2064657320546F09
:100CF000756368646973706C61792D4B6F6E747283
:100D00006F6C6C6572732100496E697469616C69FE
:100D100073696572652064656E20546F75636864DD
:100D20006973706C61792D4B6F6E74726F6C6C654A
:100D3000722E2E2E00496E697469616C6973696543
:100D400072652064656E20546F75636864697370A2
:100D50006C61792D4B6F6E74726F6C6C65722E2E98
:100D60002E005365747A746520646965206C65741F
:100D70007A7465204275696C642D5A6569742061C6
:100D80006C73206E657565205A6569743A30383A1F
:100D900030393A3332202D204665622032352032F8
:100DA000303232005365747A746520646965206C52
:100DB00065747A7465204275696C642D5A6569742E
:100DC00020616C73206E657565205A6569743A30D0
:100DD000383A30393A3332202D2046656220323598
:100DE0002032303232005075666665722D42617471
:100DF00074657269652064657220456368747A65FC
:100E00006974756872206C6565723F00507566661E
:100E100065722D4261747465726965206465722023
:100E2000456368747A656974756872206C6565726B
:100E30003F0047656C6573656E65205A6569743A55
:100E400020252E32643A252E32643A252E32642033
:100E5000252E32642E252E32642E252E3464004732
:100E6000656C6573656E65205A6569743A20252E38
:100E700032643A252E32643A252E326420252E32F1
:100E8000642E252E32642E252E346400456368744A
:100E90007A656974756872205370656963686572F4
:100EA00020616B7475616C697369657274210045AA
:100EB0006368747A656974756872205370656963D4
:100EC00068657220616B7475616C697369657274B1
:100ED0002100456368747A65697475687220696E6B
:100EE000697469616C6973696572740045636874DB
:100EF0007A65697475687220696E697469616C6974
:100F0000736965727400496E666F726D69657265AA
:100F10006E207369652062697474652064656E2053
:100F2000537570706F7274202F2064696520456C52
:100F3000656B74726F6E696B20FC62657220646110
:100F4000732050726F626C656D2E00496E666F7211
:100F50006D696572656E2073696520626974746578
:100F60002064656E20537570706F7274202F20643A
:100F7000696520456C656B74726F6E696B20FC62ED
:100F80006572206461732050726F626C656D2E0013
:100F90005365747A746520646965206C65747A742D
:100FA00065204275696C642D5A65697420616C73A3
:100FB000206E657565205A6569743A30383A303963
:100FC0003A3332202D2046656220323520323032CD
:100FD00032005365747A746520646965206C6574A9
:100FE0007A7465204275696C642D5A656974206154
:100FF0006C73206E657565205A6569743A30383AAD
:1010000030393A3332202D20466562203235203285
:1010100030323200456368747A656974756872208D
:101020006B6F6E6E7465206E6963687420696E699B
:101030007469616C6973696572742077657264653F
:101040006E210D0A00456368747A6569747568726B
:10105000206B6F6E6E7465206E6963687420696EB4
:10106000697469616C69736965727420776572640B
:10107000656E210D0A00496E697469616C69736956
:101080006572652064696520456368747A65697472
:101090007568722E2E2E00496E697469616C6973D1
:1010A000696572652064696520456368747A65695D
:1010B000747568722E2E2E004D696B726F6B6F6E99
:1010C00074726F6C6C6572626F61726420506F72C3
:1010D000742D4572776569746572756E6720696EE7
:1010E000697469616C697369657274004D696B72CA
:1010F0006F6B6F6E74726F6C6C6572626F6172642D
:1011000020506F72742D4572776569746572756EC3
:101110006720696E697469616C69736965727400CE
:101120004665686C657220696E206465722046753C
:101130006E6B74696F6E3A205F696E6974496E7484
:1011400065726E616C506F7274457870616E646523
:1011500072004665686C657220696E206465722055
:1011600046756E6B74696F6E3A205F696E6974497B
:101170006E7465726E616C506F7274457870616EDA
:10118000646572004B6F6E74616B74696572656E35
:10119000205369652064696520456C656B74726FC6
:1011A0006E696B2D41627465696C756E672E004BBC
:1011B0006F6E74616B74696572656E20536965202A
:1011C00064696520456C656B74726F6E696B2D4147
:1011D000627465696C756E672E004D696B726F6B1A
:1011E0006F6E74726F6C6C6572626F6172642050A6
:1011F0006F72742D4572776569746572756E6720BC
:101200006B6F6E6E7465206E6963687420696E69B9
:101210007469616C6973696572742077657264655D
:101220006E21004D696B726F6B6F6E74726F6C6CB8
:101230006572626F61726420506F72742D457277AF
:101240006569746572756E67206B6F6E6E7465206C
:101250006E6963687420696E697469616C69736929
:101260006572742077657264656E2100496E6974D9
:1012700069616C69736965726520646965204D698F
:101280006B726F6B6F6E74726F6C6C6572626F6194
:10129000726420506F72742D45727765697465723F
:1012A000756E672E2E2E00496E697469616C6973C4
:1012B0006965726520646965204D696B726F6B6F3B
:1012C0006E74726F6C6C6572626F61726420506FC5
:1012D00072742D4572776569746572756E672E2E0E
:1012E0002E004D696B726F6B6F6E74726F6C6C65F4
:1012F000722D506C6174696E65206572666F6C67E3
:10130000726569636820696E697469616C69736983
:1013100065727421004D696B726F6B6F6E74726FC2
:101320006C6C65722D506C6174696E6520657266B7
:101330006F6C67726569636820696E697469616C56
:10134000697369657274210050617363616C204731
:101350006573656C6C202D2032303231002D2053A6
:1013600063687761626B7570706C756E6720546529
:10137000737465696E7269636874756E67202D0099
:10138000496E697469616C69736965726520646925
:1013900065204D696B726F6B6F6E74726F6C6C65EC
:1013A000722D506C6174696E652E2E2E00496E6927
:1013B0007469616C69736965726520646965204D43
:1013C000696B726F6B6F6E74726F6C6C65722D509F
:1013D0006C6174696E652E2E2E004275696C642DE9
:1013E0005A6569743A2030383A30393A3332202D10
:1013F0002046656220323520323032320042756933
:101400006C642D5A6569743A2030383A30393A3371
:1014100032202D20466562203235203230323200B3
:10142000456E747769636B6C65722D4D6F6475736F
:10143000206765737461727465742100456E7477FA
:1014400069636B6C65722D4D6F647573206765738E
:101450007461727465742100446973706C617920E1
:101460004F4B2C206C6164652047726166696B6527
:101470006E2E2E2E005765636873656C7374726FE1
:101480006D73656E736F72206572666F6C677265DF
:1014900069636820696E697469616C6973696572F2
:1014A0007421005765636873656C7374726F6D7334
:1014B000656E736F72206572666F6C6772656963C3
:1014C0006820696E697469616C69736965727421F9
:1014D000004665686C657220696E206465722046FE
:1014E000756E6B74696F6E3A205F70726F746F41C6
:1014F0004353656E496E6974004665686C65722079
:10150000696E206465722046756E6B74696F6E3A01
:10151000205F70726F746F414353656E496E6974DA
:10152000004B6F6E74616B74696572656E205369F0
:10153000652064696520456C656B74726F6E696BBC
:101540002D41627465696C756E672E004B6F6E7409
:10155000616B74696572656E2053696520646965A5
:1015600020456C656B74726F6E696B2D416274659A
:10157000696C756E672E004665686C6572206265E1
:10158000696D20496E697469616C6973696572651A
:101590006E20646573205765636873656C7374723D
:1015A0006F6D73656E736F7221004665686C65724E
:1015B000206265696D20496E697469616C6973693F
:1015C0006572656E20646573205765636873656C2A
:1015D0007374726F6D73656E736F722100496E69FB
:1015E0007469616C6973696572652064656E205702
:1015F00065636873656C7374726F6D73656E736F1A
:10160000722E2E2E00496E697469616C697369656A
:1016100072652064656E205765636873656C7374CA
:10162000726F6D73656E736F722E2E2E00416E6138
:101630006C6F672D4469676974616C2D57616E64C6
:101640006C6572206572666F6C677265696368208D
:10165000696E697469616C697369657274210041AE
:101660006E616C6F672D4469676974616C2D576199
:101670006E646C6572206572666F6C677265696313
:101680006820696E697469616C6973696572742137
:10169000004665686C657220696E2064657220463C
:1016A000756E6B74696F6E3A205F70726F746F56EF
:1016B00053656E7365414443496E697400466568BD
:1016C0006C657220696E206465722046756E6B745D
:1016D000696F6E3A205F70726F746F5653656E73E8
:1016E00065414443496E6974004B6F6E74616B745D
:1016F000696572656E205369652064696520456C73
:10170000656B74726F6E696B2D41627465696C757F
:101710006E672E004B6F6E74616B74696572656ED7
:10172000205369652064696520456C656B74726F30
:101730006E696B2D41627465696C756E672E00462B
:1017400065686C6572206265696D20496E697469AF
:10175000616C6973696572656E20646573204144CC
:10176000437321004665686C6572206265696D206F
:10177000496E697469616C6973696572656E20642C
:10178000657320414443732100496E697469616C3B
:101790006973696572652064656E20416E616C6F66
:1017A000672D4469676974616C2D57616E646C655F
:1017B000722E2E2E00496E697469616C69736965B9
:1017C00072652064656E20416E616C6F672D44699F
:1017D000676974616C2D57616E646C65722E2E2E74
:1017E00000446966666572656E7469616C2D4D753D
:1017F0006C7469706C6578657220696E6974696172
:101800006C69736965727421004469666665726506
:101810006E7469616C2D4D756C7469706C6578655A
:101820007220696E697469616C697369657274218B
:1018300000416E616C6F672D4469676974616C2D3E
:1018400057616E646C6572206572666F6C67726555
:1018500069636820696E697469616C69736965722E
:10186000742100416E616C6F672D44696769746112
:101870006C2D57616E646C6572206572666F6C6763
:10188000726569636820696E697469616C697369FE
:1018900065727421004665686C657220696E20640B
:1018A00065722046756E6B74696F6E3A205F707258
:1018B0006F746F437572414443496E6974004665A5
:1018C000686C657220696E206465722046756E6B67
:1018D00074696F6E3A205F70726F746F43757241F6
:1018E0004443496E6974004B6F6E74616B74696533
:1018F00072656E205369652064696520456C656B6F
:1019000074726F6E696B2D41627465696C756E6778
:101910002E004B6F6E74616B74696572656E205337
:1019200069652064696520456C656B74726F6E69CA
:101930006B2D41627465696C756E672E0046656833
:101940006C6572206265696D20496E697469616CAD
:101950006973696572656E206465732041444373E1
:1019600021004665686C6572206265696D20496E6C
:10197000697469616C6973696572656E2064657309
:1019800020414443732100496E697469616C697335
:10199000696572652064656E20416E616C6F672DAC
:1019A0004469676974616C2D57616E646C65722E51
:1019B0002E2E00496E697469616C69736965726580
:1019C0002064656E20416E616C6F672D44696769A4
:1019D00074616C2D57616E646C65722E2E2E0050F2
:1019E0006F72746572776569746572756E67206968
:1019F0006E697469616C6973696572742100506FF6
:101A000072746572776569746572756E6720696E48
:101A1000697469616C6973696572742100466568EF
:101A20006C657220696E206465722046756E6B74F9
:101A3000696F6E3A205F70726F746F43757245788C
:101A400070496E6974004665686C657220696E2025
:101A50006465722046756E6B74696F6E3A205F70B4
:101A6000726F746F437572457870496E6974004B7C
:101A70006F6E74616B74696572656E205369652061
:101A800064696520456C656B74726F6E696B2D417E
:101A9000627465696C756E672E004B6F6E74616B56
:101AA00074696572656E20536965206469652045B7
:101AB0006C656B74726F6E696B2D41627465696CD5
:101AC000756E672E004665686C6572206265696D8B
:101AD00020496E697469616C6973696572656E200D
:101AE00064657220506F727465727765697465728F
:101AF000756E6721004665686C6572206265696D68
:101B000020496E697469616C6973696572656E20DC
:101B100064657220506F727465727765697465725E
:101B2000756E672100496E697469616C69736965D6
:101B300072652064696520506F727465727765699B
:101B4000746572756E672E2E2E00496E6974696118
:101B50006C6973696572652064696520506F727481
:101B60006572776569746572756E672E2E2E002515
:101B70006C752E2530336C7500256C752725303338
:101B80006C752E2530336C75002E2530336C752026
:101B90006D4F686D0D0A002530336C75002E2530B1
:101BA000336C75206D4F686D0D0A002530336C75F0
:101BB00000256C752700206D560D0A1B5B316D43A7
:101BC000616C63756C6174656420526573697374CC
:101BD0006F7220286D4F686D293A201B5B306D0DA8
:101BE0000A00206D410D0A1B5B316D446966666514
:101BF00072656E7469616C20566F6C7461676520E4
:101C0000286D56293A201B5B306D0D0A00206D5659
:101C10000D0A1B5B316D4D6178696D756D204375E3
:101C20007272656E742053657420726F7567686C8C
:101C30007920286D41293A201B5B306D0D0A7E000A
:101C4000206D56290D0A1B5B316D4275636B2D4368
:101C50006F6E766572746572204665656462616355
:101C60006B20286D56293A201B5B306D0D0A002031
:101C70006D5620285261773A2000206D410D0A1BD5
:101C80005B316D4F757470757420566F6C7461673D
:101C90006520286D56293A201B5B306D0D0A7E00A9
:101CA0000D0A1B5B316D43757272656E742053654E
:101CB0006E736F7220286D41293A201B5B306D0DC9
:101CC0000A0052756E202770726F746F2068656C01
:101CD0007027206F72202770726F746F203F27204B
:101CE000746F207072696E7420616C6C2061766113
:101CF000696C61626C6520617267756D656E747385
:101D00002E0D0A00417267756D656E74206E6F74DA
:101D100020666F756E642E2043757272656E742D29
:101D2000536F757263652064697361626C65642EBC
:101D30000D0A0052756E202770726F746F206865EF
:101D40006C7027206F72202770726F746F203F278E
:101D500020746F207072696E7420616C6C206176E3
:101D600061696C61626C6520617267756D656E7426
:101D7000732E0D0A00417267756D656E74206E6F6B
:101D80007420666F756E642E2043757272656E7472
:101D90002D536F757263652064697361626C65644D
:101DA0002E0D0A004170706172656E74207C537C48
:101DB0003A20257320564100526561637469766547
:101DC00020513A20257320766172202D2000416336
:101DD0007469766520503A2025732057202D200005
:101DE00043757272656E743A20257320410D0A00A6
:101DF000566F6C746167653A2025732056202D203C
:101E000000282042696E6172793A20256325632596
:101E100063256320256325632563256320256325CA
:101E200063256325632025632563256325632025BA
:101E30006325632563256320256325632563256367
:101E4000202563256325632563202563256325639A
:101E5000256320290D0A00746F207468652056617F
:101E60006C75653A2030782530325825303258204C
:101E700025303258253032580D0A00282042696E2C
:101E80006172793A202563256325632563202563E4
:101E9000256325632563202563256325632563204A
:101EA0002563256325632563202563256325632535
:101EB000632025632563256325632025632563252A
:101EC00063256320256325632563256320290D0A87
:101ED00000253032582530325820253032582530F0
:101EE00032580D0A004368616E6765642052656769
:101EF0006973746572203078253032582066726FAD
:101F00006D2056616C75653A20307800577269749F
:101F1000696E6720696E746F20454550524F4D20A1
:101F200073746F7261676520666F72207361666596
:101F3000747920726561736F6E73206E6F742061A7
:101F40006C6C6F776564202D2075736520746865EF
:101F500020736861646F776564206D656D6F727959
:101F6000206172656100706F6B6500282042696EA8
:101F70006172793A202563256325632563202563F3
:101F80002563256325632025632563256325632059
:101F90002563256325632563202563256325632544
:101FA0006320256325632563256320256325632539
:101FB00063256320256325632563256320290D0A96
:101FC00000253032582530325820253032582530FF
:101FD00032580D0A0052656164696E672052656768
:101FE000697374657220307825303258202D205660
:101FF000616C75653A203078007065656B006163CF
:1020000073000D0A1B5B346D54657374696E672031
:102010006368616E6E656C201B5B316D25641B5BB4
:10202000306D1B5B346D2E2E2E1B5B306D005065AA
:1020300072666F726D696E672066756C6C20382DE4
:102040004368616E6E656C20746573742E2E2E0D60
:102050000A00702D66756C6C004572726F723A20C2
:102060004368616E6E656C20417267756D656E7454
:10207000206D697373696E67210043757272656EB6
:102080007420736F757263652064697361626C6537
:10209000642C206368616E6E656C7320636C65618F
:1020A0007265642E0D0A000D0A4C6F6F7020666910
:1020B0006E69736865642C20256C752074696D6584
:1020C000732073616D706C65642026207072696E78
:1020D0007465642E0D0A0054657374696E6720631D
:1020E00068616E6E656C20256420256C7520616DBD
:1020F0006F756E74206F662074696D6573206576E8
:1021000065727920256C75206D732E2E2E0D0A00B8
:1021100053656C65637465642064656C61792074D3
:102120006F6F20736D616C6C2C2073657474696EB5
:102130006720697420746F20256C756D732E0D0AED
:10214000004572726F723A204F6E6C79206368613D
:102150006E6E656C73203020746F203720616C6C5C
:102160006F776564210D0A00702D72756E000D0A7F
:102170004C6F6F702066696E69736865642C2025EA
:102180006C752074696D65732073616D706C656426
:102190002026207072696E7465642E0D0A005365E6
:1021A0006C65637465642064656C617920746F6F1D
:1021B00020736D616C6C2C2073657474696E67207C
:1021C000697420746F20256C756D732E0D0A007074
:1021D0002D73616D706C650044697361626C656438
:1021E0002043757272656E742D536F75726365202E
:1021F0002620506F7765722D4D7578204368616E8B
:102200006E656C2E0D0A00702D6F6666004E6F2095
:102210006368616E6E656C2073656C65637465647C
:102220002E2053656C656374206669727374206137
:10223000206368616E6E656C207573696E672070CF
:10224000726F746F206368203C6E3E2E0D0A007022
:102250002D6F6E0053656C65637420746865206330
:1022600068616E6E656C206E756D626572202830D7
:1022700020746F20372920746F2061637469766140
:1022800074652061206368616E6E656C2E0D0A00B6
:102290004368616E6E656C2025642073656C6563B0
:1022A000746564210D0A00496E76616C6964206171
:1022B0007267756D656E742E204F6E6C7920636841
:1022C000616E6E656C73203020746F203720616CF6
:1022D0006C6F776564210D0A00702D636800507281
:1022E0006F746F747970652D426F617264204465FC
:1022F000627567204D6F64756C650D0A5573616773
:10230000653A200D0A70726F746F203F20202020E4
:1023100020202020202020202020202020202020BD
:10232000202020202020202D2053686F77207468E3
:10233000697320706167650D0A70726F746F207029
:102340002D6368205B3C6E3E5D20202020202020F5
:1023500020202020202020202020202D2053656CAC
:10236000656374206368616E6E656C2028436861E4
:102370006E6E656C203020746F204368616E6E65F0
:102380006C2037290D0A70726F746F20702D6F6E7C
:10239000202020202020202020202020202020203D
:1023A00020202020202020202D205475726E206FA8
:1023B0006E207468652063757272656E7420736F29
:1023C000757263650D0A70726F746F20702D6F6681
:1023D00066202020202020202020202020202020B7
:1023E00020202020202020202D205475726E206F68
:1023F0006666207468652063757272656E742073FA
:102400006F75726365202620706F776572206D7519
:10241000780D0A70726F746F20702D73616D706C1F
:1024200065205B3C636E743E205B3C645F6D733E75
:102430005D202020202D205072696E742074686504
:10244000204144432076616C7565732026206361CA
:102450006C63756C61746520726573697374616E09
:1024600063650D0A202020202D2043616E206265C7
:10247000206C6F6F706564206279203C636E743EDF
:102480002074696D65732C207769746820612064FD
:10249000656C6179206F66203C645F6D733E2069D6
:1024A0006E206265747765656E2E0D0A20202020EF
:1024B0002D203530306D732069732075736564206D
:1024C00061732064656C617920627920646566615E
:1024D000756C742C206966206E6F2064656C617960
:1024E0002069732070617373656420286D696E3A8A
:1024F000203530290D0A202020202D2055736520FD
:10250000273027206173203C636E743E20746F2057
:10251000636F6E74696E756520656E646C65737348
:102520006C792E20507265737320616E79206C6512
:10253000747465722D6B657920746F2063616E63AE
:10254000656C2E0D0A70726F746F20702D72756E2F
:10255000203C63683E205B3C636E743E205B3C64C1
:102560005F6D733E5D5D202D204175746F6D6174EC
:102570006963616C6C792073656C6563742C207081
:102580006F77657220616E64206D65617375726529
:10259000207468650D0A2020202020206368616E69
:1025A0006E656C203C63683E2C206265666F7265C8
:1025B00020706F776572696E6720646F776E206137
:1025C0006761696E2E0D0A202020202D2054686539
:1025D000206D6561737572696E672D70617274200C
:1025E00063616E2062652072657065617465642048
:1025F0006279203C636E743E2D74696D657320773B
:1026000069746820612064656C61790D0A2020205E
:102610002020206F6620353030206F72203C645FB0
:102620006D733E2E2055736520273027206173205F
:102630003C636E743E20746F206D656173757265C6
:1026400020656E646C6573736C792C207072657391
:102650007320616E790D0A2020202020206F6620D3
:10266000746865206C65747465722D6B6579732070
:10267000746F2063616E63656C2E0D0A70726F74E7
:102680006F20702D66756C6C20202020202020206B
:1026900020202020202020202020202020202D202D
:1026A000506572666F726D20612066756C6C207467
:1026B000657374206F6620616C6C206368616E6E58
:1026C000656C732077697468207468652020202009
:1026D000202064656661756C742064656C61792086
:1026E000696E6265747765656E2C20616E6420701A
:1026F00072696E7473206F757420746865207265DA
:1027000073756C742E0D0A1B5B316D466F722074ED
:1027100068652041435333373830302056414320D9
:1027200053656E736F723A1B5B306D0D0A70726F7A
:10273000746F20616373202020202020202020201F
:102740002020202020202020202020202020202D7C
:10275000204765742074686520766F6C74616765C6
:1027600020616E642063757272656E74206F6620DE
:102770007468652073656E736F720D0A70726F7482
:102780006F20616373207065656B203C6164723EED
:1027900020202020202020202020202020202D202C
:1027A00052656164732033326269742076616C759E
:1027B000652061742061646472657373203C616498
:1027C000723E0D0A70726F746F2061637320706FB8
:1027D0006B65203C6164723E203C76616C3E20203B
:1027E0002020202020202D205772697465732074CA
:1027F00068652033322D6269742076616C756520BE
:1028000061742061646472657373203C6164723E1C
:102810000D0A003F0068656C700050726F746F7431
:102820007970656E2D506C6174696E652065726695
:102830006F6C67726569636820696E697469616C41
:10284000697369657274210050726F746F74797066
:10285000656E2D506C6174696E65206572666F6C73
:1028600067726569636820696E697469616C697310
:10287000696572742100426F6172642D41647265F2
:102880007373653A2030782530325800426F617298
:10289000642D416472657373653A20307825303257
:1028A0005800496E697469616C6973696572652065
:1028B0006469652050726F746F747970656E2D5005
:1028C0006C6174696E652E2E2E00496E69746961A3
:1028D0006C697369657265206469652050726F74F4
:1028E0006F747970656E2D506C6174696E652E2EF3
:1028F0002E000D0A00B80BD007E803F401FA007DA2
:1029000000436F6E74726F6C20616E64206D6F6E29
:1029100069746F72207468652070726F746F747957
:10292000706520636172640070726F746F00B80B21
:102930000000D0070000E8030000F4010000FA00E6
:1029400000007D000000416E616C6F672D44696777
:102950006974616C2D57616E646C65722065726676
:102960006F6C67726569636820696E697469616C10
:102970006973696572742100416E616C6F672D44E3
:1029800069676974616C2D57616E646C657220654E
:1029900072666F6C67726569636820696E697469D5
:1029A000616C69736965727421004665686C657253
:1029B00020696E206465722046756E6B74696F6E57
:1029C0003A205F707375414443496E6974004665EF
:1029D000686C657220696E206465722046756E6B46
:1029E00074696F6E3A205F707375414443496E6934
:1029F00074004B6F6E74616B74696572656E205301
:102A000069652064696520456C656B74726F6E69D9
:102A10006B2D41627465696C756E672E004B6F6E2D
:102A200074616B74696572656E20536965206469B1
:102A30006520456C656B74726F6E696B2D416274B5
:102A400065696C756E672E004665686C65722062FC
:102A500065696D20496E697469616C697369657235
:102A6000656E2064657320414443732100466568A8
:102A70006C6572206265696D20496E697469616C6C
:102A80006973696572656E206465732041444373A0
:102A90002100496E697469616C69736965726520AA
:102AA00064656E20416E616C6F672D44696769745F
:102AB000616C2D57616E646C65722E2E2E00496E0E
:102AC000697469616C6973696572652064656E20FB
:102AD000416E616C6F672D4469676974616C2D5735
:102AE000616E646C65722E2E2E004576656E74756F
:102AF000656C6C206B65696E6520333656205370AB
:102B0000656973756E673F20426974746520FC6265
:102B100065727072FC66656E21004576656E74752F
:102B2000656C6C206B65696E65203336562053707A
:102B3000656973756E673F20426974746520FC6235
:102B400065727072FC66656E21004572726F726309
:102B50006F6465733A20256325632563256320250B
:102B600063256325632563004572726F72636F642A
:102B700065733A2025632563256325632025632536
:102B8000632563256300446961676E6F7365636FD6
:102B90006465733A202563256325632563202563D7
:102BA00025632563256300446961676E6F73656300
:102BB0006F6465733A2025632563256325632025AB
:102BC000632563256325630033365620417573679B
:102BD000616E6720696E697469616C697369657299
:102BE0007421204C65736520537461747573206182
:102BF00075733A003336562041757367616E6720EE
:102C0000696E697469616C69736965727421204CBD
:102C100065736520537461747573206175733A0030
:102C20004665686C657220696E2064657220467521
:102C30006E6B74696F6E3A205F70737533365649E8
:102C40004F696E69742031004665686C6572206951
:102C50006E206465722046756E6B74696F6E3A20E3
:102C60005F707375333656494F696E697420310051
:102C70004B6F6E74616B74696572656E2053696524
:102C80002064696520456C656B74726F6E696B2D8D
:102C900041627465696C756E672E004B6F6E74616E
:102CA0006B74696572656E2053696520646965207F
:102CB000456C656B74726F6E696B2D4162746569EA
:102CC0006C756E672E004665686C6572206265697A
:102CD0006D20496E697469616C6973696572656EAE
:102CE00020646573203336562041757367616E67C3
:102CF0007321004665686C6572206265696D2049C4
:102D00006E697469616C6973696572656E2064656A
:102D100073203336562041757367616E67732100E7
:102D2000496E697469616C6973696572652064656F
:102D30006E20333656206469676974616C656E2055
:102D400041757367616E672E2E2E00496E69746936
:102D5000616C6973696572652064656E20333656EF
:102D6000206469676974616C656E20417573676181
:102D70006E672E2E2E004665686C6572636F646503
:102D8000733A20307825303458004665686C657297
:102D9000636F6465733A2030782530345800456994
:102DA0006E67616E673A202563256325632563207E
:102DB0002563256325632563204665686C65723A43
:102DC00020307825303258200045696E67616E6783
:102DD0003A20256325632563256320256325632524
:102DE000632563204665686C65723A20307825302B
:102DF000325820003336562045696E67616E672071
:102E0000696E697469616C69736965727421204CBB
:102E100065736520537461747573206175733A002E
:102E20003336562045696E67616E6720696E697436
:102E300069616C69736965727421204C65736520E2
:102E4000537461747573206175733A004665686CDC
:102E5000657220696E206465722046756E6B7469B8
:102E60006F6E3A205F707375333656494F696E69DD
:102E7000742030004665686C657220696E20646558
:102E8000722046756E6B74696F6E3A205F70737551
:102E9000333656494F696E69742030004B6F6E743B
:102EA000616B74696572656E20536965206469653C
:102EB00020456C656B74726F6E696B2D4162746531
:102EC000696C756E672E004B6F6E74616B7469650B
:102ED00072656E205369652064696520456C656B79
:102EE00074726F6E696B2D41627465696C756E6783
:102EF0002E004665686C6572206265696D20496EBA
:102F0000697469616C6973696572656E2064657363
:102F1000203336562045696E67616E67732100461F
:102F200065686C6572206265696D20496E697469B7
:102F3000616C6973696572656E20646573203336F0
:102F4000562045696E67616E67732100496E69742A
:102F500069616C6973696572652064656E203336DA
:102F600056206469676974616C656E2045696E6797
:102F7000616E672E2E2E00496E697469616C6973EB
:102F8000696572652064656E203336562064696712
:102F90006974616C656E2045696E67616E672E2E7F
:102FA0002E00506F72746572776569746572756E04
:102FB0006720696E697469616C69736965727421EF
:102FC00000506F72746572776569746572756E67AB
:102FD00020696E697469616C697369657274210036
:102FE0004665686C657220696E206465722046755E
:102FF0006E6B74696F6E3A205F7073755F706F727D
:10300000744578496E6974004665686C657220691C
:103010006E206465722046756E6B74696F6E3A201F
:103020005F7073755F706F72744578496E69740074
:103030004B6F6E74616B74696572656E2053696560
:103040002064696520456C656B74726F6E696B2DC9
:1030500041627465696C756E672E004B6F6E7461AA
:103060006B74696572656E205369652064696520BB
:10307000456C656B74726F6E696B2D416274656926
:103080006C756E672E004665686C657220626569B6
:103090006D20496E697469616C6973696572656EEA
:1030A0002064657220506F7274657277656974650B
:1030B00072756E6721004665686C6572206265698D
:1030C0006D20496E697469616C6973696572656EBA
:1030D0002064657220506F727465727765697465DB
:1030E00072756E672100496E697469616C697369F4
:1030F0006572652064696520506F727465727765CA
:1031000069746572756E672E2E2E00496E6974693A
:10311000616C6973696572652064696520506F72BE
:10312000746572776569746572756E672E2E2E00F0
:1031300050535520492F4F204665686C6572636F68
:103140006465202575206265696D2041756672751C
:103150006620646573206C65747A74656E204265C0
:103160006665686C7321003336562046757365209A
:103170007475726E6564206F66660D0A006F666610
:10318000003336562046757365207475726E65641B
:10319000206F6E0D0A006F6E0043757272656E745B
:1031A000206D6561737572656D656E74206F662044
:1031B00074686520667573653A202575206D410D2C
:1031C0000A0046757365206F6E2F6F66663A20257C
:1031D000732020506F77657220676F6F642F626174
:1031E000643A202573202046757365204661756C0E
:1031F000743A2025730D0A00737461747573007836
:10320000667573650043757272656E74206D6561D5
:10321000737572656D656E74206F662074686520C5
:10322000667573653A202575206D410D0A004E6F55
:103230002073746174757320666F7220746869738B
:1032400020667573650D0A00737461747573006C84
:103250006675736500313256204675736520747546
:10326000726E6564206F66660D0A006F66660031D7
:1032700032562046757365207475726E6564206FD2
:103280006E0D0A006F6E0043757272656E74206D6C
:103290006561737572656D656E74206F6620746804
:1032A0006520667573653A202575206D410D0A000D
:1032B00046757365206F6E2F6F66663A2025732002
:1032C00020506F77657220676F6F642F6261643A78
:1032D0002025730D0A00737461747573006D667533
:1032E0007365004F4B0D0A0056616C75652068616F
:1032F0007320746F2066697420696E2038206269BB
:103300007473202830202D2032353529210D0A00F4
:1033100056616C75652068617320746F20666974EE
:1033200020696E20382062697473202830202D2097
:1033300032353529210D0A006F706F6B65004F4BD8
:103340000D0A0056616C75652068617320746F20EA
:1033500066697420696E2038206269747320283091
:10336000202D2032353529210D0A0056616C7565F6
:103370002068617320746F2066697420696E20383C
:103380002062697473202830202D203235352921A0
:103390000D0A0069706F6B65004F7574707574204D
:1033A0005265676973746572202830782530325809
:1033B000292076616C75653A202563256325632590
:1033C0006320256325632563256320283078253015
:1033D0003258290D0A00526567697374657220417D
:1033E0006464726573732028256929206973206ECF
:1033F0006F742076616C6964210D0A006F706565D9
:103400006B00496E707574205265676973746572DC
:103410002028307825303258292076616C75653A3D
:1034200020256325632563256320256325632563A4
:1034300025632028307825303258290D0A0052653E
:1034400067697374657220416464726573732028C0
:10345000256929206973206E6F742076616C696418
:10346000210D0A00697065656B004F757470757485
:103470002056616C75653A202563256325632563B5
:103480002025632563256325632028307825303285
:1034900058290D0A006F676574004F757470757454
:1034A0002070696E202575207475726E6564206FBA
:1034B00066660D0A004F75747075742050696E2031
:1034C00028256929206973206E6F742076616C69E4
:1034D00064202831202D203829210D0A00636C65D5
:1034E0006172004F75747075742070696E20257557
:1034F000207475726E6564206F6E0D0A004F7574CE
:103500007075742050696E20282569292069732000
:103510006E6F742076616C6964202831202D20380C
:1035200029210D0A007365740033365620537570D7
:10353000706C79206D697373696E67210D0A00499B
:103540006E70757420506F7274204661756C7420B3
:1035500052656769737465723A2025632563256334
:1035600025632025632563256325632020256325A6
:103570006325632563202563256325632563202850
:10358000307825303458290D0A004F7574707574E1
:1035900020506F727420446961676E6F7374696341
:1035A00020466565646261636B3A20256325632567
:1035B00063256320256325632563256320283078F0
:1035C00025303258290D0A004F75747075742050DB
:1035D0006F727420476C6F62616C204661756C7409
:1035E0002052656769737465723A202563256325E7
:1035F00063256320256325632563256320283078B0
:1036000025303258290D0A007374617475730049AE
:103610006E7075742056616C75653A20256325635C
:1036200025632563202563256325632563202830D2
:103630007825303258290D0A0067657400696F00DB
:103640001B5B316D1B5B346D50535520436F6E74A3
:10365000726F6C20262053746174757320436F6DF4
:103660006D616E6420417267756D656E74733A1B8F
:103670005B306D0D0A5479706520277073752720B3
:10368000616E64206F6E65206F66207468652066C9
:103690006F6C6C6F77696E6720617267756D656EB0
:1036A00074733A0D0A68656C702020202020202059
:1036B00020202020446973706C61792074686973DC
:1036C0002068656C7020616E6420696E666F207082
:1036D0006167650D0A1B5B316D33365620496E2DCF
:1036E000202F204F757470757420436F6E74726F45
:1036F0006C3A1B5B306D0D0A696F20676574202082
:103700002020202020202020202052656164206974
:103710006E20746865207374617465206F66207410
:1037200068652065696768742033365620496E7075
:103730007574730D0A696F2073746174757320203A
:10374000202020202020205265616420696E207492
:1037500068652073746174757320616E642065728E
:10376000726F7273206F662074686520333656203E
:10377000492F4F730D0A696F20736574203C6E3EAC
:10378000202020202020202053657420746865208C
:103790006E2D50696E20283120746F2038292074D6
:1037A0006F2048494748206F66207468652033368B
:1037B00056204F75747075740D0A696F20636C65BF
:1037C0006172203C6E3E202020202020436C6561E9
:1037D0007220746865206E2D50494E202831207467
:1037E0006F20382920746F204C4F57206F6620744B
:1037F000686520333656204F75747075740D0A69EC
:103800006F206F676574202020202020202020203A
:10381000205265616420696E20746865207374614C
:103820007465206F66207468652065696768742018
:10383000333656204F7574707574730D0A696F2096
:10384000697065656B203C6E3E2020202020205250
:103850006561647320696E207468652072656769AC
:103860007374657220636F6E74656E7473206F6617
:103870002074686520696E707574206174206164BD
:103880006472657373206E0D0A696F2069706F6BC7
:1038900065203C6E3E203C763E2020577269746560
:1038A00073207468652076616C7565207620696E7A
:1038B00020746865207265676973746572206E2074
:1038C0006F66207468652033365620496E707574B3
:1038D0000D0A696F206F7065656B203C6E3E20207D
:1038E00020202020526561647320696E2074686511
:1038F00020726567697374657220636F6E74656E9C
:103900007473206F6620746865206F7574707574A9
:103910002061742061646472657373206E0D0A699E
:103920006F206F706F6B65203C6E3E203C763E20B2
:1039300020577269746573207468652076616C75B0
:1039400065207620696E20746865207265676973EA
:10395000746572206E206F66207468652033365659
:10396000204F75747075740D0A1B5B316D53757043
:10397000706C79205261696C7320652D4675736592
:1039800020436F6E74726F6C3A1B5B306D0D0A6D65
:103990006675736520737461747573202020202010
:1039A000205265616420696E2074686520737461BB
:1039B000747573206F6620746865203132562070EC
:1039C0006F776572207261696C20652D467573652D
:1039D0000D0A6D66757365206F6E202020202020F3
:1039E000202020205475726E206F6E207468652030
:1039F000652D4675736520746F206F7574707574CE
:103A00002031325620746F20746865206275730D02
:103A10000A6D66757365206F666620202020202061
:103A20002020205475726E206F66662074686520B1
:103A3000652D4675736520746F206E6F74206F75E9
:103A4000747075742031325620746F20746865204C
:103A50006275730D0A6C6675736520737461747595
:103A60007320202020205265616420696E207468D4
:103A7000652063757272656E7420636F6E73756D09
:103A80007074696F20286D4129206F662074686505
:103A9000203132562D3E35562F332E33562072614B
:103AA000696C0D0A7866757365207374617475733B
:103AB00020202020205265616420696E2074686592
:103AC0002063757272656E7420636F6E73756D70AE
:103AD00074696F6E20286D4129206F6620746865B7
:103AE0002033365620706F776572207261696C0DD5
:103AF0000A7866757365206F6E20202020202020B4
:103B00002020205475726E206F6E207468652065C9
:103B10002D4675736520746F206F757470757420F1
:103B20003336560D0A7866757365206F66662020F9
:103B3000202020202020205475726E206F66662081
:103B400074686520652D4675736520746F206E6FEF
:103B500074206F7574707574203336560D0A003FEB
:103B60000068656C70005370616E6E756E67737679
:103B70006572736F7267756E67732D506C617469CF
:103B80006E65206572666F6C67726569636820692F
:103B90006E697469616C6973696572742100537030
:103BA000616E6E756E6773766572736F7267756E30
:103BB00067732D506C6174696E65206572666F6CF9
:103BC00067726569636820696E697469616C69739D
:103BD000696572742100426F6172642D416472657F
:103BE0007373653A2030782530325800426F617225
:103BF000642D416472657373653A203078253032E4
:103C00005800496E697469616C69736965726520F1
:103C1000646965205370616E6E756E677376657248
:103C2000736F7267756E67732D506C6174696E6522
:103C30002E2E2E00496E697469616C697369657214
:103C40006520646965205370616E6E756E6773766A
:103C50006572736F7267756E67732D506C617469EE
:103C60006E652E2E2E000D0A00436F6E74726F6CFF
:103C700020616E64206D6F6E69746F722074686568
:103C800020706F776572737570706C7920636172E4
:103C90006400707375004C65667420756E746F7582
:103CA00063686564206D656D6F72793A20256420C4
:103CB00042797465730D0A00582D4D6F64656D204F
:103CC00072656365697665206D6F64756C650D0A54
:103CD00055736167653A0D0A207278203C66696CFD
:103CE000656E616D652E666F6F3E2020202D204130
:103CF00063746976617465732074686520582D4D0E
:103D00006F64656D20726563656976657220616EAA
:103D100064207361766573206974206F6E20746807
:103D20006520666C61736820636869700D0A0046DF
:103D3000696C652073617665642061742025730D5C
:103D40000A0046696C652072656365697665642161
:103D50000D0A256C75204279746573207772697439
:103D600074656E20696E20256C75207365636F6EB7
:103D70006473202D20256C7520422F730D0A000DD1
:103D80000A526563656976696E67206661696C656C
:103D9000642077697468206572726F7220636F6443
:103DA000652025640D0A005374617274207468657F
:103DB00020582D4D6F64656D2053656E64657220CB
:103DC0006E6F772E2E2E0D0A004269746D61702081
:103DD000446973706C6179205465737465720D0A5F
:103DE00055736167653A0D0A20626D70203C783E1C
:103DF000203C793E203C696D6167652E626D703EA6
:103E00002020202D20446973706C6179206120424C
:103E100069746D617020496D6167652061742070FF
:103E20006F736974696F6E20782F790D0A00496D80
:103E3000616765206C6F6164656420696E20256C24
:103E400075206D696C6C697365636F6E6473210DA9
:103E50000A00436F6F7264696E6174657320746FDA
:103E60006F206C61726765210D0A0064756D7000CA
:103E7000657261736564210D0A0045726173696E34
:103E80006720636869702E2E2E006572617365006D
:103E900073686F7700496D61676520666C61736850
:103EA000656420696E20256C75206D696C6C697382
:103EB00065636F6E6473210D0A00666C6173680040
:103EC00049737375696E6720736F66747761726585
:103ED0002072657365742E2E2E0D0A0D0A00525441
:103EE000432F54696D65204D6F64756C650D0A41F3
:103EF0007267756D656E74733A0D0A20676574207C
:103F000020202020202020202020202020202020B1
:103F10002020202020202D204765742074686520F3
:103F200063757272656E742074696D65206F6620AA
:103F300074686520525443206D6F64756C650D0A7A
:103F400020736574203C48483A4D4D3A5353204401
:103F5000442E4D4D2E595959593E202D20536574EC
:103F6000207468652074696D65206F6620746865CB
:103F700020525443206D6F64756C650D0A000D0A64
:103F800000676574007365740020201B5B376D004B
:103F900020202000202530325800253038583A00A3
:103FA000556E6B6E6F776E20636F6D6D616E642101
:103FB0000D0A5479706520276661746673203F2767
:103FC00020746F2073686F772074686520636F6D4D
:103FD0006D616E64730D0A001B5B316D5B44697328
:103FE0006B20636F6E74726F6C735D1B5B306D0D55
:103FF0000A206464205B3C7064233E203C7365634C
:10400000743E5D20202020202020202D2044756D2E
:1040100070206120736563746F720D0A20647320D1
:104020003C7064233E2020202020202020202020BF
:104030002020202020202D2053686F772064697372
:104040006B207374617475730D0A20646373203C74
:104050007064233E202020202020202020202020AB
:10406000202020202D20696F63746C284354524C0B
:104070005F53594E43290D0A1B5B316D5B427566D8
:1040800066657220436F6E74726F6C735D1B5B307C
:104090006D0D0A206264203C6F66733E2020202054
:1040A000202020202020202020202020202D2044DF
:1040B000756D7020776F726B696E672062756666CA
:1040C00065720D0A206265203C6F66733E205B3C82
:1040D000646174613E5D202E2E2E202020202D2034
:1040E0004564697420776F726B696E6720627566CC
:1040F0006665720D0A206272203C7064233E203C8B
:10410000736563743E205B3C6E756D3E5D20202DB3
:104110002052656164206469736B20696E746F203E
:10412000776F726B696E67206275666665720D0ADD
:10413000206277203C7064233E203C736563743EAC
:10414000205B3C6E756D3E5D20202D20577269749A
:104150006520776F726B696E67206275666665723F
:1041600020696E746F206469736B0D0A206266208B
:104170003C76616C3E202020202020202020202022
:104180002020202020202D2046696C6C20776F7223
:104190006B696E67206275666665720D0A1B5B311E
:1041A0006D5B46696C65737973656D20636F6E74C2
:1041B000726F6C735D1B5B306D0D0A206669203C6D
:1041C0006C64233E205B3C6D6F756E743E5D2020F9
:1041D00020202020202D20466F72636520696E69A3
:1041E0007469616C697A652074686520766F6C7596
:1041F0006D652F64726976650D0A206673205B3CDD
:10420000706174683E5D2020202020202020202026
:10421000202020202D2053686F7720766F6C756DDD
:1042200065207374617475730D0A20666C205B3CA5
:10423000706174683E5D20202020202020202020F6
:10424000202020202D2053686F7720612064697220
:104250006563746F72790D0A20666F203C6D6F6420
:10426000653E203C66696C653E2020202020202091
:1042700020202D204F70656E20612066696C650DD1
:104280000A206663202020202020202020202020BB
:1042900020202020202020202020202D20436C6F53
:1042A0007365207468652066696C650D0A20666513
:1042B000205B3C6F66733E5D202020202020202064
:1042C000202020202020202D204D6F766520667034
:1042D00020696E206E6F726D616C207365656B2056
:1042E0006F722072657475726E732069740D0A2086
:1042F0006664203C6C656E3E20202020202020201B
:104300002020202020202020202D205265616420A4
:10431000616E642064756D70207468652066696CD8
:10432000650D0A206677203C76616C75653E205BE2
:1043300076616C75652E2E2E5D202020202D205755
:1043400072697465732061204279746520746865B0
:10435000207365742066696C6520706F696E746582
:10436000720D0A206670203C616464723E203C76C7
:10437000616C75653E20202020202020202D2057B4
:1043800072697465732061204279746520617420BC
:10439000746865207361696420706F736974696FF4
:1043A0006E20696E746F207468652066696C650D97
:1043B0000A20667620202020202020202020202077
:1043C00020202020202020202020202D2054727505
:1043D0006E63617465207468652066696C65206130
:1043E000742063757272656E742066700D0A2066A3
:1043F0006E203C6F675F6E616D653E203C6E657739
:104400005F6E616D653E20202D2052656E616D6589
:1044100020616E206F626A6563740D0A20667520E4
:104420003C6F626A5F6E616D653E20202020202017
:104430002020202020202D20556E6C696E6B20617D
:104440006E206F626A6563740D0A20666B203C649F
:104450006972206E616D653E202020202020202082
:10446000202020202D204372656174652061206426
:1044700069726563746F72790D0A206678203C73E7
:1044800072632066696C653E203C647374206669C3
:104490006C653E202D20436F707920612066696C29
:1044A000650D0A206662203C6E616D653E2020200D
:1044B000202020202020202020202020202D2053BC
:1044C000657420766F6C756D65206C6162656C0D2E
:1044D0000A20666F726D617420756E6C6F636B205D
:1044E00020202020202020202020202D20556E6CF0
:1044F0006F636B7320746865206162696C6974799D
:1045000020746F20666F726D6174202F2063726556
:104510006174652066696C6573797374656D0D0AE5
:1045200020666D203C6C64233E205B3C66732074E7
:104530007970653E205B3C61755F73697A653E20EA
:104540005B3C616C69676E3E205B3C6E5F666174CC
:10455000733E205B3C6E5F726F6F743E5D5D5D5DB0
:104560005D0D0A2020202020202020202020202037
:10457000202020202020202020202020202020203B
:1045800020202020202020202020202D20466F7257
:104590006D617420766F6C756D6520616E6420634B
:1045A00072656174652066696C6573797374656D95
:1045B0000D0A0054686520647269766520257520AF
:1045C00077696C6C20626520666F726D61747465CA
:1045D000642E2E2E00256C7520427974657320633D
:1045E0006F7069656420617420256C752042797450
:1045F00065732F5365632E0D0A00436F7079696EE2
:10460000672E2E2E0D0A004372656174696E672055
:10461000222573220D0A004F70656E696E67202295
:104620002573220D0A00202D2042797465203078F0
:1046300025303258207772697474656E2C2066704C
:104640007472206E6F7720617420256C7528307825
:10465000253158290D0A00202D204D656D6F727986
:104660002066756C6C3F0D0A00202D20256C75208E
:104670004279746573207772697474656E2C206654
:10468000707472206E6F7720617420256C752830ED
:10469000782558290D0A00202D204D656D6F7279FF
:1046A0002066756C6C3F0D0A0066707472203D20A8
:1046B000256C752830782558290D0A00202D206694
:1046C000707472203D20256C752830782558290D8E
:1046D0000A002C202536754B694220667265650DEF
:1046E0000A002534752046696C652873292C20251D
:1046F000366C754B694220746F74616C0D0A2534F9
:104700007520446972287329002563256325632574
:104710006325632025752F253032752F253032759E
:1047200020253032753A253032752025396C7520B8
:104730002025730D0A00256C75204B694220746F8B
:1047400074616C206469736B2073706163652E0DF6
:104750000A256C75204B694220617661696C616243
:104760006C652E0D0A000D25752066696C65732C2D
:1047700020256C752062797465732E0D0A257520CD
:10478000666F6C646572730D0A002E2E2E00566FD4
:104790006C756D6520532F4E206973202530345879
:1047A0002D253034580D0A004E6F20766F6C756DD4
:1047B00065206C6162656C0D0A00566F6C756D65E5
:1047C000206E616D652069732025730D0A004641D6
:1047D0005420737461727420286C626129203D201A
:1047E000256C750D0A444952207374617274202837
:1047F0006C62612C20636C757374657229203D2096
:10480000256C750D0A4461746120737461727420A3
:10481000286C626129203D20256C750D0A005365C6
:1048200063746F72732F464154203D20256C750DC3
:104830000A4E756D626572206F6620636C757374C5
:10484000657273203D20256C750D0A566F6C756D71
:104850006520737461727420286C626129203D2088
:10486000256C750D0A000D0A42797465732F436C2F
:104870007573746572203D20256C750D0A4E756D3B
:10488000626572206F662046415473203D20257575
:104890000D0A526F6F742044495220656E7472691C
:1048A0006573203D2025750D0A004641542074791A
:1048B0007065203D200072633D25640D0A0072631F
:1048C0003D25640D0A0072633D25640D0A004572A2
:1048D00061736520626C6F636B3A20256C75207381
:1048E0006563746F72730D0A004472697665207394
:1048F000697A653A20256C7520736563746F7273ED
:104900000D0A00536563746F723A20256C750D0AA9
:104910000072633D25640D0A005479706520276696
:1049200061746673203F2720746F2073686F77204F
:1049300074686520636F6D6D616E64730D0A000DA0
:104940000A456E747769636B656C7420766F6E20B0
:1049500050617363616C20476573656C6C2C204DEE
:104960006174746572686F726E20476F74746861E9
:104970007264204261686E202832303231290D0A7B
:10498000004275696C642D5A6569743A2031353A74
:1049900034303A3238202D204D61722020312032BF
:1049A000303232004469706C6F6D61726265697497
:1049B0002050726F746F747970202F205465737457
:1049C0006175666261750D0A005265737461727477
:1049D0007320746865206D6963726F636F6E7472A3
:1049E0006F6C6C6572007265736574004C6F616406
:1049F00020616E64206D616E6167652066696C651B
:104A0000732066726F6D2074686520646973706CC2
:104A1000617920666C617368206D656D6F727900D5
:104A2000646973706C6179004C6F616420424D5011
:104A30002066726F6D206D656D6F727920746F20C6
:104A4000646973706C617900626D700052656365B2
:104A5000697665207573696E672074686520582DC6
:104A60004D6F64656D2050726F746F636F6C007270
:104A700078004765742075736564205352414D205A
:104A80006D656D6F7279006D656D00525443202F16
:104A90002054696D6520436F6D6D616E64007274A2
:104AA00063004661744673204D6F64756C652054D5
:104AB000657374204D6F6E69746F72006661746601
:104AC0007300496E666F726D6174696F6E2061620A
:104AD0006F75742074686973206465766963650016
:104AE000696E666F000C4B00064B00004B00FA4AE3
:104AF00000F44A0065784641540046415433320080
:104B000046415431360046415431320000274C00B2
:104B10001E4C00164C000C4C00044C00FC4B00EFEB
:104B20004B00E84B00E24B00D34B00C34B00B54BAE
:104B300000A94B009B4B008E4B00864B007F4B0027
:104B40006F4B005B4B00494B00494E56414C49446A
:104B50005F504152414D4554455200544F4F5F4DB7
:104B6000414E595F4F50454E5F46494C4553004EAC
:104B70004F545F454E4F5547485F434F5245004C99
:104B80004F434B45440054494D454F5554004D4B00
:104B900046535F41424F52544544004E4F5F464991
:104BA0004C4553595354454D004E4F545F454E416B
:104BB000424C454400494E56414C49445F44524999
:104BC00056450057524954455F50524F544543543F
:104BD000454400494E56414C49445F4F424A454383
:104BE000540045584953540044454E4945440049F2
:104BF0004E56414C49445F4E414D45004E4F5F502B
:104C0000415448004E4F5F46494C45004E4F545F5B
:104C1000524541445900494E545F4552520044495F
:104C2000534B5F455252004F4B000000000044249C
:104C300020FD00F800F86B4C00644C005D4C005601
:104C40004C004F4C00484C00464154414C2100461A
:104C500045484C455200205741524E200020204FDD
:104C60004B20200020494E464F20002020202020AD
:104C700020000D0A000D0A1B5B316D677368656CBF
:104C80006C3E201B5B306D005B2530396C755D2000
:104C9000001B5B306D3A0D0A000D1B5B316D000D82
:104CA0000A001B5B306D3A0D0A2020202020000DE9
:104CB0001B5B316D001B5B306D3A0D0A000D1B5BF9
:104CC000316D000D0A001B5B306D3A0D0A2020206B
:104CD0002020000D1B5B316D000D0A1B5B316D67E1
:104CE0007368656C6C3E201B5B306D000D0A0A001A
:104CF0000D0A1B5B316D677368656C6C3E201B5B36
:104D0000306D000D0A54797065202768656C702736
:104D100020746F206C69737420616C6C2061766103
:104D2000696C61626C6520636F6D6D616E64730D9B
:104D30000A000D0A54797065202768656C70272079
:104D4000746F206C69737420616C6C20617661698A
:104D50006C61626C6520636F6D6D616E64730D0ACA
:104D600000556E6B6E6F776E20636F6D6D616E6454
:104D70003A2000074E00F54D00DA4D00BF4D00A46B
:104D80004D00854D005B1B5B316D1B5B356D1B5B07
:104D900033316D50414E4943211B5B306D1B5B30FD
:104DA0006D5D20005B1B5B316D1B5B33316D4552CC
:104DB000524F52201B5B306D1B5B306D5D20005BE2
:104DC0001B5B316D1B5B33336D205741524E201BF3
:104DD0005B306D1B5B306D5D20005B1B5B316D1BC1
:104DE0005B33326D20204F4B20201B5B306D1B5BF3
:104DF000306D5D20005B1B5B316D20494E464F20BE
:104E00001B5B306D5D20005B2020202020205D207A
:104E1000004C6973747320616C6C20617661696CFD
:104E200061626C6520636F6D6D616E6473006865AF
:104E30006C7000416C6C20646174612077726974DD
:104E400074656E206F6E746F2053504920666C61DC
:104E5000736800256C7520427974657320777269D8
:104E60007474656E005374617274696E6720746F38
:104E700020666C61736820535049206D656D6F72B8
:104E8000792E2E2E0042696C64204C616465666543
:104E9000686C657221004665686C657220626569A0
:104EA0006D20D666666E656E2064657220446174FE
:104EB00065692120436F64652025640D0A50666191
:104EC000643A202573004C6164652044617465690F
:104ED0002025730042696C64204F4B21205A65697C
:104EE0006C656E6772F67373653A20256C752042A7
:104EF000004F66667365743A20256C7520425050E9
:104F00003A202575204B6F6D7072657373696F6EF3
:104F10003A202575004272656974653A20256C75E2
:104F20002048F668653A20256C6400446174656920
:104F30006772F67373653A20256C7520422C204207
:104F4000696C646772F67373653A20256C7520424C
:104F5000004C6164652042696C642E2E2E00AAAA62
:104F6000AAAAAAAAAAAAAAAAAAAAAAAAAAAA96AAB5
:104F7000AAAAAAAAAAAA916AAAAAAAAAAAAAA41585
:104F8000AAAAAAAAAAAAA4006AAAAAAAAAAAA9011B
:104F90001AAAAAAAAAAAA90046AAAAAAAAAAAA407A
:104FA00051AAAAAAAAAAAA90146AAAAAAAAAAAA4B0
:104FB000051AAAAAAAAAAAA90146AAAAAAAAAAAA94
:104FC0004051AAAAAAAAAAAA90146AAAAAAAAAAAF4
:104FD000A4051AAAAAAAAAAAA90146AAAAAAAAAA7A
:104FE000AA4051AAAAAAAAAAAA901469AAAAAAAAD5
:104FF000AAA401146AAAAAAAAAA900441AAAAAAA37
:10500000AAAA401106AAAAAAAAAA900441AAAAAAD0
:10501000AAAAA401106AAAAAAAAAA900441AAAAA1A
:10502000AAAAAA40111AAAAAAAAAAA90041AAAAAC3
:10503000AAAAAAA4011AAAAAAAAAAAA9001AAAAA4A
:10504000AAAAAAAA406AAAAAAAAAAAAA95AAAAAA7F
:10505000AAAAAAAAAAAAAAAAAAAAAAAAAAAAAAAAB0
:10506000AAAAAAAAAAAA6AAAAAAAAAAAAAAA5AAA30
:10507000AAAAAAAAAAAA46AAAAAAAAAAAAAA41AA5D
:10508000AAAAAAAAAAAA406AAAAAAAAAAAAA401A24
:10509000AAAAAAAAAAAA4006AAAAAAAAAAAA400191
:1050A000AAAAAAAAAAAA40006AAAAAAAAAAA4000C8
:1050B0001AAAAAAAAAAA400006AAAAAAAAAA4000AC
:1050C00001AAAAAAAAAA4000006AAAAAAAAA4000FB
:1050D000001AAAAAAAAA40000006AAAAAAAA4000E0
:1050E0000001AAAAAAAA400000006AAAAAAA40002F
:1050F00015555AAAAAAA40101AAAAAAAAAAA40648E
:1051000006AAAAAAAAAA41A406AAAAAAAAAA46A91B
:1051100001AAAAAAAAAA5AA901AAAAAAAAAA6AAAD2
:10512000406AAAAAAAAAAAAA406AAAAAAAAAAAAA33
:10513000901AAAAAAAAAAAAA901AAAAAAAAAAAAA23
:10514000A406AAAAAAAAAAAAA406AAAAAAAAAAAA13
:10515000A95AAAAAAAAAAAAAAAAAAAAAAAAAAAAA00
:10516000AAAAAAAAAAAAAAAAAAAAAAAAAAAAAAAA9F
:10517000AAAAAAAAAAAAAAAAAA9555AAAAAAAAAAF9
:10518000A940005AAAAAAAAA94000005AAAAAAAAF3
:10519000400000006AAAAAA9001555001AAAAAA4EC
:1051A000006AAA5006AAAAA4006AAAA406AAAA90FB
:1051B000001AAAA901AAAA901006AAA901AAAA409F
:1051C0006401AAAA406AAA4069006AAA406AAA4081
:1051D0006A401AAA406AAA406A9006AA406AAA408F
:1051E0006AA401AA406AAA406AA9006A406AAA4061
:1051F0006AAA401A406AAA901AAA900501AAAA901F
:105200001AAAA40001AAAAA406AAA90006AAAAA4E6
:10521000016AAA4006AAAAA9001555001AAAAAAAB4
:10522000400000006AAAAAAA94000005AAAAAAAA95
:10523000A940005AAAAAAAAAAA9555AAAAAAAAAA9D
:10524000AAAAAAAAAAAAAAAAAAAAAAAAAAAAAAAABE
:10525000AAAAAAAAAAAAAAAAAAAAAAAAAAAAAAAAAE
:10526000AAAAAAAAAAAAAAAAAAAAAAAAAAAAAAAA9E
:10527000AAAAAAAAAAAAAAAA555555556AAAAAAA22
:10528000540000056AAAAAAA555555556AAAAAAAA1
:1052900094000005AAAAAAAA94000005AAAAAAAA8C
:1052A00094444445AAAAAAAA94111105AAAAAAAA92
:1052B00095044415AAAAAAAAA5411056AAAAAAAA60
:1052C000A950415AAAAAAAAAAA54056AAAAAAAAA8D
:1052D000AA9405AAAAAAAAAAAA9405AAAAAAAAAAA4
:1052E000AA9445AAAAAAAAAAAA9405AAAAAAAAAA54
:1052F000AA50016AAAAAAAAAA940405AAAAAAAAA76
:10530000A5001016AAAAAAAA94000005AAAAAAAAE9
:1053100094044405AAAAAAAA94111105AAAAAAAAA1
:1053200094444445AAAAAAAA95111115AAAAAAAA00
:10533000555555556AAAAAAA540000056AAAAAAAF0
:10534000555555556AAAAAAAAAAAAAAAAAAAAAAA51
:10535000AAAAAAAAAAAAAAAAAAAAAAAAAAAA80473A
:1053600063000458020A3D000108280F503203056B
:105370000000000000000017191D14902F8923253C
:10538000D30700000002031D000000000000000021
:10539000000000193294D50207000004A21A009000
:1053A0001E00802300732800682E006800000000A3
:1053B00000000000000000000000000000000000ED
:1053C00000000000000000000000000000000000DD
:1053D00016151411100F0E0D0C090807060504010F
:1053E00000FFFFFF0000000000000000000029286F
:1053F00027262524232221201F1E1C1B19141312CB
:1054000011100F0E0D0C0A080706040200FF000021
:10541000000000000000000071010000000000001A
:10542000000000000000000000000000000000007C
:10543000000000000000000000000000000000006C
:10544000000000000000000000000000000000005C
:10545000000000000000000000000000000000004C
:10546000000000000000000000000000000000003C
:10547000000000000000000000000000000000002C
:10548000000000000000000000000000000000001C
:10549000000000000000000000000000000000000C
:1054A00000000000000000000000000000000000FC
:1054B000000000007E00C0FF03E0810770000E388E
:1054C000001C1C00388CC3318EC37186C36106007A
:1054D00060060060660066460062CE00738C813113
:1054E0001CFF38387E1C70000EE08107C0FF0300EF
:1054F0007E0000000000000000000000000000002E
:10550000000000000000000000000000000000009B
:10551000000000000000000000000000000000008B
:105520000000000000000000000000007E00C0FF3E
:1055300003E0FF07F0FF0FF8FF1FFCFF3F7C3C3E3E
:105540007E3C7E7E3C7EFEFF7FFEFF7F9EFF79BE1F
:10555000FF7D3EFF7C7C7E3EFC003FF8811FF0FF1C
:105560000FE0FF07C0FF03007E0000000000000006
:10557000000000000000000000000000000000002B
:105580000000000000000000000000F0000FFCC35D
:105590003FFCE73FFEE77FFEFF7FFFFFFFFFFFFFD0
:1055A000FFFFFFFFFFFFFFFFFFFFFFFFFFFFFFFE0C
:1055B000FF7FFEFF7FFEFF7FFCFF3FFCFF3FF8FF0A
:1055C0001FF8FF1FF0FF0FF0FF0FE0FF07C0FF0302
:1055D000C0FF0380FF0100FF00007E00003C0000D0
:1055E00018000000000000000000000000000000A3
:1055F00000000000000000000000000000000000AB
:10560000000000001000001000003800007C0000C6
:105610007E0000FE0000FF0180FF01C0FF03E0FFED
:1056200007F0FF0FF8FF1FFCFF3FFEFF7FFFFFFFAC
:10563000FEFF7FFCFF3FF8FF1FF0FF0FE0FF07C0FA
:10564000FF0380FF0300FF0100FE00007E00007CDE
:1056500000003800001800001000000000000000EA
:10566000000000000000000000000000000000003A
:105670000000000000000000000000007E0000FFAD
:105680000080FF01C0FF03C0FF03C0FF03C0FF0392
:10569000C0FF0380FF0180FF01F8FF1FFCFF3FFEFA
:1056A000FF7FFFFFFFFFFFFFFFFFFFFFFFFFFFFF8A
:1056B000FFFEDB7FFC993FF83C1F003C00003C00F4
:1056C000003C00003C00003C00007E00007E00002A
:1056D0007E0000000000000000000000000000004C
:1056E00000000000000000000000000000000000BA
:1056F000000000000800001800001C00003E000030
:105700007F0000FF0080FF01C0FF01E0FF03F0FF0A
:1057100007F8FF1FFCFF3FFCFF3FFEFF7FFFFFFF7F
:10572000FFFFFFFFFFFFFFFFFFFFFFFFFEDB7FFC31
:10573000993F783C1E003C00003C00003C00003CCF
:1057400000007E00007E00007E00000000000000DF
:105750000000000000000000000000000000000049
:105760000000000000000000000000000000000039
:105770000000000000000000000000000000000029
:105780000000000000000000000000000000000019
:105790000000000000000000000000000000000009
:1057A00000000000000000000000000000000000F9
:1057B00000000000000000000000000000000000E9
:1057C00000000000000000000000000000000000D9
:1057D00000000000000000000000000000000000C9
:1057E00000000000000000000000000000000000B9
:1057F00000000000000000000000000000000000A9
:105800000000000000000000000000000000000098
:105810000000000000000000000000000000000088
:105820000000000000000000000000000000000078
:105830000000000000000000000000000000000068
:105840000000000000000000000000000000000058
:105850000000000000000000000000000000000048
:105860000000000000000000000000000000000038
:105870000000000000000000000000000000000028
:105880000000000000000000000000000000000018
:105890000000000000000000000000000000000008
:1058A00000000000000000000000000000000000F8
:1058B00000000000000000000000000000000000E8
:1058C00000000000000000000000000000000000D8
:1058D00000000000000000000000000000000000C8
:1058E00000000000000000000000000000000000B8
:1058F00000000000000000000000000000000000A8
:105900000000000000000000000000000000000097
:105910000000000000000000000000000000000087
:105920000000000000000000000000000000000077
:105930000000000000000000000000000000000067
:1059400000000000000000000000000000180080BF
:105950003F00F03F00F83F00783E0000770080777E
:1059600000807300C0F300C0E1C0FF20F0FF00F82A
:10597000FF007CF0011EC0030E80030F80070700AC
:10598000070700070700070700070700070F800742
:105990000E80031EC0037CF001F8FF00F07F00C002
:1059A0001F000000000000000000000000000000D8
:1059B00000000000000000000000000000000000E7
:1059C000000000007F00C0FF01E0FF03F0C1077886
:1059D000000F38000E3C001E1C001C1C001C1C008C
:1059E0001C1C001C1C001C3C001E38000E78000F04
:1059F000F0C107E0FF03C0FF01007F00001C0000B2
:105A00001C00001C00E0FF03E0FF03E0FF03001C9C
:105A100000001C00001C00001C0000000000000032
:105A20000000000000000000000000000000000076
:105A30000000000000000000000000000000000066
:105A40000000000000000000000000000000000056
:105A50000000000000000000000000000000000046
:105A60000000000000000000000000000000000036
:105A70000000000000000000000000000000000026
:105A80000000000000000000000000000000000016
:105A90000000000000000000000000000000000006
:105AA00000000000000000000000000000000000F6
:105AB00000000000002000003800003E00803F0091
:105AC000E03F00FC3700FF31007F30001F3000074F
:105AD0003000033000033000033000033000033097
