S012000050494674657374454E562E737265638A
S11300000C94E30E0C94040F0C94040F0C94040F42
S11300100C94040F0C94040F0C94040F0C94040F10
S11300200C94040F0C94040F0C94040F0C94040F00
S11300300C94040F0C94040F0C94040F0C94040FF0
S11300400C94040F0C94040F0C94040F0C94040FE0
S11300500C94040F0C94040F0C94040F0C94040FD0
S11300600C94040F0C94040F0C94040F0C94040FC0
S11300700C94040F0C94040F0C94040F0C94040FB0
S11300800C94040F0C94040F0C94040F0C94040FA0
S11300900C94040F0C94040F0C94040F0C94040F90
S11300A00C94040F0C94040F0C94040F0C948E61A4
S11300B00C94040F0C94040F0C9461610C94F64896
S11300C00C94040F0C94040F0C94040F0C94040F60
S11300D00C94040F0C94040F0C94040F0C94040F50
S11300E00C94040F0C94040F0C9405610C9433616C
S11300F00C94040F0C94040F0C94040F0C94040F30
S11301000C94040F0C94040F0C94040F0C94040F1F
S11301100C94040F0C94040F0C94040F0C94040F0F
S11301200C94040F0C94040F0C94040F0C94040FFF
S11301300C94040F0C94040F0C94040F0C94040FEF
S11301400C94040F0C94040F0C94040F0C94040FDF
S11301500C94040F0C94040F0C94040F0C94040FCF
S11301600C94040F0C94040F0C94040F0C94040FBF
S11301700C94040F0C94040F0C94040F0C94040FAF
S11301800C94040F0C94040F0C94040F0C94040F9F
S11301900C94040F0C94040F0C94040F0C94040F8F
S11301A00C94040F0C94040F0C94040F0C94040F7F
S11301B00C94040F0C94040F0C94040F0C94040F6F
S11301C00C94040F0C94040F0C94040F0C94040F5F
S11301D00C94040F0C94040F0C94040F0C94040F4F
S11301E00C94040F0C94040F0C94040F0C94040F3F
S11301F00C94040F0C94040F0C94040FCF5CB15CAA
S1130200E95CBD5CC35CED5CB75CC95C3A5D415DB7
S1130210485D415D415D485D415D3A5D146FBC6C74
S1130220116DC36CE26FE26FE26FED69E26F426ED3
S1130230726B216F266E9F6CC26DE26FE26F2B6A48
S1130240E26F376E1F6E676D4F6E0C94C34A0C9449
S11302501F6E0C94C35D0C94116D0C945A4B0C944A
S1130260E15D0C94376E0C94185C0C94494B0C941F
S11302708E4B0C94493E0C9496670C94074B0C944B
S1130280C36C0C942B5C0C94F4640C94266E0C9448
S113029012640C943A5D0C942F5C0C94C74B0C9430
S11302A0676D0C94C35C0C94A34A0C942B6A0C9455
S11302B0BC5B0C94C95C0C94ED5C0C94B15C0C9428
S11302C01B490C946C5B0C949F6C0C94E95C0C942F
S11302D011660C94485D0C94CF5C0C94426E0C94A3
S11302E0FA5B0C94505D0C94BD5C0C94C26D0C9440
S11302F0E26F0C94A04A0C94216F0C94146F0C942C
S113030030640C94004C0C94B75C0C94ED690C9420
S11303104F6E0C94265D0C94415D0C94CE5D0C9450
S1130320726B0C94B85D0C94BC6C0D0A000D0A1B26
S11303305B316D677368656C6C3E201B5B306D00D0
S11303405B2530396C755D20001B5B306D3A0D0AFE
S1130350000D1B5B316D000D0A001B5B306D3A0D07
S11303600A2020202020000D1B5B316D001B5B3018
S11303706D3A0D0A000D1B5B316D000D0A001B5B0D
S1130380306D3A0D0A2020202020000D1B5B316DBA
S1130390000D0A1B5B316D677368656C6C3E201B36
S11303A05B306D000D0A0A000D0A1B5B316D67732B
S11303B068656C6C3E201B5B306D000D0A547970CF
S11303C065202768656C702720746F206C697374CE
S11303D020616C6C20617661696C61626C6520637C
S11303E06F6D6D616E64730D0A000D0A547970654A
S11303F0202768656C702720746F206C69737420E3
S1130400616C6C20617661696C61626C6520636FFC
S11304106D6D616E64730D0A00556E6B6E6F776E51
S113042020636F6D6D616E643A2000BF0400AD04FB
S1130430009204007704005C04003D04005B1B5B35
S1130440316D1B5B356D1B5B33316D50414E494340
S1130450211B5B306D1B5B306D5D20005B1B5B31D2
S11304606D1B5B33316D4552524F52211B5B306D16
S11304701B5B306D5D20005B1B5B316D1B5B33339D
S11304806D205741524E201B5B306D1B5B306D5D00
S113049020005B1B5B316D1B5B33326D20204F4BA7
S11304A020201B5B306D1B5B306D5D20005B1B5B94
S11304B0316D20494E464F201B5B306D5D20005B43
S11304C02020202020205D20004C6973747320615B
S11304D06C6C20617661696C61626C6520636F6D20
S11304E06D616E64730068656C7000000000150532
S11304F0400555A800A815AD40AD5552AA52BF57A6
S1130500EA57FFFAAAFABFFFEAFFFF42696C6420C8
S11305104F4B21205A65696C656E6772F67373657B
S11305203A20256C752042004F66667365743A2044
S1130530256C75204250503A202575204B6F6D7004
S113054072657373696F6E3A20257500427265692E
S113055074653A20256C752048F668653A20256C48
S1130560640044617465696772F67373653A2025A3
S11305706C7520422C2042696C646772F673736553
S11305803A20256C752042004C6164652042696CF8
S1130590642E2E2E00AAAAAAAAAAAAAAAAAAAAAA1B
S11305A0AAAAAAAAAA96AAAAAAAAAAAAAA916AAA14
S11305B0AAAAAAAAAAA415AAAAAAAAAAAAA4006A22
S11305C0AAAAAAAAAAA9011AAAAAAAAAAAA90046D0
S11305D0AAAAAAAAAAAA4051AAAAAAAAAAAA9014EA
S11305E06AAAAAAAAAAAA4051AAAAAAAAAAAA9018C
S11305F046AAAAAAAAAAAA4051AAAAAAAAAAAA9098
S1130600146AAAAAAAAAAAA4051AAAAAAAAAAAA958
S11306100146AAAAAAAAAAAA4051AAAAAAAAAAAA06
S1130620901469AAAAAAAAAAA401146AAAAAAAAA9C
S1130630A900441AAAAAAAAAAA401106AAAAAAAA5E
S1130640AA900441AAAAAAAAAAA401106AAAAAAAB8
S1130650AAA900441AAAAAAAAAAA40111AAAAAAA2A
S1130660AAAA90041AAAAAAAAAAAA4011AAAAAAA75
S1130670AAAAA9001AAAAAAAAAAAAA406AAAAAAABB
S1130680AAAAAA95AAAAAAAAAAAAAAAAAAAAAAAADB
S1130690AAAAAAAAAAAAAAAAAAAAAAAAAA6AAAAAF6
S11306A0AAAAAAAAAA5AAAAAAAAAAAAAAA46AAAA5A
S11306B0AAAAAAAAAA41AAAAAAAAAAAAAA406AAAA9
S11306C0AAAAAAAAAA401AAAAAAAAAAAAA4006AA8E
S11306D0AAAAAAAAAA4001AAAAAAAAAAAA40006ADD
S11306E0AAAAAAAAAA40001AAAAAAAAAAA400006C2
S11306F0AAAAAAAAAA400001AAAAAAAAAA400000D1
S11307006AAAAAAAAA4000001AAAAAAAAA40000091
S113071006AAAAAAAA40000001AAAAAAAA400000FE
S1130720006AAAAAAA400015555AAAAAAA40101AF1
S1130730AAAAAAAAAA406406AAAAAAAAAA41A4067C
S1130740AAAAAAAAAA46A901AAAAAAAAAA5AA9010D
S1130750AAAAAAAAAA6AAA406AAAAAAAAAAAAA4049
S11307606AAAAAAAAAAAAA901AAAAAAAAAAAAA90E9
S11307701AAAAAAAAAAAAAA406AAAAAAAAAAAAA415
S113078006AAAAAAAAAAAAA95AAAAAAAAAAAAAAABA
S1130790AAAAAAAAAAAAAAAAAAAAAAAAAAAAAAAAB5
S11307A0AAAAAAAAAAAAAAAAAAAAAAAAAAAAAAAAA5
S11307B09555AAAAAAAAAAA940005AAAAAAAAA947A
S11307C0000005AAAAAAAA400000006AAAAAA900D1
S11307D01555001AAAAAA4006AAA5006AAAAA40037
S11307E06AAAA406AAAA90001AAAA901AAAA901001
S11307F006AAA901AAAA406401AAAA406AAA406951
S1130800006AAA406AAA406A401AAA406AAA406AD0
S11308109006AA406AAA406AA401AA406AAA406A49
S1130820A9006A406AAA406AAA401A406AAA901AB1
S1130830AA900501AAAA901AAAA40001AAAAA40629
S1130840AAA90006AAAAA4016AAA4006AAAAA900FB
S11308501555001AAAAAAA400000006AAAAAAA94D6
S1130860000005AAAAAAAAA940005AAAAAAAAAAA42
S11308709555AAAAAAAAAAAAAAAAAAAAAAAAAAAA3E
S1130880AAAAAAAAAAAAAAAAAAAAAAAAAAAAAAAAC4
S1130890AAAAAAAAAAAAAAAAAAAAAAAAAAAAAAAAB4
S11308A0AAAAAAAAAAAAAAAAAAAAAAAAAAAAAA55F9
S11308B05555556AAAAAAA540000056AAAAAAA55B7
S11308C05555556AAAAAAA94000005AAAAAAAA94E8
S11308D0000005AAAAAAAA94444445AAAAAAAA94CA
S11308E0111105AAAAAAAA95044415AAAAAAAAA5F6
S11308F0411056AAAAAAAAA950415AAAAAAAAAAABF
S113090054056AAAAAAAAAAA9405AAAAAAAAAAAA39
S11309109405AAAAAAAAAAAA9445AAAAAAAAAAAA69
S11309209405AAAAAAAAAAAA50016AAAAAAAAAA922
S113093040405AAAAAAAAAA5001016AAAAAAAA942A
S1130940000005AAAAAAAA94044405AAAAAAAA94D9
S1130950111105AAAAAAAA94444445AAAAAAAA9526
S1130960111115AAAAAAAA555555556AAAAAAA5494
S11309700000056AAAAAAA555555556AAAAAAAAAA0
S1130980AAAAAAAAAAAAAAAAAAAAAAAAAAAAAAAAC3
S1130990AAAAAAAAAA804763000458020A3D000131
S11309A008280F503203050000000000000017194A
S11309B01D14902F892325D30700000002031D0076
S11309C000000000000000000000193294D5020766
S11309D0000004A21A00901E0080230073280068FF
S11309E02E0068000000000000000000000000006D
S11309F000000000000000000000000000000000F3
S1130A000000000000000016151411100F0E0D0C4C
S1130A100908070605040100FFFFFF0000000000AD
S1130A200000000000292827262524232221201F36
S1130A301E1C1B1914131211100F0E0D0C0A08079B
S1130A4006040200FF000000000000000000007126
S1130A500146726565204D656D6F72793A202020DC
S1130A602025356C75204B694200546F74616C20ED
S1130A7043617061636974793A2025356C75204B44
S1130A806942200046696C6573797374656D205BF7
S1130A9025735D20666F756E6420616E6420696ED7
S1130AA0697469616C697365643A00446174656969
S1130AB073797374656D206B6F6E6E7465206E69E7
S1130AC063687420696E697469616C6973696572BD
S1130AD0742077657264656E21004461746569737E
S1130AE0797374656D206B6F6E6E7465206E6963C7
S1130AF0687420696E697469616C6973696572747C
S1130B002077657264656E2100436865636B696E66
S1130B1067207468652066696C65207379737465F1
S1130B206D2E2E2E004D656D6F72792043686970AD
S1130B3020696E697469616C69736564210045722A
S1130B40726F72207768696C6520696E6974696177
S1130B506C6973696E6720746865206D656D6F726A
S1130B607920636869702100496E697469616C69F0
S1130B7073696E672074686520466C617368204DE4
S1130B80656D6F727920436869702E2E2E00546F44
S1130B90756368646973706C61792D4B6F6E7472E0
S1130BA06F6C6C657220696E697469616C697A65D1
S1130BB064004572726F72207768696C6520696E93
S1130BC0697469616C6973696E67207468652074FF
S1130BD06F75636820636F6E74726F6C6C657221DD
S1130BE000496E697469616C6973696E6720746821
S1130BF06520746F75636820636F6E74726F6C6CBC
S1130C0065722E2E2E004261636B75702D426174E5
S1130C1074657279206F662074686520525443208D
S1130C20456D7074793F00526561642054696D6547
S1130C303A20252E32643A252E32643A252E326427
S1130C4020252E32642E252E32642E252E34640067
S1130C505254432053657474696E67732026204D83
S1130C60656D6F72792075706461746564210052DA
S1130C70544320696E697469616C697A6564210002
S1130C8053657474696E67207468652031737420C9
S1130C904A616E756172792032303232206174207B
S1130CA04D69646E6967687420617320646174655A
S1130CB02100436F756C646E277420696E697469D2
S1130CC0616C69736520746865205254432100493E
S1130CD06E697469616C6973696E672074686520F4
S1130CE05265616C2D54696D652D436C6F636B2E79
S1130CF02E2E00506F72742D457870616E6465728B
S1130D0020696E697469616C697A65642100496E51
S1130D10697469616C6973696E67207468652050D1
S1130D206F72742D457870616E64657220666169B6
S1130D306C65642100496E697469616C697365202E
S1130D404F6E2D426F61726420506F72742D45781E
S1130D5070616E6465722E2E2E004D696B726F6B1E
S1130D606F6E74726F6C6C65722D506C6174696E09
S1130D7065206572666F6C67726569636820696E69
S1130D80697469616C69736965727421005069637F
S1130D907475726520504946204572726F72210045
S1130DA0496E697469616C6973696E6720746865FA
S1130DB0204D435520626F6172642E2E2E005049DF
S1130DC04620496D61676520446973706C617920C0
S1130DD05465737465720D0A55736167653A0D0A3B
S1130DE020706966203C783E203C793E203C696D49
S1130DF06167652E7069663E2020202D204469734A
S1130E00706C617920612050494620496D616765A5
S1130E1020617420706F736974696F6E20782F7904
S1130E200D0A00496D616765206C6F61646564201B
S1130E30696E20256C75206D696C6C697365636FD0
S1130E406E6473210D0A00436F6F7264696E61747E
S1130E50657320746F6F206C61726765210D0A00E1
S1130E605B5049465D20496D616765205479706522
S1130E703A202573202D20524C452D436F6D7072FE
S1130E80657373696F6E3A202573005B5049465D44
S1130E9020496E76616C696420696D6167652074B0
S1130EA079706521202575005B5049465D204669AF
S1130EB06C652053697A653A20256C7520427974F3
S1130EC06573202D20496D6167652073697A653AE1
S1130ED020256C75204279746573005B5049465D2A
S1130EE020496D61676520506978656C733A2025E7
S1130EF07577207820257568005B5049465D20434E
S1130F006C6F73696E672066696C652E2E2E2025C2
S1130F10732120436F6465202575005B5049465D4D
S1130F20204F70656E696E6720496D616765202783
S1130F302573272E2E2E2025732120436F646520D0
S1130F4025750050726F746F747970652066756EC4
S1130F506374696F6E20746F20646973706C617957
S1130F602050494620496D616765730070696600C9
S1130F7020201B5B376D00202020002025303258B4
S1130F8000253038583A00556E6B6E6F776E2063CB
S1130F906F6D6D616E64210D0A547970652027664A
S1130FA061746673203F2720746F2073686F772005
S1130FB074686520636F6D6D616E64730D0A001B48
S1130FC05B316D5B4469736B20636F6E74726F6C1D
S1130FD0735D1B5B306D0D0A206464205B3C7064A0
S1130FE0233E203C736563743E5D20202020202036
S1130FF020202D2044756D70206120736563746F0B
S1131000720D0A206473203C7064233E202020204B
S1131010202020202020202020202020202D20538C
S1131020686F77206469736B207374617475730DD2
S11310300A20646373203C7064233E202020202017
S113104020202020202020202020202D20696F63B4
S1131050746C284354524C5F53594E43290D0A1B58
S11310605B316D5B42756666657220436F6E7472A8
S11310706F6C735D1B5B306D0D0A206264203C6FE6
S113108066733E20202020202020202020202020A5
S1131090202020202D2044756D7020776F726B699D
S11310A06E67206275666665720D0A206265203C73
S11310B06F66733E205B3C646174613E5D202E2E3E
S11310C02E202020202D204564697420776F726BB8
S11310D0696E67206275666665720D0A2062722009
S11310E03C7064233E203C736563743E205B3C6E1D
S11310F0756D3E5D20202D20526561642064697306
S11311006B20696E746F20776F726B696E672062F3
S113111075666665720D0A206277203C7064233E12
S1131120203C736563743E205B3C6E756D3E5D20B0
S1131130202D20577269746520776F726B696E6712
S11311402062756666657220696E746F20646973C7
S11311506B0D0A206266203C76616C3E20202020C4
S1131160202020202020202020202020202D204648
S1131170696C6C20776F726B696E67206275666646
S113118065720D0A1B5B316D5B46696C657379731F
S1131190656D20636F6E74726F6C735D1B5B306D75
S11311A00D0A206669203C6C64233E205B3C6D6F15
S11311B0756E743E5D202020202020202D20466F57
S11311C072636520696E697469616C697A652074FB
S11311D0686520766F6C756D652F64726976650D30
S11311E00A206673205B3C706174683E5D20202099
S11311F020202020202020202020202D2053686F14
S11312007720766F6C756D65207374617475730DDA
S11312100A20666C205B3C706174683E5D2020206F
S113122020202020202020202020202D2053686FE3
S1131230772061206469726563746F72790D0A2086
S1131240666F203C6D6F64653E203C66696C653E4C
S11312502020202020202020202D204F70656E206B
S1131260612066696C650D0A2066632020202020B9
S1131270202020202020202020202020202020206A
S113128020202D20436C6F73652074686520666987
S11312906C650D0A206665205B3C6F66733E5D20BD
S11312A020202020202020202020202020202D202D
S11312B04D6F766520667020696E206E6F726D6169
S11312C06C207365656B206F722072657475726E25
S11312D0732069740D0A206664203C6C656E3E20A0
S11312E020202020202020202020202020202020FA
S11312F02D205265616420616E642064756D7020D8
S11313007468652066696C650D0A206677203C76F2
S1131310616C75653E205B76616C75652E2E2E5D65
S1131320202020202D20577269746573206120428B
S113133079746520746865207365742066696C65CA
S113134020706F696E7465720D0A206670203C61AE
S11313506464723E203C76616C75653E20202020DA
S1131360202020202D20577269746573206120424B
S113137079746520617420746865207361696420E0
S1131380706F736974696F6E20696E746F2074680E
S1131390652066696C650D0A206676202020202071
S11313A02020202020202020202020202020202039
S11313B020202D205472756E6361746520746865F5
S11313C02066696C652061742063757272656E7441
S11313D02066700D0A20666E203C6F675F6E616D3B
S11313E0653E203C6E65775F6E616D653E20202D05
S11313F02052656E616D6520616E206F626A65635F
S1131400740D0A206675203C6F626A5F6E616D65BB
S11314103E2020202020202020202020202D205568
S11314206E6C696E6B20616E206F626A6563740D09
S11314300A20666B203C646972206E616D653E20F3
S113144020202020202020202020202D20437265D1
S11314506174652061206469726563746F72790DCB
S11314600A206678203C7372632066696C653E20AE
S11314703C6473742066696C653E202D20436F7054
S11314807920612066696C650D0A206662203C6ED5
S1131490616D653E20202020202020202020202057
S11314A0202020202D2053657420766F6C756D6587
S11314B0206C6162656C0D0A20666F726D61742028
S11314C0756E6C6F636B202020202020202020204C
S11314D020202D20556E6C6F636B7320746865201B
S11314E06162696C69747920746F20666F726D61D2
S11314F074202F206372656174652066696C65735E
S1131500797374656D0D0A20666D203C6C64233E0E
S1131510205B3C667320747970653E205B3C61758A
S11315205F73697A653E205B3C616C69676E3E203F
S11315305B3C6E5F666174733E205B3C6E5F726FF2
S11315406F743E5D5D5D5D5D0D0A202020202020CE
S11315502020202020202020202020202020202087
S11315602020202020202020202020202020202077
S113157020202D20466F726D617420766F6C756D1E
S11315806520616E64206372656174652066696CB0
S11315906573797374656D0D0A005468652064720F
S11315A06976652025752077696C6C2062652066F4
S11315B06F726D61747465642E2E2E00256C752017
S11315C0427974657320636F706965642061742067
S11315D0256C752042797465732F5365632E0D0A4B
S11315E000436F7079696E672E2E2E0D0A004372C8
S11315F0656174696E6720222573220D0A004F709D
S1131600656E696E6720222573220D0A00202D2045
S113161042797465203078253032582077726974A5
S113162074656E2C2066707472206E6F77206174FE
S113163020256C75283078253158290D0A00202D75
S1131640204D656D6F72792066756C6C3F0D0A00D4
S1131650202D20256C75204279746573207772697A
S11316607474656E2C2066707472206E6F772061BE
S11316707420256C752830782558290D0A00202DF2
S1131680204D656D6F72792066756C6C3F0D0A0094
S113169066707472203D20256C7528307825582991
S11316A00D0A00202D2066707472203D20256C7573
S11316B02830782558290D0A002C202536754B69C9
S11316C04220667265650D0A002534752046696CF2
S11316D0652873292C2025366C754B694220746F5C
S11316E074616C0D0A2534752044697228732900CD
S11316F0256325632563256325632025752F253000
S113170032752F2530327520253032753A25303226
S1131710752025396C75202025730D0A00256C75FC
S1131720204B694220746F74616C206469736B2070
S113173073706163652E0D0A256C75204B69422018
S1131740617661696C61626C652E0D0A000D257508
S11317502066696C65732C20256C7520627974652C
S1131760732E0D0A257520666F6C646572730D0AFD
S1131770002E2E2E00566F6C756D6520532F4E2053
S1131780697320253034582D253034580D0A004E05
S11317906F20766F6C756D65206C6162656C0D0AE7
S11317A000566F6C756D65206E616D6520697320E0
S11317B025730D0A00464154207374617274202805
S11317C06C626129203D20256C750D0A4449522024
S11317D0737461727420286C62612C20636C75735D
S11317E074657229203D20256C750D0A446174616D
S11317F020737461727420286C626129203D202555
S11318006C750D0A00536563746F72732F464154EF
S1131810203D20256C750D0A4E756D626572206F32
S11318206620636C757374657273203D20256C7536
S11318300D0A566F6C756D6520737461727420287F
S11318406C626129203D20256C750D0A000D0A4249
S1131850797465732F436C7573746572203D20250C
S11318606C750D0A4E756D626572206F6620464177
S11318705473203D2025750D0A526F6F742044491E
S11318805220656E7472696573203D2025750D0ABA
S1131890004641542074797065203D200072633DF8
S11318A025640D0A0072633D25640D0A0072633DD0
S11318B025640D0A00457261736520626C6F636B69
S11318C03A20256C7520736563746F72730D0A007A
S11318D044726976652073697A653A20256C7520AF
S11318E0736563746F72730D0A00536563746F726A
S11318F03A20256C750D0A0072633D25640D0A00BB
S11319005479706520276661746673203F272074BC
S11319106F2073686F772074686520636F6D6D61E5
S11319206E64730D0A005254432F54696D65204D43
S11319306F64756C650D0A417267756D656E7473BD
S11319403A0D0A20676574202020202020202020C2
S113195020202020202020202020202020202D2076
S1131960476574207468652063757272656E7420AF
S113197074696D65206F6620746865205254432035
S11319806D6F64756C650D0A20736574203C48485E
S11319903A4D4D3A53532044442E4D4D2E595959E6
S11319A0593E202D20536574207468652074696D38
S11319B065206F662074686520525443206D6F64FF
S11319C0756C650D0A000D0A006765740073657413
S11319D000582D4D6F64656D207265636569766589
S11319E0206D6F64756C650D0A55736167653A0DFA
S11319F00A207278203C66696C656E616D652E669E
S1131A006F6F3E2020202D204163746976617465D8
S1131A10732074686520582D4D6F64656D20726560
S1131A2063656976657220616E642073617665739F
S1131A30206974206F6E2074686520666C61736819
S1131A4020636869700D0A0046696C6520736176CD
S1131A5065642061742025730D0A0046696C652055
S1131A607265636569766564210D0A256C7520428B
S1131A7079746573207772697474656E20696E2059
S1131A80256C75207365636F6E6473202D20256C3F
S1131A907520422F730D0A000D0A5265636569763D
S1131AA0696E67206661696C656420776974682073
S1131AB06572726F7220636F64652025640D0A007D
S1131AC053746172742074686520582D4D6F646579
S1131AD06D2053656E646572206E6F772E2E2E0D09
S1131AE00A004269746D617020446973706C617995
S1131AF0205465737465720D0A55736167653A0DF8
S1131B000A20626D70203C783E203C793E203C697E
S1131B106D6167652E626D703E2020202D20446922
S1131B2073706C61792061204269746D6170204921
S1131B306D61676520617420706F736974696F6E7D
S1131B4020782F790D0A00496D616765206C6F61FB
S1131B5064656420696E20256C75206D696C6C6900
S1131B607365636F6E6473210D0A00436F6F726453
S1131B70696E6174657320746F6F206C6172676540
S1131B80210D0A0049737375696E6720736F66745B
S1131B90776172652072657365742E2E2E0D0A0DA1
S1131BA00A00526573746172747320746865206DE1
S1131BB06963726F636F6E74726F6C6C65720072BE
S1131BC065736574004C6F616420424D50206672E9
S1131BD06F6D206D656D6F727920746F2064697309
S1131BE0706C617900626D70005265636569766539
S1131BF0207573696E672074686520582D4D6F6475
S1131C00656D2050726F746F636F6C007278005250
S1131C105443202F2054696D6520436F6D6D616EB0
S1131C206400727463004661744673204D6F64757A
S1131C306C652054657374204D6F6E69746F720007
S1131C406661746673006D1C00671C00611C005B98
S1131C501C00551C006578464154004641543332FB
S1131C600046415431360046415431320000881D4B
S1131C70007F1D00771D006D1D00651D005D1D00AA
S1131C80501D00491D00431D00341D00241D001675
S1131C901D000A1D00FC1C00EF1C00E71C00E01CDA
S1131CA000D01C00BC1C00AA1C00494E56414C49E3
S1131CB0445F504152414D4554455200544F4F5F8B
S1131CC04D414E595F4F50454E5F46494C45530078
S1131CD04E4F545F454E4F5547485F434F52450062
S1131CE04C4F434B45440054494D454F5554004DCA
S1131CF04B46535F41424F52544544004E4F5F465A
S1131D00494C4553595354454D004E4F545F454E2D
S1131D1041424C454400494E56414C49445F44526B
S1131D204956450057524954455F50524F54454314
S1131D3054454400494E56414C49445F4F424A453C
S1131D4043540045584953540044454E49454400C2
S1131D50494E56414C49445F4E414D45004E4F5FFC
S1131D6050415448004E4F5F46494C45004E4F5435
S1131D705F524541445900494E545F455252004414
S1131D8049534B5F455252004F4B0053756E4D6F94
S1131D906E54756557656454687546726953617409
S1131DA0004A616E4665624D61724170724D61799F
S1131DB04A756E4A756C4175675365704F63744E0E
S1131DC06F764465630011241FBECFEFCDBFDFE9FA
S1131DD0DEBF00E00CBF11E2A0E0B0E2E8EBFCEEF5
S1131DE000E00BBF02C007900D92A23CB107D9F7E7
S1131DF026E4A2ECB1E201C01D92A030B207E1F7E3
S1131E000E94E6630C945A760C940000FA016BBFAE
S1131E10DC018D910790801911F40020D1F7990B02
S1131E200895FA016BBFDC012150304030F08D91F0
S1131E300790801919F40020B9F7881B990B0895AD
S1131E40FA016BBFDC012150304048F007900D923D
S1131E500020C9F701C01D9221503040E0F70895D9
S1131E608BBFFB010790415050400110D8F760959B
S1131E7070956E0F7F1FCB010895CF93DF93CDB77D
S1131E80DEB72C97CDBFDEBFBE016F5F7F4F0E94D0
S1131E90620F6091002070910120CE0101960E9492
S1131EA0621080910020909101202C96CDBFDEBF5E
S1131EB0DF91CF91089562ED75E40E94620F82ED87
S1131EC095E40895CF92DF92EF92FF920F931F93C0
S1131ED0CF93DF9300D01F92CDB7DEB76C017B01A7
S1131EE0E091FE45F091FF45309729F06EED75E4E1
S1131EF019958C0102C00FEF1FEFF601408151814B
S1131F00628173818091DE459091DF45A091E04527
S1131F10B091E145840F951FA61FB71F1016110637
S1131F204CF4A801012E000C660B770B840F951F4F
S1131F30A61FB71F89839A83AB83BC83B701CE01E5
S1131F4001960E94E510F701028713872496CDBFFE
S1131F50DEBFDF91CF911F910F91FF90EF90DF9043
S1131F60CF900895CF92DF92EF92FF920F931F9339
S1131F70CF93DF9300D01F92CDB7DEB78C010E94C0
S1131F80BB1169837A838B839C83F8018285938553
S1131F9097FF0EC0E091FE45F091FF45309741F068
S1131FA06EED75E4CE0101961995F8018287938749
S1131FB0F801828593851816190694F4092E000CED
S1131FC0AA0BBB0B49815A816B817C816A017B011D
S1131FD0C81AD90AEA0AFB0AC982DA82EB82FC82AD
S1131FE089819A81AB81BC814091DE455091DF4566
S1131FF06091E0457091E145841B950BA60BB70BEE
S113200089839A83AB83BC83B801CE0101960E9475
S1132010620F69817A818B819C812496CDBFDEBF5A
S1132020DF91CF911F910F91FF90EF90DF90CF90B0
S113203008958093FE459093FF4508950FB6F89454
S11320406093CE457093CF458093D0459093D1450E
S11320500FBE08956093DE457093DF458093E0459D
S11320609093E1450895FC010FB6F8946091CE4534
S11320707091CF458091D0459091D1450FBE309756
S113208021F0608371838283938308958F938FB744
S11320908F93F8948091CE458F5F8093CE45809145
S11320A0CF458F4F8093CF458091D0458F4F8093FC
S11320B0D0458091D1458F4F8093D1458F918FBF6B
S11320C08F910895CF92DF92EF92FF920F931F9317
S11320D0CF93DF938C01EB01FC018481B82FBB0FFC
S11320E0B80F8581782F770F780F9E0140E08B2FF2
S11320F0840F90E0A0E08557924EAF4FFC015A2F19
S11321000E945070F90161939F01872F840F90E022
S1132110A0E08F55924EAF4FFC015A2F0E94507091
S1132120F90163834F5F433011F780E28F838B8320
S1132130BE01685F7F4FF801838140E2082E000CE6
S1132140990B0E947412BE01655F7F4FF801828172
S11321504AE3082E000C990B0E947412BE01625FC0
S11321607F4FF80181814AE3082E000C990B0E94ED
S11321707412BE016F5E7F4FF801808140E2082E29
S1132180000C990B0E947412F8018681978164E611
S113219070E08459984F0E9407706B017C01BE0166
S11321A06C5E7F4F40E2C6010E947412BE016A5EFB
S11321B07F4F40E0C701DF91CF911F910F91FF90B6
S11321C0EF90DF90CF900C947412CF92DF92EF9245
S11321D0FF920F931F93CF93DF93CDB7DEB728976A
S11321E0CDBFDEBF8B01FC0160817181828193814F
S11321F020E831E541E050E00E941B7069017A015A
S11322002CE330E040E050E00E94347629833A83A6
S11322104B835C8389819A81AB81BC81F8016083A3
S11322206CE370E00E940770DC01CB01F801A1832C
S11322308283C601069667E070E00E946270848320
S11322402DEA3EE840E050E0C701B6010E94347632
S113225029833A836D837E838F83988789819A81CA
S113226024E6289F6001299FD00C11246D817E8172
S11322708F81988525EB35E040E050E00E9434766C
S113228029833A836D837E83E980FA80EE0CFF1CF8
S1132290EE0CFF1CEC0CFD1C8D819E81F5E6EF1607
S11322A0F10410F0019604C024E6E216F10419F0DA
S11322B021E030E002C020E030E0A90144595E4F43
S11322C04817590768F46DE671E0821B930B0E946E
S11322D00770DC01CB01E80EF91ECD0120E030E0EF
S11322E044E6E40EF11CF801E682F78280879187C8
S11322F0255C3F4F8217930748F46FE170E00E941A
S11323000770DC01CB01F801858322C069E970E024
S1132310821B930B0E940770DC01CB01F82EFF0C8B
S1132320FF0CF80E6DE370E0CD010E940770DC0134
S1132330CB01E82EEE0C6FE170E0CD010E94077036
S1132340DC01CB0122E0280FF20EFE0CF801F5822D
S1132350A383F8011286138683818F5F8383289673
S1132360CDBFDEBFDF91CF911F910F91FF90EF9012
S1132370DF90CF9008958F929F92AF92BF92CF92A9
S1132380DF92EF92FF920F931F93CF93DF93EC01B1
S1132390EE81FF818F0104561109B9F0CF018556F2
S11323A091096C0197FF03C023E0C20ED11CD594A0
S11323B0C794D594C7946CE97FEF0E940770C60E4A
S11323C0D71E8FEFC81AD80A02C0C12CD12C2DE613
S11323D031E0D8010E9453760D2C000CEE08FF0862
S11323E0C60ED71EE81EF91E8B81082E000C990B11
S11323F08C01015011092D8122302CF4222379F112
S1132400015E1F4F2CC0CF018459984F0E94861241
S1132410282F30E0255C3F4F200F311F8D81082E7F
S1132420000C990B02978530910514F027563F4F05
S113243065E070E00E940770AC0197FF02C04F5F37
S11324405F4F559547959DE3949F8001959F100D8F
S11324501124020F131F80FF02C0015E1F4FC80129
S1132460110FAA0BBB0B9C01AD012C0D3D1D4E1D84
S11324705F1D60E871E581E090E00E94F76F4B0119
S11324805C01AA810A2E000CBB0B20E13EE00E94F5
S113249053766B017C01A9810A2E000CBB0B2CE343
S11324A030E00E945376C60ED71EE81EF91E6881DE
S11324B0862F660F990BAA0BBB0B8C0D9D1DAE1DB1
S11324C0BF1DBC01CD01680D791D8A1D9B1DDF91C7
S11324D0CF911F910F91FF90EF90DF90CF90BF901D
S11324E0AF909F908F9008951F93CF93DF93EB014C
S11324F0142F6AE070E00E940770605D6883805D5D
S113250089831A83DF91CF911F9108959C012370D1
S11325103327232B59F464E670E00E940770892B5B
S113252039F46370772781E0672B19F080E0089510
S113253081E00895FC01218130E0322F222780813F
S1132540A901482BCA010895FC016381862F90E0FC
S1132550A0E0B0E0BA2FA92F982F88272281822BE0
S1132560BA2FA92F982F88272181822BBA2FA92F20
S1132570982F88272081BC01CD01622B0895FC018E
S1132580608371830895FC01408351836283738364
S11325900895DC01FB014115510549F080818C93BC
S11325A0415051091196319641155105B9F70895D5
S11325B0FC01608341505109319641155105C9F719
S11325C00895CF93DF93DC01FB01ED0121968C91FB
S11325D090E0BF016F5F7F4F2081821B91094150C2
S11325E0510921F0DE01FB01009779F3DF91CF91CE
S11325F00895FC0101C031968081882329F0282F99
S113260030E026173707B9F790E0089580E090E0AE
S1132610089580E090E00895CF92DF92EF92FF92C8
S1132620FC019A01AB012250310941095109C388C7
S1132630D488E588F68882E0C81AD108E108F10850
S11326402C153D054E055F0568F4C7A0D0A4E1A490
S1132650F2A4A185B2850E9445706C0D7D1D8E1D6E
S11326609F1D03C060E070E0CB01FF90EF90DF900E
S1132670CF900895CF92DF92EF92FF920F931F9322
S1132680CF93DF938C01EB01CB014A960E949A12FF
S11326906C01E12CF12CF8018081833069F4CE01C6
S11326A044960E949A12A0E0B0E0DC0199278827A2
S11326B0C82AD92AEA2AFB2AC701B601DF91CF9199
S11326C01F910F91FF90EF90DF90CF900895CF92DC
S11326D0DF92EF92FF920F931F93CF93DF938C01BE
S11326E0EB0169017A01B901CE014A960E94BF1239
S11326F0F8018081833039F4B70188279927CE0106
S113270044960E94BF12DF91CF911F910F91FF90C9
S1132710EF90DF90CF9008950F931F93CF93DF93A3
S1132720EC01FB0111868E899F89A88DB98D892BB7
S11327308A2B8B2B09F449C0E0E0F0E020E030E084
S11327401EC0AA8DBB8DA9014F5F5F4FA20FB31F9F
S11327509C91903299F0953009F495EE49305105E9
S113276039F4DB01AE0FBF1F8EE219968C933196BC
S1132770DB01AE0FBF1F19969C9331969A012B3043
S11327803105F8F28B01E60FF71F1186EA8DFB8DF8
S11327908385FB0180878A8D9B8D4C960E94A412B1
S11327A0F80160837183828393838A8D9B8D46961F
S11327B00E949A12F801868397838A8D9B8D48968E
S11327C00E949A12F80184839583DF91CF911F911F
S11327D00F9108953F924F925F926F927F928F92E2
S11327E09F92AF92BF92CF92DF92EF92FF920F939C
S11327F01F93CF93DF933C012B01FB01C080D18059
S11328005C01FCE1AF0EB11C4BE050E060E270E013
S1132810C5010E94D812E12CF12C00E010E068946C
S1132820882483F8912CE8012196F601E00FF11F2A
S1132830308080E2831508F06CC09FE2391629F0DD
S1132840ECE53E120BC001C02196F601EC0FFD1F12
S113285080818F32C9F38C35B9F35BC0FEE23F1639
S113286019F0E814F90498F08BE08816910409F43F
S113287067C09EE2391266C08E016894EE24E3F8C4
S1132880F12C0F2EFBE08F2E912CF02DCCCF33208A
S113289034F4E32DEF77F0E0ED56FF4D3080832DD7
S11328A00E940613892BF1F00E5F1F4FCC0DDD1D26
S11328B0C8818C2F0E940913892B09F445C0C401D7
S11328C00197E816F90608F041C0F501EE0DFF1D69
S11328D03082F7013196EA0DFB1D82E0E80EF11C0F
S11328E0C083A1CF632D70E088E190E20E94F912C9
S11328F0892B71F58FE9830D8A3110F490EE390E2E
S1132900F501EE0DFF1D3082F70131967F018E0136
S11329108ACFCC0DDD1DF201C083D183EF28D1F025
S1132920F301848D853E11F485E0848FF0E2F31584
S113293010F084E001C080E0F30187A380E00BC0C5
S113294086E009C086E007C086E005C086E003C0D3
S113295086E001C086E0DF91CF911F910F91FF9037
S1132960EF90DF90CF90BF90AF909F908F907F902B
S11329706F905F904F903F900895CF93DF93EC0159
S1132980A881B981109731F1FD019F012F5F3F4F5D
S11329909081913218F0F9019A33B9F79A33E9F436
S11329A04C9180ED840F8A3040F412962A173B072D
S11329B039F450E04053510905C041E050E002C0F1
S11329C041E050E0141615065CF028833983842F07
S11329D0952F08C08FEF9FEF05C080E090E002C004
S11329E08FEF9FEFDF91CF9108950F931F93CF93B4
S11329F0DF93EC018B01892BA9F0E881F9813097F1
S1132A0099F08081882391F02A813B818581968188
S1132A102817390769F481810E943B3C80FF0AC072
S1132A2089E009C089E007C089E005C089E003C0E6
S1132A3089E001C080E0811103C02881398102C08E
S1132A4020E030E0F80120833183DF91CF911F91A2
S1132A500F9108958F929F92AF92BF92EF92FF923F
S1132A600F931F93CF93DF93FC0123812223D1F192
S1132A70EC017C01FFE2EF0EF11C2BA53CA54DA55A
S1132A805EA501E010E0B70189810E944B3C8111F1
S1132A902BC01B820BA51CA52DA53EA58F8D98A12F
S1132AA0A9A1BAA148015901881A990AAA0ABB0A1C
S1132AB08F89988DA98DBA8D88169906AA06BB06AA
S1132AC0A8F46A816230A1F4A9019801280F391F82
S1132AD04A1F5B1F01E010E0B70189810E944B3C53
S1132AE080E007C080E005C081E003C080E001C051
S1132AF080E0DF91CF911F910F91FF90EF90BF90F5
S1132B00AF909F908F9008958F929F92AF92BF92B3
S1132B10FF920F931F93CF93DF93EC014A015B0164
S1132B208BA59CA5ADA5BEA584179507A607B707D9
S1132B30E9F0CE010E942A15F82E811118C001E097
S1132B4010E0A5019401BE01615D7F4F89810E945F
S1132B503F3C882331F0FF24F39488248A94982CF2
S1132B6054018BA69CA6ADA6BEA601C0F12C8F2D48
S1132B70DF91CF911F910F91FF90BF90AF909F90E5
S1132B808F900895EF92FF920F931F93CF93DF934B
S1132B90EC011B828FEF9FEFDC018BA79CA7ADA7F5
S1132BA0BEA7CE010E948415811156C0CE01835D5B
S1132BB09D4F0E949A127C018FA58B3E29F0893E7D
S1132BC019F0883E09F040C025E5E2162AEAF2062B
S1132BD059F448E050E06EE370E2CE018F579F4F06
S1132BE00E94E112892BD9F1CE01CA960E949A1251
S1132BF08C0101501109082319230115110521F530
S1132C00811522E0920700F181309240E8F48CAD06
S1132C108823D1F090E09C01215031098223932331
S1132C20892B91F48FAD8150823070F4CE01805C99
S1132C309F4F0E949A12892B39F0CE018B5B9F4FD4
S1132C400E949A12892B81F485E5E8168AEAF8062F
S1132C5049F402E010E008C004E010E005C000E020
S1132C6010E002C003E010E0C801DF91CF911F9192
S1132C700F91FF90EF900895CF92DF92EF92FF9221
S1132C800F931F93CF93DF93CDB7DEB76097CDBF7C
S1132C90DEBF6C017B0140E050E0BA010E94C21526
S1132CA08230910559F108F05CC0E114F10409F493
S1132CB058C000E010E024C0C80182959295907F2E
S1132CC09827807F98278A539E4F9601215D3F4F16
S1132CD0820F931F0E94A412F801EE0FFF1FEE0F44
S1132CE0FF1F21E030E02C0F3D1FE20FF31F608334
S1132CF07183828393830F5F1F4F02C000E010E053
S1132D0004301105C8F2E114F10421F087010150E7
S1132D10110902C000E010E0F801EE0FFF1FEE0FF2
S1132D20FF1F81E090E08C0F9D1FE80FF91F408189
S1132D30518162817381411551056105710521F04D
S1132D40C6010E94C21502C083E090E0E114F104C0
S1132D5041F48230910528F00F5F1F4F04301105B4
S1132D60D8F26096CDBFDEBFDF91CF911F910F9156
S1132D70FF90EF90DF90CF9008952F923F924F9263
S1132D805F926F927F928F929F92AF92BF92CF92F7
S1132D90DF92EF92FF920F931F93CF93DF93CDB700
S1132DA0DEB72E97CDBFDEBF7B01D42EDB011D9293
S1132DB01C920E94BD148C0199230CF41CC2FC01CA
S1132DC0EE0FFF1FEA53FE4D208131812D873E8790
S1132DD02115310509F411C2D7012D933C93BD2D62
S1132DE0BE7FDB2EF9018081882361F081810E94FE
S1132DF03B3C80FD07C0DD2009F401C282FD01C215
S1132E0080E022C2AD85BE851C9211960C93802F62
S1132E100E943D3C80FDF7C1DD2011F082FDF5C12B
S1132E2060E070E08D859E850E943C16843091059B
S1132E3009F4EDC1029708F0ECC1ED85FE8543A4C9
S1132E4054A465A476A4CF01CA960E949A1281154F
S1132E50924009F0E0C18D859E858B5B9F4F0E9457
S1132E609A124C01A12CB12C81149104A104B10437
S1132E7041F48D859E858D5A9F4F0E94A4124B016B
S1132E805C01AD85BE8557968D929D92AD92BC92A4
S1132E905A97FD01A7ADA2838FEF8A0F823008F005
S1132EA0BCC1B0E0A50194010E9445706D837E838E
S1132EB08F83988704AD10E00187128701151105EF
S1132EC009F4ADC1C801019780239123892B09F02E
S1132ED0A8C1CF01805C9F4F0E949A121C01AD854E
S1132EE0BE8517968D939C9318978F709927892B7D
S1132EF009F099C1CD018E5B9F4F0E949A126C011B
S1132F00E12CF12CC114D104E104F10441F48D85C8
S1132F109E85815B9F4F0E94A4126B017C018D856D
S1132F209E85CD960E949A12009709F47EC19C0159
S1132F3040E050E029873A874B875C878D819E81EA
S1132F40AF81B885820F931FA41FB51F91013295DD
S1132F5022952F7023273F702327AC01BD01420F18
S1132F60531F611D711D49835A836B837C83C4166F
S1132F70D506E606F70608F45AC1C701B601298149
S1132F803A814B815C81621B730B840B950B980116
S1132F9040E050E00E941B70DA01C901211531059F
S1132FA04105510509F445C1263F6FEF3607460731
S1132FB06FE0560718F000E010E002C003E010E0F4
S1132FC0863F7FEF9707A105B10510F402E010E0FA
S1132FD0863F9F40A105B10510F401E010E0011502
S1132FE0110509F428C169017A01F2E0CF0ED11C60
S1132FF0E11CF11CAD85BE855396CD92DD92ED9218
S1133000FC925697FD01438E548E658E768E89858B
S11330109A85AB85BC85840D951DA61DB71D878F2C
S113302090A3A1A3B2A349815A816B817C81440DF1
S1133030551D661D771D47A350A761A772A70330CE
S1133040110511F5CF01875A9F4F0E949A12892BBF
S113305009F0F3C0232809F0F2C08D859E85855AB6
S11330609F4F0E94A412AD85BE8593966D937D9368
S11330708D939C939697CC0CDD1CEE1CFF1CCC0C02
S1133080DD1CEE1CFF1C2EC0232809F4DAC02D81A0
S11330903E814F815885820F931FA41FB51FED8574
S11330A0FE8583A394A3A5A3B6A30230110529F436
S11330B0CC0CDD1CEE1CFF1C15C0A3E0B0E0A70186
S11330C096010E944570DC01CB01B695A7959795B2
S11330D08795F1E0CF22DD24EE24FF24C80ED91E0B
S11330E0EA1EFB1E2FEFC20E21E0D21EE11CF11CD2
S11330F00B2EB9E0F694E794D794C794BA95D1F718
S1133100B02D8C149D04AE04BF0408F49CC08FEF52
S11331109FEFDC01ED85FE858787908BA18BB28BB9
S113312083879487A587B68780E884830330110555
S113313009F04FC0CF01815A9F4F0E949A12019704
S113314009F047C0B301A2014F5F5F4F6F4F7F4F3C
S11331508D859E850E94841581113BC0AD85BE85F9
S113316014961C921497CD01835D9D4F0E949A1270
S113317085359A4A71F58D859E858F960E94A41295
S1133180623572458146914421F58D859E858D5E1B
S11331909D4F0E94A4126237724781449146C9F43C
S11331A08D859E85895E9D4F0E94A412AD85BE8546
S11331B01F966D937D938D939C935297CD01855E5D
S11331C09D4F0E94A412ED85FE85638774878587D1
S11331D09687AD85BE850C938091C4219091C521BD
S11331E001968093C4219093C52115968D939C9349
S11331F0169780E029C08BE027C08CE025C080E0D2
S113320023C08AE021C083E01FC08AE01DC081E0A2
S11332101BC08DE019C08DE017C08DE015C08DE096
S113322013C08DE011C08DE00FC08DE00DC08DE0A6
S11332300BC08DE009C08DE007C08DE005C08DE0B6
S113324003C08DE001C08DE02E96CDBFDEBFDF91BF
S1133250CF911F910F91FF90EF90DF90CF90BF908F
S1133260AF909F908F907F906F905F904F903F9022
S11332702F9008952F923F924F925F926F927F9278
S11332808F929F92AF92BF92CF92DF92EF92FF9272
S11332900F931F93CF93DF9300D01F92CDB7DEB768
S11332A0423051056105710508F4F1C0FC01C38881
S11332B0D488E588F6884C155D056E057F0508F011
S11332C0E8C0280139016A017B018B839C838081DA
S11332D0823009F475C0833009F499C0813009F053
S11332E0DAC05A01B694A794A40EB51E478D50A116
S11332F061A172A1C501892F99278695480F591F8D
S1133300611D711DCF010E948415182F8111C4C045
S11333102B813C81215D3F4F29833A8315013FEF87
S1133320231A330A81E0B822E981FA81EA0DFB1DF0
S11333304601570191E089229924AA24BB24C0FEA6
S113334008C0208130E1439EC00111242F70822BDC
S113335001C0842D808381E0EB81FC818383478DD0
S113336050A161A172A1C101892F99278695480FA7
S1133370591F611D711DCF010E948415182F8111E1
S11333808BC0F1E03F22E981FA81E20DF31D892827
S11333908A288B2849F0689413F876946794579494
S11333A047941694D1F706C09081907F852D8F7035
S11333B0492E482A408281E0EB81FC8183836CC0E2
S11333C0EB81FC81478D50A161A172A1BB27AF2D78
S11333D09E2D8D2D480F591F6A1F7B1FCF010E9400
S11333E08415182F811158C02B813C81215D3F4FDA
S11333F0CC0CDD1CC6018E7F9170B201820F931F2D
S11334000E94BF1281E0EB81FC81838345C0EB8184
S1133410FC81478D50A161A172A1D701C6016894B6
S113342016F8B695A795979587951694D1F7480FF2
S1133430591F6A1F7B1FCF010E948415182F811109
S11334402BC0FFE07F228B819C818F96CC0CDD1CEE
S1133450CC0CDD1C2CEFC22221E0D222C80ED91ED6
S1133460C6010E94A412DC01CB0188279927AA2750
S1133470B07FB301A201482B592B6A2B7B2BC601C9
S11334800E94C31281E0EB81FC81838305C012E0BA
S113349003C012E001C012E0812F2496CDBFDEBF2D
S11334A0DF91CF911F910F91FF90EF90DF90CF901C
S11334B0BF90AF909F908F907F906F905F904F9050
S11334C03F902F900895AF92BF92CF92DF92EF92E8
S11334D0FF920F931F93CF93DF93FC01C081D1819F
S11334E0423051056105710508F4A6C08B899C8999
S11334F0AD89BE89481759076A077B0708F0A1C040
S11335006A017B018881823009F450C0833009F458
S11335106DC0813009F09AC08A0116950795040F91
S1133520151F4F8D58A169A17AA1C801892F992728
S11335308695480F591F611D711DCE010E94841587
S1133540811189C05801FFEFAF1ABF0A1170FE0143
S1133550E00FF11F07A510E04F8D58A169A17AA1D2
S1133560C501892F99278695480F591F611D711D23
S1133570CE010E948415811172C081E0B822CA0D67
S1133580DB1D6FA570E0762F6627602B712BC0FEC4
S113359009C0729562956F7067277F70672780E016
S11335A090E068C07F7080E090E064C04F8D58A1C7
S11335B069A17AA1BB27AF2D9E2D8D2D480F591FD0
S11335C06A1F7B1FCE010E94841581114CC0CE015D
S11335D08F96A601440F551F4E7F5170840F951F7F
S11335E00E949A12BC0180E090E044C04F8D58A123
S11335F069A17AA1D701C601689416F8B695A79572
S1133600979587951694D1F7480F591F6A1F7B1F0A
S1133610CE010E94841581112AC0AF96A601440FE1
S1133620551F440F551FCA018C7F91708C0F9D1F2D
S11336300E94A4129F701EC061E070E080E090E0E0
S113364019C061E070E080E090E014C061E070E0D7
S113365080E090E00FC06FEF7FEFCB010BC06FEF06
S11336607FEFCB0107C06FEF7FEFCB0103C06FEF9C
S11336707FEFCB01DF91CF911F910F91FF90EF90DE
S1133680DF90CF90BF90AF9008954F925F926F926A
S11336907F928F929F92AF92BF92CF92DF92EF92DE
S11336A0FF920F931F93CF93DF93EC016A017B0189
S11336B0088119814115510580E26807710508F0F8
S11336C0ACC0DB01CA018F719927AA27BB27892BBC
S11336D08A2B8B2B09F0A3C04E875F87688B798B6D
S11336E08E809F80A884B98481149104A104B104BC
S11336F041F4F8018081833020F083A094A0A5A038
S1133700B6A081149104A104B104F1F4F8018781F5
S11337109085A0E0B0E0B701A601689414F876950E
S11337206795579547951694D1F7481759076A072F
S11337307B0708F076C083A194A1A5A1B6A18E8BC6
S11337409F8BA88FB98F40C0F80141845284612CAB
S1133750712C032E39E0440C551C661C771C3A95D9
S1133760D1F7302D23C0B501A401CE010E94631A04
S11337704B015C016F3F7F4F8F4F9F4F09F453C044
S113378082E088169104A104B10408F44EC0F80143
S113379083899489A589B68988169906AA06BB06E1
S11337A008F045C0C418D508E608F708C414D504C1
S11337B0E604F704C0F6B501A401C8010E940C1385
S11337C06E8B7F8B888F998F8A8A9B8AAC8ABD8AFD
S11337D08E899F89A88DB98D0097A105B10549F1FE
S11337E0B701A601032E39E076956795579547955D
S11337F03A95D1F7302D840F951FA61FB71F8E8BD6
S11338009F8BA88FB98F015D1F4FF1E0DF22C00E9F
S1133810D11ECA8EDB8E80E00DC082E00BC082E038
S113382009C082E007C081E005C082E003C082E0F5
S113383001C082E0DF91CF911F910F91FF90EF9033
S1133840DF90CF90BF90AF909F908F907F906F90BC
S11338505F904F9008954F925F926F927F928F92F4
S11338609F92AF92BF92CF92DF92EF92FF920F930B
S11338701F93CF93DF938C012A013B01FC01C0818C
S1133880D181411551056105710599F48B849C849E
S1133890AD84BE8481149104A104B10431F18B89F7
S11338A09C89AD89BE8988169906AA06BB0610F5BF
S11338B025C00E94631A623071058105910508F4E0
S11338C0F9C06F3FFFEF7F078F079F0709F403C11C
S11338D0CB88DC88ED88FE886C157D058E059F05F8
S11338E008F4F9C05301420109C0812C912C540100
S11338F0839404C0812C912C540183946F8578891E
S113390089899A89611571058105910509F4E3C0D6
S113391084149504A604B70409F041C07501640138
S11339202FEFC21AD20AE20AF20A8B899C89AD8966
S1133930BE89C816D906EA06FB0628F0C12CD12C8C
S113394076016894C1F8B701A601C8010E94631A00
S1133950613071058105910509F4BDC06F3FEFEF3A
S11339607E078E079E0709F4B6C0672B682B692B68
S113397019F18B859C85AD85BE8582309105A105A5
S1133980B10588F04B895C896D897E898417950718
S1133990A607B70760F0C12CD12C76010DC0C12C4D
S11339A0D12C760109C0C12CD12C760105C04C0163
S11339B05D01C12CD12C7601C114D104E104F104C0
S11339C0C9F575016401FFEFCF1ADF0AEF0AFF0A98
S11339D08B899C89AD89BE89C816D906EA06FB067F
S11339E060F022E082169104A104B10408F467C0D7
S11339F0C12CD12C76016894C1F8B701A601C80185
S1133A000E94631A611571058105910599F0613071
S1133A1071058105910509F45EC06F3FEFEF7E07E4
S1133A208E079E0709F457C0C814D904EA04FB049E
S1133A3051F649C00FEF1FEF9801B701A601CE015F
S1133A400E943A1981110CC041145104610471049B
S1133A5039F097018601B301A201CE010E943A19FF
S1133A60811122C0CB86DC86ED86FE864F8558897F
S1133A7069897A898B899C89AD89BE890297A10954
S1133A80B10984179507A607B70740F041505109BB
S1133A90610971094F87588B698B7A8B8C8181609E
S1133AA08C83C701B60117C0813089F46FEF7FEFB3
S1133AB0CB0111C061E070E080E090E00CC060E0F8
S1133AC070E0CB0108C060E070E0CB0104C061E0AD
S1133AD070E080E090E0DF91CF911F910F91FF9013
S1133AE0EF90DF90CF90BF90AF909F908F907F909A
S1133AF06F905F904F9008954F925F926F927F9274
S1133B00AF92BF92CF92DF92EF92FF920F931F93E7
S1133B10CF93DF935C016A017B01B901A801FC0129
S1133B20C081D181F2E0CF16D104E104F10408F49C
S1133B3060C08B899C89AD89BE89C816D906EA06FE
S1133B40FB0608F058C0012B022B032B41F00FEFAA
S1133B501FEF9801CE010E943A19811153C0B70199
S1133B60A601C5010E94631A2B013C016115710570
S1133B708105910509F441C0613071058105910504
S1133B80F1F18FEF4816580668067806D1F100E087
S1133B9010E09801B701A601CE010E943A198111E3
S1133BA031C08F859889A989BA894B895C896D89C7
S1133BB07E896A017B01E2E0CE1AD108E108F108AE
S1133BC08C159D05AE05BF0550F40196A11DB11DD0
S1133BD08F87988BA98BBA8B8C8181608C837301BE
S1133BE06201441655066606770608F4B8CF80E0ED
S1133BF009C082E007C082E005C080E003C082E023
S1133C0001C081E0DF91CF911F910F91FF90EF9060
S1133C10DF90CF90BF90AF907F906F905F904F9068
S1133C2008950F931F93CF93DF93EC0108811981BB
S1133C304E895F89688D798DC8010E948415811130
S1133C4007C0EA8DFB8D95EE908391E0F801938394
S1133C50DF91CF911F910F9108958F929F92AF9210
S1133C60BF92CF92DF92EF92FF920F931F93CF9365
S1133C70DF937C014A015B010E942A15811138C03F
S1133C80B501A401C7010E940C134B015C01F701AB
S1133C9063A774A785A796A76701FFE2CF0ED11C7F
S1133CA040E052E060E070E0C6010E94D812C0E03B
S1133CB0D0E001C02196F70181859285C817D90704
S1133CC070F401E010E0A50194012C0F3D1F411D8B
S1133CD0511DB60181810E944B3C882359F3F701A1
S1133CE02185328581E0C217D30719F480E001C031
S1133CF081E0DF91CF911F910F91FF90EF90DF90C2
S1133D00CF90BF90AF909F908F9008954F925F9205
S1133D106F927F92AF92BF92CF92DF92EF92FF9217
S1133D200F931F93CF93DF93FC01C081D181C6848D
S1133D30D784E088F18880E2C80ED11CE11CF11C14
S1133D40C114D10480E2E806F10420F0168A178A2F
S1133D50108E118E86899789A08DB18D0097A1054B
S1133D60B10509F4B3C08B015F01B701A60151701D
S1133D7066277727452B462B472B09F098C00196D9
S1133D80A11DB11D868B978BA08FB18F428953895A
S1133D90648975894115510561057105D1F48F81D7
S1133DA09885A0E0B0E0B701A601689414F8769570
S1133DB06795579547951694D1F7481759076A0799
S1133DC07B0708F474C0168A178A108E118E84E05B
S1133DD08AC089859A8501972C01612C712CD701A1
S1133DE0C601072E79E0B695A795979587957A959C
S1133DF0D1F7702D84219521A621B721892B8A2BF7
S1133E008B2B09F054C0CF010E94631A2B013C0193
S1133E10623071058105910508F45AC08FEF481688
S1133E2058066806780609F455C08B899C89AD89C3
S1133E30BE89481659066A067B0650F1012B39F4EF
S1133E40F501168A178A108E118E84E04CC0F50194
S1133E504289538964897589C5010E942B1C2B01F1
S1133E603C016115710581059105B1F16130710560
S1133E708105910599F18FEF481658066806780672
S1133E8079F1B301A201CE010E942D1E81112AC035
S1133E90F501428A538A648A758AB301A201CE016C
S1133EA00E940C13F501668B778B808F918FF5013F
S1133EB0C686D786E08AF18AAF96F1E0DF22CC0E7F
S1133EC0DD1EF501C28ED38E80E00DC084E00BC0F0
S1133ED082E009C081E007C087E005C082E003C03A
S1133EE081E001C081E0DF91CF911F910F91FF909C
S1133EF0EF90DF90CF90BF90AF907F906F905F90E6
S1133F004F900895EF92FF921F93CF93DF93EC01AC
S1133F10E880F98040E050E0BA010E94451B81111D
S1133F202BC04E895F89688D798DC7010E948415E5
S1133F30182F81111DC0EA8DFB8D80818823C9F063
S1133F4083858F738C83838583FD0AC04BE050E0A7
S1133F50BE01645E7F4FCF010E94E112892B59F0AC
S1133F6060E070E0CE010E94861E8823D1F204C076
S1133F7003C084E001C0812FDF91CF911F91FF9096
S1133F80EF900895EF92FF920F931F93CF93DF93D7
S1133F901F921F92CDB7DEB78C0169837A83DC014F
S1133FA0ED90FC9003C03196E983FA83E981FA81AC
S1133FB080818F32C1F38C35B1F3D80116961D92EE
S1133FC01D921D921C9219978081803250F480E8D2
S1133FD097968C9340E050E0BA01C8010E94451BBB
S1133FE032C0BE016F5F7F4FC8010E94EA13811186
S1133FF02AC0C8010E94821FF80197A1882329F0D2
S1134000843009F592FF1CC01EC092FD1CC0D8016B
S1134010848184FF17C01E968D919D910D90BC9153
S1134020A02D9170B701615D7F4F680F791FC701A3
S11340300E943A13F8016683778380879187D1CFF2
S113404085E001C085E00F900F90DF91CF911F9123
S11340500F91FF90EF900895CF92DF92EF92FF922D
S11340600F931F93CF93DF93EC016B01E880F980EA
S113407040E050E0BA010E94451B811121C000E0DC
S113408010E04E895F89688D798DC7010E9484157F
S1134090811116C0EA8DFB8D9081953E11F091112E
S11340A006C00F5F1F4F0C151D0519F409C000E071
S11340B010E061E070E0CE010E94861E882309F3BF
S11340C0843009F487E0DF91CF911F910F91FF9025
S11340D0EF90DF90CF900895EF92FF921F93CF93CC
S11340E0DF93EC01E880F98061E070E00E942C200D
S11340F0182F81111EC04E895F89688D798DC70183
S11341000E948415182F811114C040E250E060E031
S113411070E08A8D9B8D0E94D812BE01645E7F4F31
S11341204BE050E08A8D9B8D0E94C91281E0F7011B
S11341308383812FDF91CF911F91FF90EF9008959A
S1134140EF92FF920F931F93CF93DF93EC017B01C8
S11341500881198184E026C0C8010E948415811158
S11341602CC0EA8DFB8D9081992331F123852F7327
S11341702C83953E81F09E3271F02F3061F030E057
S11341802F7D41E050E02830310511F040E050E04F
S11341904E155F0591F060E070E0CE010E94861E2E
S11341A081110BC04E895F89688D798D4115510548
S11341B06105710589F601C084E0882321F01E8A17
S11341C01F8A188E198EDF91CF911F910F91FF9046
S11341D0EF900895CF92DF92FF920F931F93CF93A6
S11341E0DF93EC010E942A15F82E81115BC08881AF
S11341F0833009F04DC08C81813009F049C040E022
S113420052E060E070E06E018FE2C80ED11CC6017E
S11342100E94D81265E57AEACE01835D9D4F0E9423
S1134220BF1242E552E561E671E4C6010E94C31281
S113423042E752E761E471E6CE018D5E9D4F0E9434
S1134240C3124F85588969897A89CE01895E9D4F49
S11342500E94C3124B855C856D857E85CE01855E8B
S11342609D4F0E94C3128B8D9C8DAD8DBE8D9C0184
S1134270AD012F5F3F4F4F4F5F4F2BA73CA74DA77B
S11342805EA701E010E0B60189810E944B3C1C82CC
S113429040E050E060E089810E94573C882311F09F
S11342A0FF24F3948F2DDF91CF911F910F91FF90F5
S11342B0DF90CF9008952F923F924F925F926F922A
S11342C07F928F929F92AF92BF92CF92DF92EF92A2
S11342D0FF920F931F93CF93DF93CDB7DEB7609711
S11342E0CDBFDEBF8D876E877F87488B1901AE01F6
S11342F04F5F5F4F61E00E94573C81111BC12981D0
S11343003A814B815C812D833E834F83588708E03B
S113431001C0000F0023C9F0C02ED12CE12CF12CD8
S11343206D817E818F819885A70196010E941B7003
S1134330CA01B9012FE330E040E050E00E941B7055
S1134340213034404105510520F7011101C00FEF20
S113435040E052E060E070E0C1010E94D812210107
S113436092E4491A9EEF590A0F2EFFE38F2E912CE7
S1134370A12CB12CF02D612C712CB5C0F301EE0FE2
S1134380FF1FEE0FFF1FAE85BF85EA0FFB1FC08026
S1134390D180E280F380B5E6CB16D104E104F104C8
S11343A0E8F4E4E6CE16D104E104F10499F06D8159
S11343B07E818F81988524E630E040E050E00E94C1
S11343C01B70CA01B901A70196010E94F76F6B0126
S11343D07C0104C0CD80DE80EF80F884D501C40167
S11343E08C0D9D1DAE1DBF1D2D813E814F815885B5
S11343F0281739074A075B0728F088159905AA0585
S1134400BB0540F4CD80DE80EF80F884C818D9085D
S1134410EA08FB08C114D104E104F10409F476C0EC
S1134420B501A401C20108960E94C312B701A601F6
S1134430C2010C960E94C312E889D2011496EC932F
S1134440C501B4012FE330E040E050E00E941B704E
S1134450162FCA01B901202F30E040E050E029872F
S11344603A874B875C870E941B70822F932F1F5FB4
S1134470D20111966C931197969587959695879589
S1134480807C812B12968C93129713962C938C0C10
S11344909D1CAE1CBF1CC501B4016150710981098A
S11344A091092FE330E040E050E00E941B70162F8A
S11344B0CA01B90129853A854B855C850E941B7028
S11344C0822F932F1F5FF2016583969587959695AA
S11344D08795807C812B86832783F0E14F0E511CC6
S11344E02FEF621A720A34E06316710478F48114AF
S11344F09104A104B10451F08D819E81AF81B885EE
S113450088169906AA06BB0608F438CF65E57AEA48
S1134510C10182509E4F0E94BF1201E010E020E0D2
S113452030E0A901B1018D850E944B3C882321F024
S113453081E003C081E001C080E06096CDBFDEBFB2
S1134540DF91CF911F910F91FF90EF90DF90CF906B
S1134550BF90AF909F908F907F906F905F904F909F
S11345603F902F9008951F93CF93DF9300D000D0F6
S1134570CDB7DEB78B839C836D837E83142F6983D1
S11345807A83CE0101960E94BD14992324F1FC0183
S1134590EE0FFF1FEA53FE4D0190F081E02D30979E
S11345A009F01082EB81FC81309709F01082880FAA
S11345B0991FFC01EA53FE4D8B819C81808391837A
S11345C0112359F040E0BE016D5F7F4FCE01059687
S11345D00E94BD1603C08BE001C080E02696CDBFCB
S11345E0DEBFDF91CF911F9108952F923F924F929A
S11345F05F926F927F928F929F92AF92BF92CF926F
S1134600DF92EF92FF920F931F93CF93DF93CDB777
S1134610DEB7AC97CDBFDEBF6BA77CA7009709F4CC
S11346208DC1142F6C01842F8F73E82E482FBE0187
S1134630675D7F4FCE018B960E94BD16F82E8111C7
S113464076C189A59AA589839A836BA57CA5CE0199
S113465001960E94C21FF82E811107C088A58823E5
S113466024F40F2EF6E0FF2EF02D812F8C7109F427
S11346707BC0FF2061F0E4E0FE1205C0CE0101968C
S11346800E946C20F82EFE2DF860EF2E0EC08D8156
S1134690817119F412FD06C008C00F2EF7E0FF2E39
S11346A0F02D03C06894FF24F3F8F1106FC0E3FE0B
S11346B06DC00E94B9614B015C018B8D9C8DB5016D
S11346C0A4010E960E94C3128B8D9C8DB501A4018A
S11346D046960E94C3128B8C9C8CA9A4BAA4B401E4
S11346E0C5010E943A132B013C0180E2F401838747
S11346F06B8D7C8D20E030E0A901C5010E94671319
S11347008B8D9C8D40E050E0BA014C960E94C31200
S1134710E9A5FAA581E0838341145104610471047D
S1134720A9F183A494A4A5A4B6A400E010E0980180
S1134730B301A201CE0101960E947C1DF82E8111C5
S113474025C0B501A40189A59AA50E948415F82E57
S1134750E9A5FAA581E0481A510861087108438661
S113476054866586768612C0F11010C08D8184FD52
S113477005C011FF0BC080FD05C008C06894FF246C
S1134780F2F804C00F2EF7E0FF2EF02DF11014C044
S1134790E3FE03C0EE2DE064EE2EE9A5FAA583A5A1
S11347A094A5A5A5B6A5F601848F958FA68FB78F7E
S11347B08B8D9C8D80A391A3F110B9C08B8C9C8CA4
S11347C0A9A4BAA4B401C5010E943A13F6016683F0
S11347D0778380879187C4014C960E94A412F601C6
S11347E06287738784879587A082B182F50185816A
S11347F09681F60182839383E6861786108E118E46
S1134800128E138E108A118A128A138A1601F2E20A
S11348102F0E311C40E052E060E070E0C1010E94C4
S1134820D812E5FE84C0F6014284538464847584FE
S1134830411451046104710409F479C0408A518A15
S1134840628A738AE9A5FAA581859285A0E0B0E021
S11348504C015D01072E79E0880C991CAA1CBB1C35
S11348607A95D1F7702DF60146815781608571855F
S113487019C0C6010E94631AAB01BC014230510544
S11348806105710518F46894FF24F1F84F3FFFEFB8
S11348905F076F077F0711F4FF24F3944818590842
S11348A06A087B08F11005C084149504A604B704B3
S11348B000F3F601448B558B668B778BF11037C070
S11348C0D301C2019170AA27BB27892B8A2B8B2B7A
S11348D071F189A49AA4C4010E940C136115710595
S11348E081059105F1F0032E39E07694679457948D
S11348F047943A95D1F7302D9B01AC01240D351D19
S1134900461D571DF601208F318F428F538F01E0D2
S113491010E0B101F40181810E943F3C811105C086
S113492006C06894FF24F1F802C0FF24F394FF202A
S113493039F0F601108211828F2D03C089E001C085
S11349408F2DAC96CDBFDEBFDF91CF911F910F911C
S1134950FF90EF90DF90CF90BF90AF909F908F909B
S11349607F906F905F904F903F902F9008952F927B
S11349703F924F925F926F927F928F929F92AF92EB
S1134980BF92CF92DF92EF92FF920F931F93CF9338
S1134990DF93CDB7DEB72897CDBFDEBF7C013B01E7
S11349A05A014901F901108211828D83FE82BE01F0
S11349B06F5F7F4F0E94F514811142C1F701878513
S11349C081113EC1868580FF3AC182859385A48585
S11349D0B5854089518962897389841B950BA60B1F
S11349E0B70BA50160E070E084179507A607B70729
S11349F008F01FC15C011DC1F70180899189A2895A
S1134A00B389AC01BD01517066277727452B462B2E
S1134A10472B09F0DEC0E981FA8101851285015036
S1134A201109AC01BD01032E39E0769567955795C0
S1134A3047953A95D1F7302D042315230115110517
S1134A4059F5892B8A2B8B2B31F4F70166817781F9
S1134A508085918509C0F7014489558966897789DC
S1134A608D819E810E94631A6230710581059105D2
S1134A7020F482E0F7018787E3C06F3FFFEF7F07F1
S1134A808F079F0721F481E0F7018787D9C0F701D9
S1134A90648B758B868B978BF7014489558966895E
S1134AA0778989819A818B839C830E940C13611579
S1134AB071058105910521F482E0F7018787C0C063
S1134AC01B012C01200E311E411C511C6501CD2CF3
S1134AD0DD24C694C114D10409F443C0EB81FC81E4
S1134AE021853285C8018C0D9D1D2817390718F4BE
S1134AF06901C01AD10A8601A2019101B301EB81B7
S1134B00FC8181810E943F3C882321F081E0F701F0
S1134B10878796C0F70186858823FCF4808D918D64
S1134B20A28DB38D82199309A409B509A60160E089
S1134B3070E084179507A607B70778F4F82FFF0FDE
S1134B40F8871F8240E052E0B7016E5D7F4F8F818E
S1134B509885860D971D0E94C912DC2CCC24DD0C8F
S1134B6050C0F701208D318D428D538D22163306AE
S1134B704406550649F186858823A4F401E010E033
S1134B80B7016E5D7F4FEB81FC8181810E944B3CBC
S1134B90882321F081E0F701878752C0F7018685D9
S1134BA08F778687E981FA8101E010E0A201910103
S1134BB0B7016E5D7F4F81810E943F3C882321F0C5
S1134BC081E0F70187873CC0F701208E318E428E49
S1134BD0538EF70180899189A289B389917020E06D
S1134BE032E06901C81AD90AAC14BD0408F465019D
S1134BF0B7016E5D7F4F680F791FA601C3010E9444
S1134C00C912AC18BD08F401808191818C0D9D1DE1
S1134C10808391836C0C7D1CF70180899189A28922
S1134C20B3898C0D9D1DA11DB11D808B918BA28B11
S1134C30B38BA114B10409F0DFCE80E001C087E09A
S1134C402896CDBFDEBFDF91CF911F910F91FF90CA
S1134C50EF90DF90CF90BF90AF909F908F907F9018
S1134C606F905F904F903F902F9008952F923F92B6
S1134C704F925F926F927F928F929F92AF92BF9268
S1134C80CF92DF92EF92FF920F931F93CF93DF9314
S1134C90CDB7DEB72A97CDBFDEBF7C014B016A01D9
S1134CA05901D9011D921C928F83F886BE016F5F52
S1134CB07F4F0E94F5148111B1C1F70187858111DD
S1134CC0ADC1868581FFA9C180899189A289B389F3
S1134CD0AC01BD014C0D5D1D611D711D48175907C7
S1134CE06A077B0708F08CC16C01C094D09488C11A
S1134CF0F70180899189A289B389AC01BD01517002
S1134D0066277727452B462B472B09F032C1E981CB
S1134D10FA8161847284F1E06F1A7108AC01BD01FB
S1134D20032E39E076956795579547953A95D1F7CF
S1134D30302D642275226114710409F051C0892B4D
S1134D408A2B8B2BA1F4D70116966D917D918D91B1
S1134D509C911997611571058105910589F440E0CD
S1134D6050E0BA018F8198850E942B1C09C0F7017D
S1134D7044895589668977898F8198850E942B1C7F
S1134D80611571058105910509F43EC16130710514
S1134D908105910529F482E0D7011F968C933EC1C9
S1134DA06F3FBFEF7B078B079B0721F481E0F7017F
S1134DB0878734C1D70154966D937D938D939C93CB
S1134DC0579716960D911D912D913C911997012B92
S1134DD0022B032B29F4F70166837783808791875D
S1134DE0D7011E968C911E978823ECF4E981FA81F1
S1134DF058962D913D914D915C915B9701E010E0A7
S1134E00B7016E5D7F4F81810E944B3C882321F066
S1134E1081E0F701878702C1D7011E968C911E9706
S1134E208F771E968C93F701448955896689778913
S1134E3029813A812D833E83C9010E940C13611597
S1134E4071058105910529F482E0D7011F968C93A1
S1134E50E5C01B012C01260C371C411C511CF6011A
S1134E60EF2FFF27E695EB83FC83309709F450C0BE
S1134E70AD81BE8119962D913C911A97CF01860D73
S1134E80971D2817390728F4F901E619F709EB8368
S1134E90FC830B811C81A2019101B401AD81BE810F
S1134EA011968C910E944B3C882321F081E0F701FC
S1134EB08787B4C0F701808D918DA28DB38D82193F
S1134EC09309A409B5092B813C81A90160E070E034
S1134ED084179507A607B707A8F4382F330F3A8726
S1134EE0198669857A85680D791D40E052E0C7010D
S1134EF082960E94C912D7011E968C911E978F77B5
S1134F001E968C936B807C80762C6624770C50C024
S1134F10F701808D918DA28DB38D281639064A062E
S1134F205B0601F140895189628973898285938581
S1134F30A485B585481759076A077B0798F401E0EB
S1134F4010E0A2019101B7016E5D7F4FAD81BE817A
S1134F5011968C910E943F3C882321F081E0F70157
S1134F6087875CC0D70158962D923D924D925C92F2
S1134F705B97F70180899189A289B389917020E0B8
S1134F8032E03901681A790AC614D70408F43601E4
S1134F90A301B40197012E5D3F4F820F931F0E941E
S1134FA0C912D7011E968C911E9780681E968C9309
S1134FB0C618D708F50180819181860D971D8083DD
S1134FC09183860C971CF70180899189A289B38902
S1134FD0860D971DA11DB11D808B918BA28BB38B68
S1134FE0428553856485758584179507A607B70799
S1134FF010F4DB01CA01F70182879387A487B58780
S1135000C114D10409F074CED7011E968C911E9759
S113501080641E968C9380E001C087E02A96CDBF01
S1135020DEBFDF91CF911F910F91FF90EF90DF9042
S1135030CF90BF90AF909F908F907F906F905F9034
S11350404F903F902F9008958F929F92AF92BF926E
S1135050EF92FF920F931F93CF93DF931F921F92B0
S1135060CDB7DEB77C01BE016F5F7F4F0E94F514A0
S1135070811165C0D7011E969C911E9796FF5FC053
S11350809923B4F4E981FA8158962D913D914D917B
S11350905C915B9701E010E0B7016E5D7F4F818109
S11350A00E944B3C81114AC0F70186858F77868721
S11350B00E94B9614B015C01D7015C964D915D91F1
S11350C06D917C915F9789819A810E9484158111E9
S11350D036C0F70100A111A1D8011B968C911B9732
S11350E080621B968C932681378140855185B80157
S11350F0808191810E946713F701428553856485FD
S11351007585C8014C960E94C312B501A401C8015B
S113511046960E94C31260E070E0C80142960E9465
S1135120BF1289819A8121E0DC0113962C930E949D
S1135130EA20F70196859F7B968701C081E00F9056
S11351400F90DF91CF911F910F91FF90EF90BF903F
S1135150AF909F908F9008950F931F93CF93DF93F9
S11351601F921F92CDB7DEB78C010E9424288111B3
S11351700BC0BE016F5F7F4FC8010E94F5148111FF
S113518003C0F801108211820F900F90DF91CF912C
S11351901F910F9108954F925F926F927F928F9219
S11351A09F92AF92BF92DF92EF92FF920F931F9361
S11351B0CF93DF93CDB7DEB72A97CDBFDEBF7C0197
S11351C04A015B01082F1F2DBE016F5F7F4F0E94B4
S11351D0F514D82E811103C0D7011F96DC90D1108D
S11351E0ABC1F70182859385A485B585881599059A
S11351F0AA05BB0528F4268521FD02C04C015D01EA
S1135200D70150962D913D914D915C9153972B83ED
S11352103C834D835E83F701108A118A128A138AB4
S113522081149104A104B10409F420C1E981FA8133
S113523041845284612C712C032E39E0440C551C9A
S1135240661C771C3A95D1F7302D232B242B252B64
S113525009F446C0C501B40161507109810991097D
S1135260A30192010E941B702F83388749875A87B4
S11352702B813C814D815E812150310941095109C5
S11352802B833C834D835E83CA01B901A301920140
S11352900E941B708F819885A985BA858217930710
S11352A0A407B507E8F088279927DC018419950934
S11352B0A609B7092B813C814D815E81822393230A
S11352C0A423B523F701808B918BA28BB38B881A0F
S11352D0990AAA0ABB0A448955896689778934C020
S11352E0D70116964D915D916D917C911997411559
S11352F051056105710509F540E050E0BA01C701A7
S11353000E942B1CAB01BC014130510561057105A4
S113531021F482E0F701878714C14F3FFFEF5F0755
S11353206F077F0729F481E0D7011F968C9309C189
S1135330F7014683578360877187D70154964D934D
S11353405D936D937C9357974115510561057105E4
S113535009F050C0812C912C54018FC084189508F9
S1135360A608B708F70180899189A289B389840DB9
S1135370951DA61DB71D808B918BA28BB38B868543
S113538081FF0CC0802F912F0E942B1CAB01BC010C
S1135390411551056105710539F433C0802F912FF2
S11353A00E94631AAB01BC014F3FFFEF5F076F0719
S11353B07F0729F481E0D7011F968C93C2C0423045
S11353C051056105710558F0E981FA818389948951
S11353D0A589B689481759076A077B0720F082E038
S11353E0F7018787AEC0D70154964D935D936D93B3
S11353F07C935797481459046A047B0408F4AECF8D
S113540003C0812C912C5401F70180899189A289D0
S1135410B389880D991DAA1DBB1D808B918BA28B0E
S1135420B38BD501C4019170AA27BB27892B8A2B82
S11354308B2B01F189819A810E940C1361157105EE
S11354408105910529F482E0D7011F968C9379C0D8
S1135450072E79E0B694A794979487947A95D1F718
S1135460702D860E971EA81EB91E07C0812C912C84
S1135470540103C0812C912C5401F7018089918936
S1135480A289B38942855385648575854817590770
S11354906A077B0738F482879387A487B5872685B4
S11354A0206426879170AA27BB27892B8A2B8B2BF4
S11354B009F444C0D70158962D913D914D915C91CA
S11354C05B9782169306A406B506D1F11E968C91BD
S11354D08823BCF4E981FA8101E010E0B7016E5D34
S11354E07F4F81810E944B3C882321F081E0F701AA
S11354F0878727C0D7011E968C911E978F771E969B
S11355008C93E981FA8101E010E0A5019401B701CF
S11355106E5D7F4F81810E943F3C882321F081E0B2
S1135520F70187870EC0D70158968D929D92AD9250
S1135530BC925B978D2D05C08D2D03C08D2D01C0B0
S11355408D2D2A96CDBFDEBFDF91CF911F910F9194
S1135550FF90EF90DF90BF90AF909F908F907F90DF
S11355606F905F904F900895EF92FF921F93CF93A7
S1135570DF9300D01F92CDB7DEB76B837C83009797
S113558009F447C07C0140E0BE016F5F7F4FCE014C
S113559003960E94BD16182F811134C089819A8107
S11355A0F701808391836B817C81C7010E94C21FB4
S11355B0182F811124C0F70187A1882384F08481E6
S11355C084FF0CC0628D738D89819A810E943A1385
S11355D0F701668377838087918701C015E01111F5
S11355E00EC0E981FA8185819681F70182839383D4
S11355F040E050E0BA01C7010E94451B182F143047
S113560009F415E0112339F0F70110821182812F7A
S113561003C089E001C0812F2496CDBFDEBFDF9196
S1135620CF911F91FF90EF900895CF92DF92EF9268
S1135630FF921F93CF93DF931F921F92CDB7DEB7D4
S11356407C016B01BE016F5F7F4F0E94F514182F20
S1135650811121C0C114D10441F440E050E0BA01E9
S1135660C7010E94451B182F16C060E070E0C701F7
S11356700E94A020843009F0182F11110CC0B6012B
S1135680C7010E948C1360E070E0C7010E94861E6F
S1135690843009F0182F812F0F900F90DF91CF9154
S11356A01F91FF90EF90DF90CF9008953F924F921B
S11356B05F926F927F928F929F92AF92BF92CF929E
S11356C0DF92EF92FF920F931F93CF93DF93CDB7A7
S11356D0DEB76897CDBFDEBF898B9A8B6F8B788FCF
S11356E08A0140E0BE016F5F7F4FCE0141960E9468
S11356F0BD16382E8111C2C0E981FA81D801ED931B
S1135700FC9387859089A189B289C388D488E58868
S1135710F688B701A6014250510961097109481779
S113572059076A077B0738F0EF89F88D80839183E6
S1135730A283B383A3C080818130B9F5EB83FC835A
S1135740C12CD12C76016894C1F8412C512C320122
S1135750B701A601CE0103960E94631A6F3FFFEFC3
S11357607F078F079F0709F474C0613071058105B5
S1135770910509F471C0672B682B692B29F42FEF6D
S1135780421A520A620A720A8FEFC81AD80AE80A41
S1135790F80AE981FA8183899489A589B689C816AA
S11357A0D906EA06FB06A0F25AC0878C90A0A1A0F5
S11357B0B2A000E010E0412C512C3201011511057A
S11357C0B1F4D501C4010196A11DB11D8B8B9C8B35
S11357D0AD8BBE8BB501A40189819A810E94841589
S11357E0382E81113CC08B889C88AD88BE88E981A5
S11357F0FA818081823081F4CF018F96800F911FCE
S11358000E949A12892B29F49FEF491A590A690AAE
S1135810790A0E5F1F4F14C0CF018F96800F911F1E
S11358200E94A412DC01CB01BF70892B8A2B8B2B25
S113583029F4AFEF4A1A5A0A6A0A7A0A0C5F1F4F10
S11358401170B1E0CB1AD108E108F10809F0B6CF24
S113585006C03324339403C06894332431F8EF89A9
S1135860F88D4082518262827382E981FA8147868F
S1135870508A618A728A848181608483832D6896C8
S1135880CDBFDEBFDF91CF911F910F91FF90EF90BD
S1135890DF90CF90BF90AF909F908F907F906F904C
S11358A05F904F903F900895CF92DF92FF920F93B5
S11358B01F93CF93DF931F921F92CDB7DEB76C0176
S11358C0BE016F5F7F4F0E94F51481119DC0D60108
S11358D01F96FC901F97F11090C01E968C911E97F6
S11358E081FF8DC050968D919D910D90BC91A02DFE
S11358F0F601428553856485758584179507A60747
S1135900B70708F07EC0892B8A2B8B2B99F446812C
S113591057816085718500E010E09801C6010E94FE
S11359207C1DF82ED60116961D921D921D921C9276
S1135930199732C0F6014489558966897789C60169
S11359400E94631A6F3FFFEF7F078F079F0711F4D1
S1135950FF24F394613071058105910519F468946D
S1135960FF24F1F8F11018C0E981FA810389148940
S113597025893689601771078207930768F4D60171
S113598054960D911D912D913C915797AB01BC01FB
S1135990C6010E947C1DF82EF60180899189A28996
S11359A0B38982879387A487B58786858064868731
S11359B0F1101CC08823D4F4E981FA81D6015896E9
S11359C02D913D914D915C915B9701E010E0B60102
S11359D06E5D7F4F81810E944B3C811105C0F601B1
S11359E086858F77868702C0FF24F394FF2059F0C1
S11359F0D6011F96FC928F2D07C08F2D05C087E01E
S1135A0003C08F2D01C08F2D0F900F90DF91CF9188
S1135A101F910F91FF90DF90CF900895AF92BF92A6
S1135A20CF92DF92EF92FF920F931F93CF93DF9366
S1135A30CDB7DEB7C455D109CDBFDEBF65968EAFF5
S1135A409FAF659742E0BE016F5A7F4FCE018D5ADA
S1135A509F4F0E94BD16182F81116CC063968EADA6
S1135A609FAD639789839A8365966EAD7FAD659785
S1135A70CE0101960E94C21F182F81115BC088A518
S1135A80882324F08D8180FD03C003C016E001C08B
S1135A9017E011112BC06B8D7C8D6396AEACBFAC3F
S1135AA06397C5010E943A136B017C018D8184FFC9
S1135AB020C0A9A6BAA6CFA6D8AAE9AAFAAA40E005
S1135AC050E0BA01CE0189960E94451B182F81111E
S1135AD010C060E070E0CE0189960E94A020811180
S1135AE001C087E0843029F0182F03C0C12CD12CC9
S1135AF0760111111FC0CE0101960E94111E182FAC
S1135B0081110FC0C114D104E104F10451F000E08B
S1135B1010E09801B701A601CE0101960E947C1DF8
S1135B20182F111107C063968EAD9FAD63970E9425
S1135B30EA20182F812FCC5ADF4FCDBFDEBFDF9173
S1135B40CF911F910F91FF90EF90DF90CF90BF9076
S1135B50AF9008954F925F926F927F928F929F922F
S1135B60AF92BF92FF920F931F93CF93DF93CDB762
S1135B70DEB7EA97CDBFDEBF89AF9AAF42E0BE0180
S1135B80695C7F4FCE01C9960E94BD16F82E811123
S1135B90B2C08FA998AD89839A8369AD7AADCE01DD
S1135BA001960E94C21F811101C088E0843009F06F
S1135BB0A1C08FA998AD89A79AA740E050E0BA0187
S1135BC0CE0189960E942B1C4B015C01672B682B2C
S1135BD0692B21F40F2EF7E0FF2EF02D81E08816BB
S1135BE09104A104B10419F46894FF24F1F88FEF2F
S1135BF088169806A806B80611F4FF24F3940E94A8
S1135C00B9612B013C01F1104BC0B501A4018FA96E
S1135C1098AD0E942D1EF82E811142C08FA998AD17
S1135C204BE050E060E270E08F960E94D812EFA93A
S1135C30F8AD1EE217A780E182AFB301A201CF0144
S1135C408B5B9F4F0E94C3128FA998ADBC01615D0D
S1135C507F4FA50194010E9467138FA998ADBC01E1
S1135C60615D7F4F40E250E0815B9F4F0E94C9120B
S1135C708FA998ADFC01E05BFF4F10832F8138851D
S1135C8049855A85BC01615B7F4F0E946713EFA968
S1135C90F8AD81E08383CE0101960E946C20F82E3A
S1135CA0F1101EC08B8D9C8DB301A20146960E94FB
S1135CB0C3126B8D7C8DA50194018FA998AD0E94B0
S1135CC06713EB8DFC8D80E18387EFA9F8AD81E04C
S1135CD08383F11010C0CF010E94EA20F82E0BC07C
S1135CE000E010E09801B501A401CE0189960E945C
