:100000000C94F1AD0C941AAE0C941AAE0C941AAE7A
:100010000C941AAE0C941AAE0C941AAE0C941AAE40
:100020000C941AAE0C941AAE0C941AAE0C941AAE30
:100030000C941AAE0C941AAE0C941AAE0C941AAE20
:100040000C941AAE0C941AAE0C941AAE0C941AAE10
:100050000C941AAE0C941AAE0C941AAE0C941AAE00
:100060000C941AAE0C941AAE0C941AAE0C941AAEF0
:100070000C941AAE0C941AAE0C941AAE0C941AAEE0
:100080000C941AAE0C941AAE0C941AAE0C941AAED0
:100090000C941AAE0C941AAE0C941AAE0C941AAEC0
:1000A0000C941AAE0C941AAE0C941AAE0C94BFC0F9
:1000B0000C941AAE0C941AAE0C9492C00D94442574
:1000C0000C941AAE0C941AAE0C941AAE0C941AAE90
:1000D0000C941AAE0C941AAE0C941AAE0C941AAE80
:1000E0000C941AAE0C941AAE0C9436C00C9464C0E6
:1000F0000C941AAE0C941AAE0C941AAE0C941AAE60
:100100000C941AAE0C941AAE0C941AAE0C941AAE4F
:100110000C941AAE0C941AAE0C941AAE0C941AAE3F
:100120000C941AAE0C941AAE0C941AAE0C941AAE2F
:100130000C941AAE0C941AAE0C941AAE0C941AAE1F
:100140000C941AAE0C941AAE0C941AAE0C941AAE0F
:100150000C941AAE0C941AAE0C941AAE0C941AAEFF
:100160000C941AAE0C941AAE0C941AAE0C941AAEEF
:100170000C941AAE0C941AAE0C941AAE0C941AAEDF
:100180000C941AAE0C941AAE0C941AAE0C941AAECF
:100190000C941AAE0C941AAE0C941AAE0C941AAEBF
:1001A0000C941AAE0C941AAE0C941AAE0C941AAEAF
:1001B0000C941AAE0C941AAE0C941AAE0C941AAE9F
:1001C0000C941AAE0C941AAE0C941AAE0C941AAE8F
:1001D0000C941AAE0C941AAE0C941AAE0C941AAE7F
:1001E0000C941AAE0C941AAE0C941AAE0C941AAE6F
:1001F0000C941AAE0C941AAE0C941AAE68B94AB9A3
:1002000082B956B95CB986B950B962B9D3B9DAB90D
:10021000E1B9DAB9DAB9E1B9DAB9D3B970E418E217
:100220006DE21FE23EE53EE53EE549DF3EE59EE349
:10023000CEE07DE482E3FBE11EE33EE53EE587DFC1
:100240003EE593E37BE3C3E2ABE3DE016A026A02CD
:100250006A026A0268026A026A026A026A026A0240
:100260006A026A026A026A026A026A026A026A022E
:100270006A025A026A026A026A026A026A026A022E
:100280006A026A026A026A026A026A026A026A020E
:100290006A026A026A023E026A026A026A026A022A
:1002A0006A02AC026A026A026A026A026A026A02AC
:1002B0006A0202026A026A026A026A026A026A0246
:1002C0006A026A026A026A026A026A026A026A02CE
:1002D0006A026A026A02EA016A026A026A026A023F
:1002E0006A0292025E025E0244027A020C022A0252
:1002F0002002400288023602D4026C02D401CA02F3
:100300002C02760284024E02320278021402520259
:100310009802D202DC01CE014A02DA012E02480222
:10032000D6018E02D601D601D601F201D601D60140
:10033000D601D601D601D601D6014202D601D60198
:10034000D601D601D601D601D601D601D601D601F5
:10035000D601D601D601D601D601D802D601D601E2
:10036000D601D601D601D601D601D601D601D601D5
:10037000D601D601D601D601D601D601D601D601C5
:10038000D601D601D601D601D601D601D601D601B5
:10039000D601D601D601D601D60110020D94B4744F
:1003A0000C94E9B90D94E4160D9463670D94BF782D
:1003B0000C94C3E20D94DC780D94C7710D949E43A8
:1003C0000C94C8B80C946DE20D945C280D945158AF
:1003D0000D946F3B0D94A1430D941E3B0D9412267A
:1003E0000C948BE70D9497780D94F95B0C949EE335
:1003F0000C9427C00D9413290C9467BA0D94B3275D
:100400000C94E1B90D9495430C94ABE30C9418E271
:100410000D94B6270C947BE30D9407640C945CBA9E
:100420000D94B5780C94E9DB0D94E56F0C94E3B171
:100430000C9405B80C9493E30C944FE80D941B5C5A
:100440000D9429640D94FD5B0C94FBE10D94F43A3A
:100450000D94015C0D9418640D94FE670D947978E9
:100460000C9470E40D94616E0C945CB90D94036768
:100470000C941EE30C94BFB90C94B1B80D948C434A
:100480000D943A640D94A1780D94E5630D940D518B
:100490000D9483780D9429750C9451BA0D94436E84
:1004A0000C9456B90D94FE6F0C94D3B90C9411CCE6
:1004B0000D94A1280D9498430C940CDC0D94D663F4
:1004C0000C944AB90D9471260C9449DF0D942D5C5F
:1004D0000D949B430D948B430D9438670D943E26E9
:1004E0000C94D8C30C9482E30C947ABA0D943C68B3
:1004F0000D94B26F0D94F6630C947DE40D946D2809
:100500000C9462B90D941A280D94266E0D94CC5B50
:100510000D94B0660C9453E50C943EE50D948D78E3
:100520000C94F2DC0D948F430C9450B90C94FDE5BF
:100530000D947E710C94DAB90C9455B80D94D627AD
:100540000C94CEE00C94B2D40C9426C80C9482B9CE
:100550000C946CE90D94E8250D9492430C9435B5F8
:100560000C9493B80C94C4B80D94DA280D942C5ABA
:100570000D94EA530D94355C0D943D5C0D94135C21
:100580000C9487DF0D9469250C9468B90D94473B52
:100590000C9486B90D94EA670D94FC3A0D94CD5BEA
:1005A0000C941FE20D94B1710D9424670D94325395
:1005B0000D94AB78256C752E2530336C75206D56F7
:1005C00000256C75272530336C752E2530336C75FE
:1005D000206D5600417267756D656E74206E6F7484
:1005E00020666F756E642C2043757272656E742D73
:1005F000536F757263652026204D555820646973CA
:1006000061626C65642E0D0A52756E2027706D75DF
:10061000782068656C702720746F207072696E7422
:1006200020616C6C20617661696C61626C6520612F
:100630007267756D656E74732E0D0A004172677571
:100640006D656E74206E6F7420666F756E642C20FD
:1006500043757272656E742D536F757263652026D3
:10066000204D55582064697361626C65642E0D0AD3
:1006700052756E2027706D75782068656C70272024
:10068000746F207072696E7420616C6C2061766189
:10069000696C61626C6520617267756D656E7473FB
:1006A0002E0D0A004E6F20626F6172642073656CBC
:1006B0006563746564212053656C656374206120F3
:1006C000626F6172642066697273742077697468FE
:1006D0002027706D75782063617264203C73656CAF
:1006E0003E272E0D0A000D0A001B5B346D4D65611F
:1006F000737572696E67206368616E6E656C202524
:10070000751B5B306D3A20001B5B316D4D6561736D
:100710007572696E6720616C6C206368616E6E65CE
:100720006C73211B5B306D0D0A0053656C6563743F
:1007300065642076616C7565206F7574206F662026
:1007400072616E67652E2043686F6F73652061204C
:100750006E756D626572206265747765656E2030B6
:1007600020616E642033312E0D0A000D0A001B5BE0
:10077000346D4D6561737572696E67206368616E73
:100780006E656C2025751B5B306D3A2000706368C8
:10079000004E6F20626F6172642073656C656374D4
:1007A0006564212053656C656374206120626F610C
:1007B0007264206669727374207769746820277088
:1007C0006D75782063617264203C73656C3E272EE2
:1007D0000D0A000D0A001B5B346D4D656173757267
:1007E000696E67206368616E6E656C2025751B5BA2
:1007F000306D3A20001B5B316D4D65617375726918
:100800006E6720616C6C206368616E6E656C73212D
:100810001B5B306D0D0A0053656C65637465642065
:1008200076616C7565206F7574206F662072616EDD
:1008300067652E2043686F6F73652061206E756D4C
:10084000626572206265747765656E203020616E26
:10085000642033312E0D0A000D0A001B5B346D4DF0
:100860006561737572696E67206368616E6E656C31
:100870002025751B5B306D3A2000666368004E6F63
:1008800020636172642063757272656E746C792086
:1008900073656C65637465642120257520636172DE
:1008A000647320617661696C61626C6520746F208D
:1008B00073656C6563742066726F6D2E0D0A00435C
:1008C000617264202575206F7574206F6620257510
:1008D0002073656C65637465642E0D0A00496E763D
:1008E000616C69642043617264212053656C6563A7
:1008F00074206120436172642066726F6D20312024
:10090000746F2025752E0D0A0043617264202575D1
:1009100020646573656C65637465642E0D0A00431D
:100920006172642025752073656C6563746564214C
:100930000D0A004361726420257520646573656C3F
:1009400065637465642E0D0A0063617264001B5B4D
:10095000316D416E616C6F672D426F61726420442E
:1009600065627567204D6F64756C651B5B306D0D3E
:100970000A55736167653A0D0A616E696E203F2002
:100980002020202020202020202020202D205368DF
:100990006F7720746869732068656C702070616778
:1009A000650D0A616E696E2063617264205B3C7341
:1009B000656C3E5D20202D2053656C65637420744A
:1009C000686520416E616C6F672043617264206FBF
:1009D0007220676574207468652073656C65637444
:1009E000656420436172640D0A616E696E206663FE
:1009F00068205B3C6E3E5D20202020202D204D6530
:100A000061737572652074686520646966666572D5
:100A1000656E7469616C2C2066726F6D2030207475
:100A20006F2033310D0A202020202020202020207C
:100A30002020202020202020202D204966206E6F9D
:100A4000206368616E6E656C2069732067697665E6
:100A50006E2C20616C6C206368616E6E656C732017
:100A600077696C6C206265206D6561737572656471
:100A70000D0A616E696E20706368205B3C6E3E5D9E
:100A800020202020202D204F6E6C792073656C650E
:100A90006374732074686520686967682D63686192
:100AA0006E6E656C2C206265747765656E203020F3
:100AB000746F2033310D0A20202020202020202098
:100AC000202020202020202020202D204966206E5C
:100AD0006F206368616E6E656C206973206769764C
:100AE000656E2C20616C6C206368616E6E656C7342
:100AF0002077696C6C206265206D65617375726525
:100B0000640D0A003F0068656C70004469666665A4
:100B100072656E7A69616C2D4D657373706C61746A
:100B2000696E65206572666F6C67726569636820BF
:100B3000696E697469616C697369657274210044D6
:100B40006966666572656E7A69616C2D4D65737351
:100B5000706C6174696E65206572666F6C67726532
:100B600069636820696E697469616C69736965722B
:100B7000742100416E616C6F672D4469676974610F
:100B80006C2D57616E646C6572206572666F6C6760
:100B9000726569636820696E697469616C697369FB
:100BA0006572742100416E616C6F672D44696769DD
:100BB00074616C2D57616E646C6572206572666F2E
:100BC0006C67726569636820696E697469616C69D4
:100BD000736965727421004665686C657220696E80
:100BE000206465722046756E6B74696F6E3A206181
:100BF0006E616C6F67426F6172645F696E697400E9
:100C00004665686C657220696E2064657220467561
:100C10006E6B74696F6E3A20616E616C6F67426FC4
:100C20006172645F696E6974004B6F6E74616B749E
:100C3000696572656E205369652064696520456C3D
:100C4000656B74726F6E696B2D41627465696C754A
:100C50006E672E004B6F6E74616B74696572656EA2
:100C6000205369652064696520456C656B74726FFB
:100C70006E696B2D41627465696C756E672E0046F6
:100C800065686C6572206265696D20496E6974697A
:100C9000616C6973696572656E2064657320414497
:100CA000437321004665686C6572206265696D203A
:100CB000496E697469616C6973696572656E2064F7
:100CC000657320414443732100496E697469616C06
:100CD0006973696572652064656E20416E616C6F31
:100CE000672D4469676974616C2D57616E646C652A
:100CF000722E2E2E00496E697469616C6973696584
:100D000072652064656E20416E616C6F672D446969
:100D1000676974616C2D57616E646C65722E2E2E3E
:100D200000426569646520446966666572656E7433
:100D300069616C2D4D756C7469706C657865722095
:100D4000696E697469616C697369657274210042C6
:100D50006569646520446966666572656E7469617B
:100D60006C2D4D756C7469706C6578657220696E58
:100D7000697469616C6973696572742100426F619D
:100D800072642D416472657373653A203078253042
:100D9000325800426F6172642D41647265737365ED
:100DA0003A2030782530325800496E697469616C98
:100DB0006973696572652064696520446966666562
:100DC00072656E7A69616C2D4D657373706C6174B8
:100DD000696E652E2E2E00496E697469616C6973A7
:100DE0006965726520646965204469666665726537
:100DF0006E7A69616C2D4D657373706C6174696E88
:100E0000652E2E2E000D0A00B80BD007E803F40162
:100E1000FA007D005265616420616E64206D6F6E22
:100E200069746F722074686520616E616C6F6720F1
:100E3000696E707574206361726400616E696E0022
:100E40004665686C657220696E206465722046751F
:100E50006E6B74696F6E3A205F696E697444697372
:100E600070466C617368004665686C657220696ED7
:100E7000206465722046756E6B74696F6E3A205FF0
:100E8000696E697444697370466C617368004B6F76
:100E90006E74616B74696572656E20536965206458
:100EA000696520456C656B74726F6E696B2D41626C
:100EB0007465696C756E672E004B6F6E74616B7430
:100EC000696572656E205369652064696520456CAB
:100ED000656B74726F6E696B2D41627465696C75B8
:100EE0006E672E004665686C6572206265696D20CC
:100EF000496E697469616C6973696572656E2064B5
:100F000065732053706569636865722D4368697005
:100F10007321004665686C6572206265696D2049C1
:100F20006E697469616C6973696572656E20646568
:100F3000732053706569636865722D4368697073C7
:100F40002100496E697469616C6973696572652015
:100F500064656E20446973706C61792D53706569A6
:100F6000636865722E2E2E00496E697469616C6922
:100F700073696572652064656E20446973706C6185
:100F8000792D53706569636865722E2E2E00446159
:100F9000766F6E206672656965722053706569634D
:100FA000686572203A2025356C75204B69420044F3
:100FB00061766F6E2066726569657220537065692F
:100FC00063686572203A2025356C75204B694200B4
:100FD000476573616D7465205370656963686572F8
:100FE0006772F67373653A2025356C75204B69423C
:100FF0002000476573616D7465205370656963688F
:1010000065726772F67373653A2025356C75204BEF
:1010100069422000446174656973797374656D2059
:101020005B25735D20676566756E64656E20756E01
:101030006420696E697469616C6973696572743A78
:1010400000446174656973797374656D205B257301
:101050005D20676566756E64656E20756E642069D7
:101060006E697469616C6973696572743A0046658A
:10107000686C657220696E206465722046756E6BBF
:1010800074696F6E3A205F696E69744D656D465381
:101090002034004665686C657220696E2064657254
:1010A0002046756E6B74696F6E3A205F696E697465
:1010B0004D656D46532034004B6F6E74616B7469DF
:1010C0006572656E205369652064696520456C65AD
:1010D0006B74726F6E696B2D41627465696C756EAD
:1010E000672E004B6F6E74616B74696572656E205C
:1010F0005369652064696520456C656B74726F6E19
:10110000696B2D41627465696C756E672E00446170
:1011100074656973797374656D206B6F6E6E746539
:10112000206E6963687420696E697469616C6973A3
:10113000696572742077657264656E21004461741C
:10114000656973797374656D206B6F6E6E7465205D
:101150006E6963687420696E697469616C6973692A
:101160006572742077657264656E21004665686CEF
:10117000657220696E206465722046756E6B7469B5
:101180006F6E3A205F696E69744D656D465320310C
:10119000004665686C657220696E20646572204641
:1011A000756E6B74696F6E3A205F696E69744D6518
:1011B0006D46532031004B6F6E74616B74696572BC
:1011C000656E205369652064696520456C656B74A4
:1011D000726F6E696B2D41627465696C756E672EF6
:1011E000004B6F6E74616B74696572656E20536934
:1011F000652064696520456C656B74726F6E696B00
:101200002D41627465696C756E672E00DC626572D3
:101210007072FC6665206461732044617465697353
:10122000797374656D2E2E2E00DC6265727072FC0F
:1012300066652064617320446174656973797374B1
:10124000656D2E2E2E005370656963686572206986
:101250006E697469616C6973696572742100537099
:1012600065696368657220696E697469616C697328
:101270006965727421004665686C657220696E202C
:101280006465722046756E6B74696F6E3A205F6993
:101290006E69744D656D46532030004665686C6517
:1012A0007220696E206465722046756E6B74696F7A
:1012B0006E3A205F696E69744D656D46532030004B
:1012C0004B6F6E74616B74696572656E20536965EE
:1012D0002064696520456C656B74726F6E696B2D57
:1012E00041627465696C756E672E004B6F6E746138
:1012F0006B74696572656E20536965206469652049
:10130000456C656B74726F6E696B2D4162746569B3
:101310006C756E672E004665686C65722062656943
:101320006D20496E697469616C6973696572656E77
:10133000206465732053706569636865722D436826
:1013400069707321004665686C6572206265696D1D
:1013500020496E697469616C6973696572656E2094
:101360006465732053706569636865722D436869AD
:1013700070732100496E697469616C697369657283
:10138000652064656E2053706569636865722E2EF2
:101390002E00496E697469616C69736965726520B4
:1013A00064656E2053706569636865722E2E2E0029
:1013B000546F756368646973706C61792D4B6F6EDF
:1013C00074726F6C6C657220696E697469616C69A6
:1013D000736965727400546F756368646973706CC7
:1013E00061792D4B6F6E74726F6C6C657220696ED3
:1013F000697469616C697369657274004665686CCB
:10140000657220696E206465722046756E6B746922
:101410006F6E3A205F696E6974546F756368004639
:1014200065686C657220696E206465722046756E11
:101430006B74696F6E3A205F696E6974546F75637F
:1014400068004B6F6E74616B74696572656E2053D2
:1014500069652064696520456C656B74726F6E699F
:101460006B2D41627465696C756E672E004B6F6EF3
:1014700074616B74696572656E2053696520646977
:101480006520456C656B74726F6E696B2D4162747B
:1014900065696C756E672E004665686C65722062C2
:1014A00065696D20496E697469616C6973696572FB
:1014B000656E2064657320546F756368646973702A
:1014C0006C61792D4B6F6E74726F6C6C65727321E9
:1014D000004665686C6572206265696D20496E69B9
:1014E0007469616C6973696572656E2064657320E7
:1014F000546F756368646973706C61792D4B6F6E9E
:1015000074726F6C6C6572732100496E69746961E5
:101510006C6973696572652064656E20546F7563CC
:1015200068646973706C61792D4B6F6E74726F6C47
:101530006C65722E2E2E00496E697469616C697338
:10154000696572652064656E20546F7563686469AF
:1015500073706C61792D4B6F6E74726F6C6C657209
:101560002E2E2E005365747A746520646965206C94
:1015700065747A7465204275696C642D5A65697466
:1015800020616C73206E657565205A6569743A3107
:10159000333A32313A3232202D20417072203235C6
:1015A0002032303232005365747A74652064696584
:1015B000206C65747A7465204275696C642D5A6577
:1015C000697420616C73206E657565205A65697455
:1015D0003A31333A32313A3232202D204170722082
:1015E00032352032303232005075666665722D42D7
:1015F00061747465726965206465722045636874FE
:101600007A656974756872206C6565723F00507503
:10161000666665722D4261747465726965206465E1
:101620007220456368747A656974756872206C65A8
:1016300065723F0047656C6573656E65205A656924
:10164000743A20252E32643A252E32643A252E3201
:101650006420252E32642E252E32642E252E3464ED
:101660000047656C6573656E65205A6569743A203C
:10167000252E32643A252E32643A252E32642025F6
:101680002E32642E252E32642E252E3464004563BE
:1016900068747A65697475687220537065696368E7
:1016A000657220616B7475616C6973696572742110
:1016B00000456368747A6569747568722053706553
:1016C000696368657220616B7475616C69736965C3
:1016D00072742100456368747A6569747568722054
:1016E000696E697469616C697369657274004563D8
:1016F00068747A65697475687220696E6974696165
:101700006C69736965727400496E666F726D6965A4
:1017100072656E2073696520626974746520646502
:101720006E20537570706F7274202F20646965206D
:10173000456C656B74726F6E696B20FC626572201C
:101740006461732050726F626C656D2E00496E6625
:101750006F726D696572656E207369652062697468
:1017600074652064656E20537570706F7274202FDD
:101770002064696520456C656B74726F6E696B20BF
:10178000FC626572206461732050726F626C656DDB
:101790002E005365747A746520646965206C6574E5
:1017A0007A7465204275696C642D5A65697420618C
:1017B0006C73206E657565205A6569743A31333AE9
:1017C00032313A3232202D204170722032352032AF
:1017D000303232005365747A746520646965206C18
:1017E00065747A7465204275696C642D5A656974F4
:1017F00020616C73206E657565205A6569743A3195
:10180000333A32313A3232202D2041707220323553
:10181000203230323200456368747A6569747568C5
:1018200072206B6F6E6E7465206E696368742069D8
:101830006E697469616C6973696572742077657229
:1018400064656E210D0A00456368747A6569747574
:101850006872206B6F6E6E7465206E6963687420A9
:10186000696E697469616C69736965727420776502
:101870007264656E210D0A00496E697469616C6954
:1018800073696572652064696520456368747A656B
:1018900069747568722E2E2E00496E697469616CC8
:1018A0006973696572652064696520456368747A47
:1018B0006569747568722E2E2E004D696B726F6BA0
:1018C0006F6E74726F6C6C6572626F6172642050BF
:1018D0006F72742D4572776569746572756E6720D5
:1018E000696E697469616C697369657274004D69C8
:1018F0006B726F6B6F6E74726F6C6C6572626F611E
:10190000726420506F72742D4572776569746572C8
:10191000756E6720696E697469616C697369657257
:1019200074004665686C657220696E20646572207B
:1019300046756E6B74696F6E3A205F696E697449A3
:101940006E7465726E616C506F7274457870616E02
:10195000646572004665686C657220696E20646516
:10196000722046756E6B74696F6E3A205F696E699E
:1019700074496E7465726E616C506F7274457870E4
:10198000616E646572004B6F6E74616B7469657231
:10199000656E205369652064696520456C656B74CC
:1019A000726F6E696B2D41627465696C756E672E1E
:1019B000004B6F6E74616B74696572656E2053695C
:1019C000652064696520456C656B74726F6E696B28
:1019D0002D41627465696C756E672E004D696B727E
:1019E0006F6B6F6E74726F6C6C6572626F61726434
:1019F00020506F72742D4572776569746572756ECB
:101A000067206B6F6E6E7465206E69636874206901
:101A10006E697469616C6973696572742077657247
:101A200064656E21004D696B726F6B6F6E74726FBF
:101A30006C6C6572626F61726420506F72742D45B8
:101A400072776569746572756E67206B6F6E6E7400
:101A500065206E6963687420696E697469616C6978
:101A600073696572742077657264656E2100496ED2
:101A7000697469616C697369657265206469652060
:101A80004D696B726F6B6F6E74726F6C6C657262A6
:101A90006F61726420506F72742D4572776569743E
:101AA0006572756E672E2E2E00496E697469616CC1
:101AB00069736965726520646965204D696B726F31
:101AC0006B6F6E74726F6C6C6572626F61726420A2
:101AD000506F72742D4572776569746572756E67A3
:101AE0002E2E2E004D696B726F6B6F6E74726F6C61
:101AF0006C65722D506C6174696E65206572666FDD
:101B00006C67726569636820696E697469616C6984
:101B1000736965727421004D696B726F6B6F6E74BF
:101B2000726F6C6C65722D506C6174696E652065A6
:101B300072666F6C67726569636820696E69746943
:101B4000616C697369657274210050617363616CC3
:101B500020476573656C6C202D2032303231002DAA
:101B6000205363687761626B7570706C756E672067
:101B70005465737465696E7269636874756E672005
:101B80002D0042696C64204C6164656665686C6513
:101B9000722100496E697469616C69736965726567
:101BA00020646965204D696B726F6B6F6E74726F24
:101BB0006C6C65722D506C6174696E652E2E2E00F2
:101BC000496E697469616C697369657265206469DD
:101BD00065204D696B726F6B6F6E74726F6C6C65A4
:101BE000722D506C6174696E652E2E2E00427569DF
:101BF0006C642D5A6569743A2031333A32313A3285
:101C000032202D20417072203235203230323200A5
:101C10004275696C642D5A6569743A2031333A32E1
:101C2000313A3232202D204170722032352032304C
:101C3000323200456E747769636B6C65722D4D6F3F
:101C400064757320676573746172746574210045EF
:101C50006E747769636B6C65722D4D6F647573205C
:101C60006765737461727465742100446973706C84
:101C70006179204F4B2C206C61646520477261664E
:101C8000696B656E2E2E2E0050494620496D6167A6
:101C90006520446973706C61792054657374657252
:101CA0000D0A55736167653A0D0A20706966203C1C
:101CB000783E203C793E203C696D6167652E7069F5
:101CC000663E2020202D20446973706C617920616C
:101CD0002050494620496D61676520617420706F0E
:101CE000736974696F6E20782F790D0A00496D61F0
:101CF0006765206C6F6164656420696E20256C7572
:101D0000206D696C6C697365636F6E6473210D0A75
:101D100000436F6F7264696E6174657320746F6FD6
:101D2000206C61726765210D0A005B5049465D2099
:101D3000496D61676520547970653A202573202DBF
:101D400020524C452D436F6D7072657373696F6ED1
:101D50003A202573005B5049465D20496E76616CE0
:101D6000696420696D61676520747970652120253B
:101D700075005B5049465D2046696C652053697A61
:101D8000653A20256C75204279746573202D2049B1
:101D90006D6167652073697A653A20256C7520420C
:101DA00079746573005B5049465D20496D616765D4
:101DB00020506978656C733A202575772078202546
:101DC0007568005B5049465D20436C6F73696E67B0
:101DD0002066696C652E2E2E2025732120436F64AA
:101DE00065202575005B5049465D204F70656E6922
:101DF0006E6720496D61676520272573272E2E2E7B
:101E00002025732120436F64652025750050726F73
:101E1000746F747970652066756E6374696F6E2077
:101E2000746F20646973706C617920504946204951
:101E30006D616765730070696600256C752E2530CD
:101E4000336C7500256C75272530336C752E253065
:101E5000336C7500417267756D656E74206E6F74BA
:101E600020666F756E642C2043757272656E742DDA
:101E7000536F757263652026204D55582064697331
:101E800061626C65642E0D0A52756E2027706D7547
:101E9000782068656C702720746F207072696E748A
:101EA00020616C6C20617661696C61626C65206197
:101EB0007267756D656E74732E0D0A0041726775D9
:101EC0006D656E74206E6F7420666F756E642C2065
:101ED00043757272656E742D536F7572636520263B
:101EE000204D55582064697361626C65642E0D0A3B
:101EF00052756E2027706D75782068656C7027208C
:101F0000746F207072696E7420616C6C20617661F0
:101F1000696C61626C6520617267756D656E747362
:101F20002E0D0A004E6F20626F6172642073656C23
:101F30006563746564212053656C6563742061205A
:101F4000626F617264206669727374207769746865
:101F50002027706D75782063617264203C73656C16
:101F60003E272E0D0A00206D560D0A1B5B316D4D6C
:101F70006178696D756D2043757272656E7420535A
:101F8000657420726F7567686C7920286D41293AF5
:101F9000201B5B306D0D0A7E00206D56290D0A1B3B
:101FA0005B316D4275636B2D436F6E766572746540
:101FB0007220466565646261636B20286D56293A1C
:101FC000201B5B306D0D0A00206D56202852617772
:101FD0003A2000206D410D0A1B5B316D4F75747006
:101FE000757420566F6C7461676520286D56293AA8
:101FF000201B5B306D0D0A7E000D0A1B5B316D43AB
:10200000757272656E742053656E736F7220286DE1
:1020100041293A201B5B306D0D0A0073616D706CB5
:1020200065004E6F20626F6172642073656C65633A
:10203000746564212053656C656374206120626F50
:1020400061726420666972737420776974682027EE
:10205000706D75782063617264203C73656C3E27F7
:102060002E0D0A006F6666004E6F20626F6172640B
:102070002073656C6563746564212053656C6563CA
:1020800074206120626F61726420666972737420CB
:10209000776974682027706D757820636172642099
:1020A0003C73656C3E272E0D0A006F6E004E6F204C
:1020B000626F6172642073656C656374656421206E
:1020C00053656C656374206120626F617264206681
:1020D0006972737420776974682027706D75782031
:1020E00063617264203C73656C3E272E0D0A004DBF
:1020F000756C7469706C657865722044697361628F
:102100006C6564210D0A0053656C65637465642019
:1021100076616C7565206F7574206F662072616ED4
:1021200067652E2043686F6F73652061206E756D43
:10213000626572206265747765656E203020616E1D
:10214000642033312E0D0A00537769746368696E19
:1021500067206368616E6E656C202575210D0A002D
:10216000706368004E6F20626F6172642073656CEB
:102170006563746564212053656C65637420612018
:10218000626F617264206669727374207769746823
:102190002027706D75782063617264203C73656CD4
:1021A0003E272E0D0A004D756C7469706C6578655C
:1021B000722044697361626C6564210D0A00536585
:1021C0006C65637465642076616C7565206F7574E9
:1021D000206F662072616E67652E2043686F6F7393
:1021E000652061206E756D62657220626574776529
:1021F000656E203020616E642033312E0D0A00534D
:102200007769746368696E67206368616E6E656C78
:10221000202575210D0A00666368004E6F206361FA
:1022200072642063757272656E746C792073656C6C
:102230006563746564212025752063617264732071
:10224000617661696C61626C6520746F2073656C86
:102250006563742066726F6D2E0D0A0043617264AF
:10226000202575206F7574206F6620257520736595
:102270006C65637465642E0D0A00496E76616C6945
:10228000642043617264212053656C65637420612E
:1022900020436172642066726F6D203120746F205C
:1022A00025752E0D0A004361726420257520646532
:1022B00073656C656374656420616E6420636C652E
:1022C000617265642E0D0A004361726420257520D9
:1022D00073656C6563746564210D0A004361726403
:1022E00020257520646573656C6563746564206181
:1022F0006E6420636C65617265642E0D0A00636113
:102300007264001B5B316D506F7765724D55582DAF
:10231000426F617264204465627567204D6F647519
:102320006C651B5B306D0D0A55736167653A0D0A6C
:10233000706D7578203F2020202020202020202034
:102340002020202D2053686F7720746869732068DF
:10235000656C7020706167650D0A706D757820631B
:10236000617264205B3C73656C3E5D20202D2053C0
:10237000656C6563742074686520506F7765724D75
:1023800055582043617264206F7220676574207411
:1023900068652073656C656374656420436172646D
:1023A0000D0A706D757820666368203C6E3E2020B3
:1023B00020202020202D202844652953656C65634A
:1023C00074207468652066756C6C204368616E6E5D
:1023D000656C2C2066726F6D203020746F20333155
:1023E0000D0A706D757820706368203C6E3E202069
:1023F00020202020202D204F6E6C792073656C6585
:102400006374732074686520686967682D63686108
:102410006E6E656C2C206265747765656E20302069
:10242000746F2033310D0A706D7578206F6E202027
:10243000202020202020202020202D205475726E66
:10244000206F6E207468652063757272656E7420EB
:10245000736F757263650D0A706D7578206F6666AF
:1024600020202020202020202020202D2054757284
:102470006E206F6666207468652063757272656E83
:102480007420736F757263650D0A706D75782073B3
:10249000616D706C6520202020202020202D204D93
:1024A00065617375726520566F6C74616765206134
:1024B0006E642043757272656E742C20616E6420A8
:1024C000646973706C61792069740D0A003F00685B
:1024D000656C70004C65697374756E6773706C61C0
:1024E00074696E65206572666F6C67726569636892
:1024F00020696E697469616C697369657274210021
:102500004C65697374756E6773706C6174696E6520
:10251000206572666F6C67726569636820696E69B1
:102520007469616C6973696572742100416E616CD4
:102530006F672D4469676974616C2D57616E646CB7
:102540006572206572666F6C677265696368206981
:102550006E697469616C6973696572742100416E9A
:10256000616C6F672D4469676974616C2D57616E8A
:10257000646C6572206572666F6C6772656963680A
:1025800020696E697469616C697369657274210090
:102590004665686C657220696E20646572204675B8
:1025A0006E6B74696F6E3A20706D7578426F6172F0
:1025B000645F496E69742032004665686C657220FC
:1025C000696E206465722046756E6B74696F6E3A31
:1025D00020706D7578426F6172645F496E69742016
:1025E00032004B6F6E74616B74696572656E205357
:1025F00069652064696520456C656B74726F6E69EE
:102600006B2D41627465696C756E672E004B6F6E41
:1026100074616B74696572656E20536965206469C5
:102620006520456C656B74726F6E696B2D416274C9
:1026300065696C756E672E004665686C6572206210
:1026400065696D20496E697469616C697369657249
:102650006E20646573204144437321004665686CB5
:102660006572206265696D20496E697469616C6983
:10267000736965726E206465732041444373210061
:10268000496E697469616C69736965726520646516
:102690006E20416E616C6F672D4469676974616C6F
:1026A0002D57616E646C65722E2E2E00496E697412
:1026B00069616C6973696572652064656E20416E3D
:1026C000616C6F672D4469676974616C2D57616E29
:1026D000646C65722E2E2E00506F72746572776571
:1026E00069746572756E6720696E697469616C6979
:1026F00073696572742100506F72746572776569D1
:10270000746572756E6720696E697469616C69734E
:102710006965727421004665686C657220696E2077
:102720006465722046756E6B74696F6E3A20706DC9
:102730007578426F6172645F696E6974203100461A
:1027400065686C657220696E206465722046756EDE
:102750006B74696F6E3A20706D7578426F61726448
:102760005F696E69742031004B6F6E74616B7469C0
:102770006572656E205369652064696520456C65E6
:102780006B74726F6E696B2D41627465696C756EE6
:10279000672E004B6F6E74616B74696572656E2095
:1027A0005369652064696520456C656B74726F6E52
:1027B000696B2D41627465696C756E672E004665A4
:1027C000686C6572206265692064657220496E6973
:1027D0007469616C6973696572756E67206465728E
:1027E00020506F72746572776569746572756E6773
:1027F00021004665686C65722062656920646572B7
:1028000020496E697469616C6973696572756E6778
:102810002064657220506F727465727765697465A3
:1028200072756E672100496E697469616C697369BC
:102830006572652064696520506F72746572776592
:1028400069746572756E672E2E2E00496E69746903
:10285000616C6973696572652064696520506F7287
:10286000746572776569746572756E672E2E2E00B9
:10287000426F6172642D416472657373653A2030F2
:10288000782530325800426F6172642D4164726560
:102890007373653A2030782530325800496E697478
:1028A00069616C69736965726520646965204C654E
:1028B000697374756E6773706C6174696E652E2EC2
:1028C0002E00496E697469616C697369657265206F
:1028D000646965204C65697374756E6773706C61AB
:1028E00074696E652E2E2E000D0A00B80BD007E815
:1028F00003F401FA007D00436F6E74726F6C206107
:102900006E64206D6F6E69746F72207468652070DC
:102910006F776572206D7578206361726400706DE9
:10292000757800B80B0000D0070000E8030000F441
:10293000010000FA0000007D000000416E616C6F34
:10294000672D4469676974616C2D57616E646C65AD
:1029500072206572666F6C67726569636820696E64
:10296000697469616C6973696572742100416E6193
:102970006C6F672D4469676974616C2D57616E6473
:102980006C6572206572666F6C677265696368203A
:10299000696E697469616C69736965727421004656
:1029A00065686C657220696E206465722046756E7C
:1029B0006B74696F6E3A205F707375414443496E62
:1029C0006974004665686C657220696E2064657282
:1029D0002046756E6B74696F6E3A205F7073754137
:1029E0004443496E6974004B6F6E74616B74696522
:1029F00072656E205369652064696520456C656B5E
:102A000074726F6E696B2D41627465696C756E6767
:102A10002E004B6F6E74616B74696572656E205326
:102A200069652064696520456C656B74726F6E69B9
:102A30006B2D41627465696C756E672E0046656822
:102A40006C6572206265696D20496E697469616C9C
:102A50006973696572656E206465732041444373D0
:102A600021004665686C6572206265696D20496E5B
:102A7000697469616C6973696572656E20646573F8
:102A800020414443732100496E697469616C697324
:102A9000696572652064656E20416E616C6F672D9B
:102AA0004469676974616C2D57616E646C65722E40
:102AB0002E2E00496E697469616C6973696572656F
:102AC0002064656E20416E616C6F672D4469676993
:102AD00074616C2D57616E646C65722E2E2E0045EC
:102AE00076656E7475656C6C206B65696E652033F8
:102AF0003656205370656973756E673F204269745E
:102B0000746520FC6265727072FC66656E2100451A
:102B100076656E7475656C6C206B65696E652033C7
:102B20003656205370656973756E673F204269742D
:102B3000746520FC6265727072FC66656E210045EA
:102B400072726F72636F6465733A20256325632523
:102B50006325632025632563256325630045727221
:102B60006F72636F6465733A20256325632563255F
:102B70006320256325632563256300446961676ECF
:102B80006F7365636F6465733A20256325632563FE
:102B900025632025632563256325630044696167F8
:102BA0006E6F7365636F6465733A202563256325D3
:102BB000632563202563256325632563003336562B
:102BC0002041757367616E6720696E697469616C15
:102BD00069736965727421204C6573652053746153
:102BE000747573206175733A0033365620417573DE
:102BF00067616E6720696E697469616C6973696584
:102C0000727421204C657365205374617475732050
:102C10006175733A004665686C657220696E206460
:102C200065722046756E6B74696F6E3A205F7073C3
:102C300075333656494F696E6974203100466568B0
:102C40006C657220696E206465722046756E6B74C7
:102C5000696F6E3A205F707375333656494F696EEF
:102C600069742031004B6F6E74616B7469657265B5
:102C70006E205369652064696520456C656B7472CC
:102C80006F6E696B2D41627465696C756E672E009D
:102C90004B6F6E74616B74696572656E2053696504
:102CA0002064696520456C656B74726F6E696B2D6D
:102CB00041627465696C756E672E004665686C6567
:102CC00072206265696D20496E697469616C69730F
:102CD000696572656E2064657320333656204175D0
:102CE0007367616E677321004665686C6572206268
:102CF00065696D20496E697469616C697369657293
:102D0000656E2064657320333656204175736761A4
:102D10006E67732100496E697469616C69736965D6
:102D200072652064656E2033365620646967697465
:102D3000616C656E2041757367616E672E2E2E0083
:102D4000496E697469616C6973696572652064654F
:102D50006E20333656206469676974616C656E2035
:102D600041757367616E672E2E2E004665686C652F
:102D700072636F6465733A203078253034580046AA
:102D800065686C6572636F6465733A2030782530CE
:102D900034580045696E67616E673A202563256384
:102DA0002563256320256325632563256320466508
:102DB000686C65723A2030782530325820004569B9
:102DC0006E67616E673A202563256325632563205E
:102DD0002563256325632563204665686C65723A23
:102DE0002030782530325820003336562045696E21
:102DF00067616E6720696E697469616C6973696582
:102E0000727421204C65736520537461747573204E
:102E10006175733A003336562045696E67616E6797
:102E200020696E697469616C6973696572742120C7
:102E30004C65736520537461747573206175733AC2
:102E4000004665686C657220696E20646572204674
:102E5000756E6B74696F6E3A205F7073753336569A
:102E6000494F696E69742030004665686C65722050
:102E7000696E206465722046756E6B74696F6E3A78
:102E8000205F707375333656494F696E6974203010
:102E9000004B6F6E74616B74696572656E20536967
:102EA000652064696520456C656B74726F6E696B33
:102EB0002D41627465696C756E672E004B6F6E7480
:102EC000616B74696572656E20536965206469651C
:102ED00020456C656B74726F6E696B2D4162746511
:102EE000696C756E672E004665686C657220626558
:102EF000696D20496E697469616C69736965726591
:102F00006E20646573203336562045696E67616EA6
:102F1000677321004665686C6572206265696D2083
:102F2000496E697469616C6973696572656E206464
:102F30006573203336562045696E67616E6773216D
:102F400000496E697469616C6973696572652064B2
:102F5000656E20333656206469676974616C656EEE
:102F60002045696E67616E672E2E2E00496E69746A
:102F700069616C6973696572652064656E203336BA
:102F800056206469676974616C656E2045696E6777
:102F9000616E672E2E2E00506F72746572776569B0
:102FA000746572756E6720696E697469616C6973A6
:102FB000696572742100506F727465727765697407
:102FC0006572756E6720696E697469616C69736991
:102FD00065727421004665686C657220696E2064B4
:102FE00065722046756E6B74696F6E3A205F707300
:102FF000755F706F72744578496E697400466568D4
:103000006C657220696E206465722046756E6B7403
:10301000696F6E3A205F7073755F706F7274457878
:10302000496E6974004B6F6E74616B74696572658B
:103030006E205369652064696520456C656B747208
:103040006F6E696B2D41627465696C756E672E00D9
:103050004B6F6E74616B74696572656E2053696540
:103060002064696520456C656B74726F6E696B2DA9
:1030700041627465696C756E672E004665686C65A3
:1030800072206265696D20496E697469616C69734B
:10309000696572656E2064657220506F7274657226
:1030A000776569746572756E6721004665686C6541
:1030B00072206265696D20496E697469616C69731B
:1030C000696572656E2064657220506F72746572F6
:1030D000776569746572756E672100496E697469F8
:1030E000616C6973696572652064696520506F72EF
:1030F000746572776569746572756E672E2E2E0021
:10310000496E697469616C69736965726520646987
:103110006520506F72746572776569746572756E3B
:10312000672E2E2E0050535520492F4F204665689C
:103130006C6572636F6465202575206265696D201A
:1031400041756672756620646573206C65747A7467
:10315000656E2042656665686C73210033365620C3
:1031600046757365207475726E6564206F66660DB2
:103170000A006F6666003336562046757365207404
:1031800075726E6564206F6E0D0A006F6E00437578
:103190007272656E74206D6561737572656D656EB2
:1031A00074206F662074686520667573653A202503
:1031B00075206D410D0A0046757365206F6E2F6F87
:1031C00066663A2025732020506F77657220676FFE
:1031D0006F642F6261643A20257320204675736501
:1031E000204661756C743A2025730D0A0073746172
:1031F0007475730078667573650043757272656ED9
:1032000074206D6561737572656D656E74206F668F
:103210002074686520667573653A202575206D41B8
:103220000D0A004E6F2073746174757320666F729F
:10323000207468697320667573650D0A0073746184
:10324000747573006C66757365003132562046756F
:103250007365207475726E6564206F66660D0A0072
:103260006F6666003132562046757365207475723C
:103270006E6564206F6E0D0A006F6E00437572728A
:10328000656E74206D6561737572656D656E742011
:103290006F662074686520667573653A2025752011
:1032A0006D410D0A0046757365206F6E2F6F66665F
:1032B0003A2025732020506F77657220676F6F6406
:1032C0002F6261643A2025730D0A0073746174756E
:1032D00073006D66757365004F4B0D0A0056616C87
:1032E00075652068617320746F2066697420696E4B
:1032F00020382062697473202830202D2032353523
:1033000029210D0A0056616C75652068617320746F
:103310006F2066697420696E20382062697473209A
:103320002830202D2032353529210D0A006F706F8D
:103330006B65004F4B0D0A0056616C756520686126
:103340007320746F2066697420696E20382062696A
:103350007473202830202D2032353529210D0A00A4
:1033600056616C75652068617320746F206669749E
:1033700020696E20382062697473202830202D2047
:1033800032353529210D0A0069706F6B65004F7564
:103390007470757420526567697374657220283083
:1033A0007825303258292076616C75653A2025637E
:1033B0002563256325632025632563256325632015
:1033C00028307825303258290D0A00526567697314
:1033D00074657220416464726573732028256929BD
:1033E000206973206E6F742076616C6964210D0A08
:1033F000006F7065656B00496E707574205265676B
:103400006973746572202830782530325829207607
:10341000616C75653A202563256325632563202546
:1034200063256325632563202830782530325829A9
:103430000D0A005265676973746572204164647295
:103440006573732028256929206973206E6F7420A5
:1034500076616C6964210D0A00697065656B004FC7
:1034600075747075742056616C75653A20256325F6
:103470006325632563202563256325632563202851
:10348000307825303258290D0A006F676574004F77
:1034900075747075742070696E202575207475724E
:1034A0006E6564206F66660D0A004F7574707574E2
:1034B0002050696E2028256929206973206E6F7459
:1034C0002076616C6964202831202D203829210D57
:1034D0000A00636C656172004F75747075742070BA
:1034E000696E202575207475726E6564206F6E0D8F
:1034F0000A004F75747075742050696E2028256914
:1035000029206973206E6F742076616C69642028AD
:1035100031202D203829210D0A00736574003336BF
:103520005620537570706C79206D697373696E677E
:10353000210D0A00496E70757420506F7274204618
:1035400061756C742052656769737465723A2025E1
:103550006325632563256320256325632563256330
:1035600020202563256325632563202563256325A6
:103570006325632028307825303458290D0A004F00
:10358000757470757420506F727420446961676E31
:103590006F7374696320466565646261636B3A208A
:1035A000256325632563256320256325632563251E
:1035B000632028307825303258290D0A004F757461
:1035C00070757420506F727420476C6F62616C204C
:1035D0004661756C742052656769737465723A2030
:1035E00025632563256325632025632563256325DE
:1035F000632028307825303258290D0A0073746111
:1036000074757300496E7075742056616C75653AF7
:1036100020256325632563256320256325632563B2
:1036200025632028307825303258290D0A00676537
:103630007400696F001B5B316D1B5B346D5053551B
:1036400020436F6E74726F6C202620537461747502
:103650007320436F6D6D616E6420417267756D6597
:103660006E74733A1B5B306D0D0A547970652027B8
:103670007073752720616E64206F6E65206F662001
:1036800074686520666F6C6C6F77696E6720617215
:1036900067756D656E74733A0D0A68656C702020ED
:1036A000202020202020202020202020446973700A
:1036B0006C617920746869732068656C7020616E34
:1036C0006420696E666F20706167650D0A1B5B314F
:1036D0006D33365620496E2D202F204F757470752E
:1036E0007420436F6E74726F6C3A1B5B306D0D0A01
:1036F000696F206765742020202020202020202052
:1037000020205265616420696E207468652073749E
:10371000617465206F6620746865206569676874E8
:103720002033365620496E707574730D0A696F2008
:103730007374617475732020202020202020205273
:1037400065616420696E20746865207374617475A6
:103750007320616E64206572726F7273206F6620D1
:103760007468652033365620492F4F730D0A696FF0
:1037700020736574203C6E3E2020202020202020D5
:1037800053657420746865206E2D50696E20283151
:1037900020746F20382920746F2048494748206FD3
:1037A000662074686520333656204F7574707574C2
:1037B0000D0A696F20636C656172203C6E3E2020AB
:1037C00020202020436C65617220746865206E2D76
:1037D00050494E20283120746F20382920746F20E2
:1037E0004C4F57206F662074686520333656204F43
:1037F00075747075740D0A696F206F676574202089
:103800002020202020202020205265616420696E25
:1038100020746865207374617465206F6620746815
:103820006520656967687420333656204F7574705B
:103830007574730D0A696F20697065656B203C6E45
:103840003E202020202020526561647320696E2074
:1038500074686520726567697374657220636F6E42
:1038600074656E7473206F662074686520696E706D
:1038700075742061742061646472657373206E0DC9
:103880000A696F2069706F6B65203C6E3E203C7644
:103890003E202057726974657320746865207661D4
:1038A0006C7565207620696E207468652072656786
:1038B0006973746572206E206F66207468652033AA
:1038C000365620496E7075740D0A696F206F7065E9
:1038D000656B203C6E3E20202020202052656164D4
:1038E0007320696E207468652072656769737465FA
:1038F0007220636F6E74656E7473206F66207468D7
:1039000065206F75747075742061742061646472D1
:10391000657373206E0D0A696F206F706F6B652081
:103920003C6E3E203C763E202057726974657320C1
:103930007468652076616C7565207620696E2074E8
:103940006865207265676973746572206E206F66A2
:103950002074686520333656204F75747075740D69
:103960000A1B5B316D537570706C79205261696C04
:103970007320652D4675736520436F6E74726F6C8E
:103980003A1B5B306D0D0A6D66757365207374614B
:103990007475732020202020205265616420696E98
:1039A0002074686520737461747573206F66207469
:1039B00068652031325620706F77657220726169B8
:1039C0006C20652D467573650D0A6D6675736520EF
:1039D0006F6E202020202020202020205475726E21
:1039E000206F6E2074686520652D467573652074A0
:1039F0006F206F75747075742031325620746F208B
:103A0000746865206275730D0A6D66757365206F45
:103A100066662020202020202020205475726E20F1
:103A20006F66662074686520652D46757365207421
:103A30006F206E6F74206F757470757420313256FC
:103A400020746F20746865206275730D0A6C66754A
:103A500073652073746174757320202020202052B8
:103A600065616420696E2074686520637572726593
:103A70006E7420636F6E73756D7074696F20286D3E
:103A80004129206F6620746865203132562D3E35FD
:103A9000562F332E3356207261696C0D0A78667585
:103AA0007365207374617475732020202020205268
:103AB00065616420696E2074686520637572726543
:103AC0006E7420636F6E73756D7074696F6E2028ED
:103AD0006D4129206F66207468652033365620704A
:103AE0006F776572207261696C0D0A78667573650F
:103AF000206F6E202020202020202020205475724E
:103B00006E206F6E2074686520652D467573652084
:103B1000746F206F7574707574203336560D0A7883
:103B200066757365206F6666202020202020202087
:103B3000205475726E206F66662074686520652D4E
:103B40004675736520746F206E6F74206F75747086
:103B50007574203336560D0A003F0068656C70009E
:103B60005370616E6E756E6773766572736F726790
:103B7000756E67732D506C6174696E652065726631
:103B80006F6C67726569636820696E697469616CDE
:103B900069736965727421005370616E6E756E672A
:103BA00073766572736F7267756E67732D506C6193
:103BB00074696E65206572666F6C677265696368AB
:103BC00020696E697469616C69736965727421003A
:103BD000426F6172642D416472657373653A20307F
:103BE000782530325800426F6172642D41647265ED
:103BF0007373653A2030782530325800496E697405
:103C000069616C69736965726520646965205370C8
:103C1000616E6E756E6773766572736F7267756EBF
:103C200067732D506C6174696E652E2E2E00496E7F
:103C3000697469616C69736965726520646965207E
:103C40005370616E6E756E6773766572736F7267AF
:103C5000756E67732D506C6174696E652E2E2E0023
:103C60000D0A00436F6E74726F6C20616E64206D7C
:103C70006F6E69746F722074686520706F776572FB
:103C8000737570706C792063617264007073750075
:103C90004C65667420756E746F7563686564206D1D
:103CA000656D6F72793A2025642042797465730DD1
:103CB0000A00582D4D6F64656D20726563656976E5
:103CC00065206D6F64756C650D0A55736167653AA3
:103CD0000D0A207278203C66696C656E616D652EF8
:103CE000666F6F3E2020202D2041637469766174D9
:103CF00065732074686520582D4D6F64656D207262
:103D00006563656976657220616E642073617665AE
:103D100073206974206F6E2074686520666C61730F
:103D20006820636869700D0A0046696C65207361DC
:103D30007665642061742025730D0A0046696C6500
:103D4000207265636569766564210D0A256C7520AE
:103D50004279746573207772697474656E20696E38
:103D600020256C75207365636F6E6473202D20258C
:103D70006C7520422F730D0A000D0A526563656948
:103D800076696E67206661696C656420776974681E
:103D9000206572726F7220636F64652025640D0A5E
:103DA0000053746172742074686520582D4D6F64DF
:103DB000656D2053656E646572206E6F772E2E2EB2
:103DC0000D0A004269746D617020446973706C6102
:103DD00079205465737465720D0A55736167653A8D
:103DE0000D0A20626D70203C783E203C793E203CDC
:103DF000696D6167652E626D703E2020202D204424
:103E00006973706C61792061204269746D61702002
:103E1000496D61676520617420706F736974696FA3
:103E20006E20782F790D0A00496D616765206C6FEF
:103E30006164656420696E20256C75206D696C6C09
:103E4000697365636F6E6473210D0A00436F6F724F
:103E500064696E6174657320746F6F206C61726742
:103E600065210D0A0064756D70006572617365648B
:103E7000210D0A0045726173696E6720636869707D
:103E80002E2E2E0065726173650073686F7700498E
:103E90006D61676520666C617368656420696E207A
:103EA000256C75206D696C6C697365636F6E6473E6
:103EB000210D0A00666C6173680049737375696E41
:103EC0006720736F667477617265207265736574BD
:103ED0002E2E2E0D0A0D0A005254432F54696D6583
:103EE000204D6F64756C650D0A417267756D656E66
:103EF00074733A0D0A20676574202020202020204A
:103F000020202020202020202020202020202020B1
:103F10002D20476574207468652063757272656E24
:103F2000742074696D65206F662074686520525432
:103F300043206D6F64756C650D0A20736574203CB9
:103F400048483A4D4D3A53532044442E4D4D2E5936
:103F50005959593E202D205365742074686520748A
:103F6000696D65206F662074686520525443206D2A
:103F70006F64756C650D0A000D0A00676574007347
:103F800065740020201B5B376D0020202000202559
:103F900030325800253038583A00556E6B6E6F77C6
:103FA0006E20636F6D6D616E64210D0A54797065CA
:103FB00020276661746673203F2720746F20736822
:103FC0006F772074686520636F6D6D616E64730D2B
:103FD0000A001B5B316D5B4469736B20636F6E7409
:103FE000726F6C735D1B5B306D0D0A206464205B27
:103FF0003C7064233E203C736563743E5D2020204A
:1040000020202020202D2044756D702061207365B4
:1040100063746F720D0A206473203C7064233E2029
:104020002020202020202020202020202020202090
:104030002D2053686F77206469736B2073746174EB
:1040400075730D0A20646373203C7064233E202046
:1040500020202020202020202020202020202D2053
:10406000696F63746C284354524C5F53594E432913
:104070000D0A1B5B316D5B42756666657220436F8E
:104080006E74726F6C735D1B5B306D0D0A20626421
:10409000203C6F66733E20202020202020202020FE
:1040A000202020202020202D2044756D7020776F47
:1040B000726B696E67206275666665720D0A2062B2
:1040C00065203C6F66733E205B3C646174613E5DBD
:1040D000202E2E2E202020202D204564697420774C
:1040E0006F726B696E67206275666665720D0A2075
:1040F0006272203C7064233E203C736563743E20F2
:104100005B3C6E756D3E5D20202D20526561642004
:104110006469736B20696E746F20776F726B696E60
:1041200067206275666665720D0A206277203C70B2
:1041300064233E203C736563743E205B3C6E756D6A
:104140003E5D20202D20577269746520776F726B59
:10415000696E672062756666657220696E746F208D
:104160006469736B0D0A206266203C76616C3E20A8
:10417000202020202020202020202020202020203F
:104180002D2046696C6C20776F726B696E672062B8
:1041900075666665720D0A1B5B316D5B46696C6501
:1041A000737973656D20636F6E74726F6C735D1BD2
:1041B0005B306D0D0A206669203C6C64233E205BF9
:1041C0003C6D6F756E743E5D202020202020202DD8
:1041D00020466F72636520696E697469616C697AE3
:1041E000652074686520766F6C756D652F647269E3
:1041F00076650D0A206673205B3C706174683E5DD5
:1042000020202020202020202020202020202D20A1
:1042100053686F7720766F6C756D65207374617469
:1042200075730D0A20666C205B3C706174683E5D9E
:1042300020202020202020202020202020202D2071
:1042400053686F772061206469726563746F727957
:104250000D0A20666F203C6D6F64653E203C6669E8
:104260006C653E2020202020202020202D204F7013
:10427000656E20612066696C650D0A2066632020EA
:10428000202020202020202020202020202020202E
:1042900020202020202D20436C6F736520746865DA
:1042A0002066696C650D0A206665205B3C6F66734D
:1042B0003E5D2020202020202020202020202020A3
:1042C000202D204D6F766520667020696E206E6F00
:1042D000726D616C207365656B206F7220726574FE
:1042E00075726E732069740D0A206664203C6C65DB
:1042F0006E3E202020202020202020202020202052
:104300002020202D205265616420616E6420647538
:104310006D70207468652066696C650D0A2066778B
:10432000203C76616C75653E205B76616C75652E10
:104330002E2E5D202020202D205772697465732059
:104340006120427974652074686520736574206605
:10435000696C6520706F696E7465720D0A206670F5
:10436000203C616464723E203C76616C75653E2041
:10437000202020202020202D205772697465732072
:1043800061204279746520617420746865207361CE
:10439000696420706F736974696F6E20696E746FE1
:1043A000207468652066696C650D0A206676202099
:1043B00020202020202020202020202020202020FD
:1043C00020202020202D205472756E63617465209A
:1043D0007468652066696C6520617420637572720B
:1043E000656E742066700D0A20666E203C6F675FF4
:1043F0006E616D653E203C6E65775F6E616D653EFA
:1044000020202D2052656E616D6520616E206F62E7
:104410006A6563740D0A206675203C6F626A5F6E80
:10442000616D653E2020202020202020202020209B
:104430002D20556E6C696E6B20616E206F626A650F
:1044400063740D0A20666B203C646972206E616D96
:10445000653E2020202020202020202020202D20EC
:104460004372656174652061206469726563746F6D
:1044700072790D0A206678203C7372632066696C3D
:10448000653E203C6473742066696C653E202D2077
:10449000436F707920612066696C650D0A20666241
:1044A000203C6E616D653E202020202020202020B1
:1044B000202020202020202D2053657420766F6C32
:1044C000756D65206C6162656C0D0A20666F726D9A
:1044D000617420756E6C6F636B202020202020207B
:1044E00020202020202D20556E6C6F636B7320746C
:1044F0006865206162696C69747920746F20666FE9
:10450000726D6174202F2063726561746520666925
:104510006C6573797374656D0D0A20666D203C6C53
:1045200064233E205B3C667320747970653E205B9B
:104530003C61755F73697A653E205B3C616C6967BD
:104540006E3E205B3C6E5F666174733E205B3C6E2A
:104550005F726F6F743E5D5D5D5D5D0D0A202020B2
:10456000202020202020202020202020202020204B
:10457000202020202020202020202020202020203B
:1045800020202020202D20466F726D617420766FD0
:104590006C756D6520616E64206372656174652061
:1045A00066696C6573797374656D0D0A005468658E
:1045B0002064726976652025752077696C6C2062AD
:1045C0006520666F726D61747465642E2E2E0025F1
:1045D0006C7520427974657320636F70696564201F
:1045E000617420256C752042797465732F5365635F
:1045F0002E0D0A00436F7079696E672E2E2E0D0AFC
:10460000004372656174696E6720222573220D0A6A
:10461000004F70656E696E6720222573220D0A00B7
:10462000202D20427974652030782530325820774B
:1046300072697474656E2C2066707472206E6F7768
:1046400020617420256C75283078253158290D0A91
:1046500000202D204D656D6F72792066756C6C3F62
:104660000D0A00202D20256C752042797465732079
:104670007772697474656E2C2066707472206E6F28
:104680007720617420256C752830782558290D0A0B
:1046900000202D204D656D6F72792066756C6C3F22
:1046A0000D0A0066707472203D20256C75283078E4
:1046B0002558290D0A00202D2066707472203D2097
:1046C000256C752830782558290D0A002C202536B0
:1046D000754B694220667265650D0A0025347520A8
:1046E00046696C652873292C2025366C754B694208
:1046F00020746F74616C0D0A25347520446972282A
:1047000073290025632563256325632563202575AB
:104710002F253032752F2530327520253032753AED
:10472000253032752025396C75202025730D0A003F
:10473000256C75204B694220746F74616C2064692C
:10474000736B2073706163652E0D0A256C75204BA9
:10475000694220617661696C61626C652E0D0A00A8
:104760000D25752066696C65732C20256C7520629B
:10477000797465732E0D0A257520666F6C646572F9
:10478000730D0A002E2E2E00566F6C756D6520532A
:104790002F4E20697320253034582D253034580D84
:1047A0000A004E6F20766F6C756D65206C616265D6
:1047B0006C0D0A00566F6C756D65206E616D65201D
:1047C00069732025730D0A00464154207374617289
:1047D0007420286C626129203D20256C750D0A44E7
:1047E000495220737461727420286C62612C2063BA
:1047F0006C757374657229203D20256C750D0A4413
:1048000061746120737461727420286C6261292064
:104810003D20256C750D0A00536563746F72732F0C
:10482000464154203D20256C750D0A4E756D62651C
:1048300072206F6620636C757374657273203D20FF
:10484000256C750D0A566F6C756D652073746172F9
:104850007420286C626129203D20256C750D0A00AA
:104860000D0A42797465732F436C757374657220F9
:104870003D20256C750D0A4E756D626572206F6660
:104880002046415473203D2025750D0A526F6F74E8
:104890002044495220656E7472696573203D20255D
:1048A000750D0A004641542074797065203D200042
:1048B00072633D25640D0A0072633D25640D0A0094
:1048C00072633D25640D0A00457261736520626C58
:1048D0006F636B3A20256C7520736563746F727318
:1048E0000D0A0044726976652073697A653A20255D
:1048F0006C7520736563746F72730D0A0053656382
:10490000746F723A20256C750D0A0072633D256440
:104910000D0A005479706520276661746673203F24
:104920002720746F2073686F772074686520636F29
:104930006D6D616E64730D0A000D0A456E747769C2
:10494000636B656C7420766F6E2050617363616C6D
:1049500020476573656C6C2C204D617474657268BA
:104960006F726E20476F7474686172642042616870
:104970006E202832303231290D0A004275696C648C
:104980002D5A6569743A2031333A32313A32332044
:104990002D2041707220323520323032320044698D
:1049A000706C6F6D6172626569742050726F746FA4
:1049B000747970202F205465737461756662617517
:1049C0000D0A0052657374617274732074686520F7
:1049D0006D6963726F636F6E74726F6C6C65720079
:1049E0007265736574004C6F616420616E64206D44
:1049F000616E6167652066696C65732066726F6DB4
:104A00002074686520646973706C617920666C61DC
:104A10007368206D656D6F727900646973706C6185
:104A200079004C6F616420424D502066726F6D209A
:104A30006D656D6F727920746F20646973706C613D
:104A40007900626D700052656365697665207573E3
:104A5000696E672074686520582D4D6F64656D2000
:104A600050726F746F636F6C0072780047657420CA
:104A700075736564205352414D206D656D6F727979
:104A8000006D656D00525443202F2054696D6520E0
:104A9000436F6D6D616E64007274630046617446AD
:104AA00073204D6F64756C652054657374204D6F71
:104AB0006E69746F7200666174667300496E666F2A
:104AC000726D6174696F6E2061626F7574207468B5
:104AD00069732064657669636500696E666F0006B8
:104AE0004B00004B00FA4A00F44A00EE4A00657899
:104AF0004641540046415433320046415431360059
:104B000046415431320000214C00184C00104C003A
:104B1000064C00FE4B00F64B00E94B00E24B00DC7C
:104B20004B00CD4B00BD4B00AF4B00A34B00954B52
:104B300000884B00804B00794B00694B00554B00BF
:104B4000434B00494E56414C49445F504152414D00
:104B50004554455200544F4F5F4D414E595F4F50A1
:104B6000454E5F46494C4553004E4F545F454E4FAE
:104B70005547485F434F5245004C4F434B45440017
:104B800054494D454F5554004D4B46535F41424F9C
:104B900052544544004E4F5F46494C455359535477
:104BA000454D004E4F545F454E41424C45440049EF
:104BB0004E56414C49445F4452495645005752496C
:104BC00054455F50524F54454354454400494E5656
:104BD000414C49445F4F424A45435400455849536C
:104BE000540044454E49454400494E56414C4944C1
:104BF0005F4E414D45004E4F5F50415448004E4F6F
:104C00005F46494C45004E4F545F52454144590060
:104C1000494E545F455252004449534B5F455252EE
:104C2000004F4B0000000000442420FD00F800F875
:104C3000654C005E4C00574C00504C00494C004203
:104C40004C00464154414C21004645484C455200D9
:104C5000205741524E200020204F4B202000204959
:104C60004E464F2000202020202020000D0A000D5D
:104C70000A1B5B316D677368656C6C3E201B5B3093
:104C80006D005B2530396C755D20001B5B306D3A23
:104C90000D0A000D1B5B316D000D0A001B5B306DB2
:104CA0003A0D0A2020202020000D1B5B316D001BD7
:104CB0005B306D3A0D0A000D1B5B316D000D0A0073
:104CC0001B5B306D3A0D0A2020202020000D1B5B5D
:104CD000316D000D0A1B5B316D677368656C6C3E4E
:104CE000201B5B306D000D0A0A000D0A1B5B316D45
:104CF000677368656C6C3E201B5B306D000D0A5459
:104D0000797065202768656C702720746F206C6946
:104D1000737420616C6C20617661696C61626C6592
:104D200020636F6D6D616E64730D0A000D0A547916
:104D30007065202768656C702720746F206C69731C
:104D40007420616C6C20617661696C61626C6520B5
:104D5000636F6D6D616E64730D0A00556E6B6E6FDF
:104D6000776E20636F6D6D616E643A2000014E00B6
:104D7000EF4D00D44D00B94D009E4D007F4D005BBE
:104D80001B5B316D1B5B356D1B5B33316D50414ED1
:104D90004943211B5B306D1B5B306D5D20005B1B4D
:104DA0005B316D1B5B33316D4552524F52211B5BA2
:104DB000306D1B5B306D5D20005B1B5B316D1B5BE1
:104DC00033336D205741524E201B5B306D1B5B30DF
:104DD0006D5D20005B1B5B316D1B5B33326D2020F2
:104DE0004F4B20201B5B306D1B5B306D5D20005BEB
:104DF0001B5B316D20494E464F201B5B306D5D20A3
:104E0000005B2020202020205D20004C69737473FB
:104E100020616C6C20617661696C61626C652063F5
:104E20006F6D6D616E64730068656C7000000000EA
:104E30001505400555A800A815AD40AD5552AA521C
:104E4000BF57EA57FFFAAAFABFFFEAFFFF416C6CAF
:104E50002064617461207772697474656E206F6E6E
:104E6000746F2053504920666C61736800256C751F
:104E7000204279746573207772697474656E00538B
:104E800074617274696E6720746F20666C617368F8
:104E900020535049206D656D6F72792E2E2E004281
:104EA000696C64204C6164656665686C657221009C
:104EB0004665686C6572206265696D20D666666EAF
:104EC000656E206465722044617465692120436FBA
:104ED00064652025640D0A506661643A20257300DC
:104EE0004C616465204461746569202573004269E2
:104EF0006C64204F4B21205A65696C656E6772F6B1
:104F00007373653A20256C752042004F66667365A1
:104F1000743A20256C75204250503A202575204B5C
:104F20006F6D7072657373696F6E3A2025750042FC
:104F300072656974653A20256C752048F668653A93
:104F400020256C640044617465696772F67373654B
:104F50003A20256C7520422C2042696C646772F6F9
:104F60007373653A20256C752042004C616465209E
:104F700042696C642E2E2E00AAAAAAAAAAAAAAAADC
:104F8000AAAAAAAAAAAAAAAA96AAAAAAAAAAAAAA95
:104F9000916AAAAAAAAAAAAAA415AAAAAAAAAAAA65
:104FA000A4006AAAAAAAAAAAA9011AAAAAAAAAAA8B
:104FB000A90046AAAAAAAAAAAA4051AAAAAAAAAA23
:104FC000AA90146AAAAAAAAAAAA4051AAAAAAAAA6C
:104FD000AAA90146AAAAAAAAAAAA4051AAAAAAAA02
:104FE000AAAA90146AAAAAAAAAAAA4051AAAAAAA4C
:104FF000AAAAA90146AAAAAAAAAAAA4051AAAAAAE2
:10500000AAAAAA901469AAAAAAAAAAA401146AAA76
:10501000AAAAAAA900441AAAAAAAAAAA401106AA38
:10502000AAAAAAAA900441AAAAAAAAAAA401106A92
:10503000AAAAAAAAA900441AAAAAAAAAAA40111A04
:10504000AAAAAAAAAA90041AAAAAAAAAAAA4011A4F
:10505000AAAAAAAAAAA9001AAAAAAAAAAAAA406A95
:10506000AAAAAAAAAAAA95AAAAAAAAAAAAAAAAAAB5
:10507000AAAAAAAAAAAAAAAAAAAAAAAAAAAAAAAA90
:105080006AAAAAAAAAAAAAAA5AAAAAAAAAAAAAAA10
:1050900046AAAAAAAAAAAAAA41AAAAAAAAAAAAAA3D
:1050A000406AAAAAAAAAAAAA401AAAAAAAAAAAAA04
:1050B0004006AAAAAAAAAAAA4001AAAAAAAAAAAA71
:1050C00040006AAAAAAAAAAA40001AAAAAAAAAAA38
:1050D000400006AAAAAAAAAA400001AAAAAAAAAAA5
:1050E0004000006AAAAAAAAA4000001AAAAAAAAA6C
:1050F00040000006AAAAAAAA40000001AAAAAAAAD9
:10510000400000006AAAAAAA400015555AAAAAAAF5
:1051100040101AAAAAAAAAAA406406AAAAAAAAAAD7
:1051200041A406AAAAAAAAAA46A901AAAAAAAAAA00
:105130005AA901AAAAAAAAAA6AAA406AAAAAAAAAB3
:10514000AAAA406AAAAAAAAAAAAA901AAAAAAAAA13
:10515000AAAA901AAAAAAAAAAAAAA406AAAAAAAA03
:10516000AAAAA406AAAAAAAAAAAAA95AAAAAAAAA9A
:10517000AAAAAAAAAAAAAAAAAAAAAAAAAAAAAAAA8F
:10518000AAAAAAAAAAAAAAAAAAAAAAAAAAAAAAAA7F
:10519000AAAAAA9555AAAAAAAAAAA940005AAAAA3E
:1051A000AAAA94000005AAAAAAAA400000006AAA16
:1051B000AAA9001555001AAAAAA4006AAA5006AA0C
:1051C000AAA4006AAAA406AAAA90001AAAA901AAD7
:1051D000AA901006AAA901AAAA406401AAAA406A34
:1051E000AA4069006AAA406AAA406A401AAA406AAC
:1051F000AA406A9006AA406AAA406AA401AA406A24
:10520000AA406AA9006A406AAA406AAA401A406A8B
:10521000AA901AAA900501AAAA901AAAA40001AA03
:10522000AAA406AAA90006AAAAA4016AAA4006AAD4
:10523000AAA9001555001AAAAAAA400000006AAA45
:10524000AAAA94000005AAAAAAAAA940005AAAAA32
:10525000AAAAAA9555AAAAAAAAAAAAAAAAAAAAAA18
:10526000AAAAAAAAAAAAAAAAAAAAAAAAAAAAAAAA9E
:10527000AAAAAAAAAAAAAAAAAAAAAAAAAAAAAAAA8E
:10528000AAAAAAAAAAAAAAAAAAAAAAAAAAAAAAAA7E
:10529000AAAA555555556AAAAAAA540000056AAA91
:1052A000AAAA555555556AAAAAAA94000005AAAA01
:1052B000AAAA94000005AAAAAAAA94444445AAAAA4
:1052C000AAAA94111105AAAAAAAA95044415AAAAE1
:1052D000AAAAA5411056AAAAAAAAA950415AAAAA9E
:1052E000AAAAAA54056AAAAAAAAAAA9405AAAAAA14
:1052F000AAAAAA9405AAAAAAAAAAAA9445AAAAAA44
:10530000AAAAAA9405AAAAAAAAAAAA50016AAAAAFB
:10531000AAAAA940405AAAAAAAAAA5001016AAAAEF
:10532000AAAA94000005AAAAAAAA94044405AAAAB3
:10533000AAAA94111105AAAAAAAA94444445AAAA01
:10534000AAAA95111115AAAAAAAA555555556AAA2D
:10535000AAAA540000056AAAAAAA555555556AAAD0
:10536000AAAAAAAAAAAAAAAAAAAAAAAAAAAAAAAA9D
:10537000AAAAAAAAAAAAAAAA804763000458020A4B
:105380003D000108280F5032030500000000000016
:105390000017191D14902F892325D3070000000240
:1053A000031D0000000000000000000000193294FE
:1053B000D50207000004A21A00901E00802300738B
:1053C0002800682E006800000000000000000000B7
:1053D00000000000000000000000000000000000CD
:1053E0000000000000000000000016151411100F4E
:1053F0000E0D0C0908070605040100FFFFFF000061
:105400000000000000000000292827262524232270
:1054100021201F1E1C1B1914131211100F0E0D0C2E
:105420000A080706040200FF000000000000000058
:1054300000007101000000000000000000000000FA
:10544000000000000000000000000000000000005C
:10545000000000000000000000000000000000004C
:10546000000000000000000000000000000000003C
:10547000000000000000000000000000000000002C
:10548000000000000000000000000000000000001C
:10549000000000000000000000000000000000000C
:1054A00000000000000000000000000000000000FC
:1054B00000000000000000000000000000000000EC
:1054C00000000000000000000000000000007E005E
:1054D000C0FF03E0810770000E38001C1C00388CF0
:1054E000C3318EC37186C36106006006006066002A
:1054F00066460062CE00738C81311CFF38387E1CFA
:1055000070000EE08107C0FF03007E000000000075
:10551000000000000000000000000000000000008B
:10552000000000000000000000000000000000007B
:10553000000000000000000000000000000000006B
:105540000000000000007E00C0FF03E0FF07F0FF46
:105550000FF8FF1FFCFF3F7C3C3E7E3C7E7E3C7E86
:10556000FEFF7FFEFF7F9EFF79BEFF7D3EFF7C7CBE
:105570007E3EFC003FF8811FF0FF0FE0FF07C0FFF9
:1055800003007E000000000000000000000000009A
:10559000000000000000000000000000000000000B
:1055A0000000000000F0000FFCC33FFCE73FFEE7F7
:1055B0007FFEFF7FFFFFFFFFFFFFFFFFFFFFFFFFFC
:1055C000FFFFFFFFFFFFFFFFFFFEFF7FFEFF7FFEEE
:1055D000FF7FFCFF3FFCFF3FF8FF1FF8FF1FF0FFBE
:1055E0000FF0FF0FE0FF07C0FF03C0FF0380FF01C4
:1055F00000FF00007E00003C0000180000000000DA
:10560000000000000000000000000000000000009A
:10561000000000000000000000000000000010007A
:10562000001000003800007C00007E0000FE00003A
:10563000FF0180FF01C0FF03E0FF07F0FF0FF8FF4D
:105640001FFCFF3FFEFF7FFFFFFFFEFF7FFCFF3FD2
:10565000F8FF1FF0FF0FE0FF07C0FF0380FF03000C
:10566000FF0100FE00007E00007C000038000018F2
:10567000000010000000000000000000000000001A
:10568000000000000000000000000000000000001A
:105690000000000000007E0000FF0080FF01C0FF4E
:1056A00003C0FF03C0FF03C0FF03C0FF0380FF016F
:1056B00080FF01F8FF1FFCFF3FFEFF7FFFFFFFFFA2
:1056C000FFFFFFFFFFFFFFFFFFFFFFFEDB7FFC99F8
:1056D0003FF83C1F003C00003C00003C00003C0048
:1056E000003C00007E00007E00007E000000000004
:1056F00000000000000000000000000000000000AA
:105700000000000000000000000000000000080091
:10571000001800001C00003E00007F0000FF008019
:10572000FF01C0FF01E0FF03F0FF07F8FF1FFCFFD0
:105730003FFCFF3FFEFF7FFFFFFFFFFFFFFFFFFF7D
:10574000FFFFFFFFFFFFFEDB7FFC993F783C1E0061
:105750003C00003C00003C00003C00007E00007E5D
:1057600000007E00000000000000000000000000BB
:105770000000000000000000000000000000000029
:105780000000000000000000000000000000000019
:105790000000000000000000000000000000000009
:1057A00000000000000000000000000000000000F9
:1057B00000000000000000000000000000000000E9
:1057C00000000000000000000000000000000000D9
:1057D00000000000000000000000000000000000C9
:1057E00000000000000000000000000000000000B9
:1057F00000000000000000000000000000000000A9
:105800000000000000000000000000000000000098
:105810000000000000000000000000000000000088
:105820000000000000000000000000000000000078
:105830000000000000000000000000000000000068
:105840000000000000000000000000000000000058
:105850000000000000000000000000000000000048
:105860000000000000000000000000000000000038
:105870000000000000000000000000000000000028
:105880000000000000000000000000000000000018
:105890000000000000000000000000000000000008
:1058A00000000000000000000000000000000000F8
:1058B00000000000000000000000000000000000E8
:1058C00000000000000000000000000000000000D8
:1058D00000000000000000000000000000000000C8
:1058E00000000000000000000000000000000000B8
:1058F00000000000000000000000000000000000A8
:105900000000000000000000000000000000000097
:105910000000000000000000000000000000000087
:105920000000000000000000000000000000000077
:105930000000000000000000000000000000000067
:105940000000000000000000000000000000000057
:105950000000000000000000000000000000000047
:10596000000000000000001800803F00F03F00F839
:105970003F00783E00007700807700807300C0F31E
:1059800000C0E1C0FF20F0FF00F8FF007CF0011E26
:10599000C0030E80030F80070700070700070700FA
:1059A000070700070700070F80070E80031EC003CC
:1059B0007CF001F8FF00F07F00C01F000000000035
:1059C00000000000000000000000000000000000D7
:1059D00000000000000000000000000000007F0048
:1059E000C0FF01E0FF03F0C10778000F38000E3C54
:1059F000001E1C001C1C001C1C001C1C001C1C008D
:105A00001C3C001E38000E78000FF0C107E0FF03B9
:105A1000C0FF01007F00001C00001C00001C00E013
:105A2000FF03E0FF03E0FF03001C00001C00001C5C
:105A300000001C000000000000000000000000004A
:105A40000000000000000000000000000000000056
:105A50000000000000000000000000000000000046
:105A60000000000000000000000000000000000036
:105A70000000000000000000000000000000000026
:105A80000000000000000000000000000000000016
:105A90000000000000000000000000000000000006
:105AA00000000000000000000000000000000000F6
:105AB00000000000000000000000000000000000E6
:105AC00000000000000000000000000000000020B6
:105AD00000003800003E00803F00E03F00FC37003F
